{
  "abi": [
    {
      "inputs": [
        {
          "internalType": "string",
          "name": "symbol_",
          "type": "string"
        }
      ],
      "stateMutability": "nonpayable",
      "type": "constructor"
    },
    {
      "anonymous": false,
      "inputs": [
        {
          "indexed": true,
          "internalType": "address",
          "name": "src",
          "type": "address"
        },
        {
          "indexed": true,
          "internalType": "address",
          "name": "guy",
          "type": "address"
        },
        {
          "indexed": false,
          "internalType": "uint256",
          "name": "wad",
          "type": "uint256"
        }
      ],
      "name": "Approval",
      "type": "event"
    },
    {
      "anonymous": false,
      "inputs": [
        {
          "indexed": true,
          "internalType": "address",
          "name": "guy",
          "type": "address"
        },
        {
          "indexed": false,
          "internalType": "uint256",
          "name": "wad",
          "type": "uint256"
        }
      ],
      "name": "Burn",
      "type": "event"
    },
    {
      "anonymous": false,
      "inputs": [
        {
          "indexed": true,
          "internalType": "address",
          "name": "authority",
          "type": "address"
        }
      ],
      "name": "LogSetAuthority",
      "type": "event"
    },
    {
      "anonymous": false,
      "inputs": [
        {
          "indexed": true,
          "internalType": "address",
          "name": "owner",
          "type": "address"
        }
      ],
      "name": "LogSetOwner",
      "type": "event"
    },
    {
      "anonymous": false,
      "inputs": [
        {
          "indexed": true,
          "internalType": "address",
          "name": "guy",
          "type": "address"
        },
        {
          "indexed": false,
          "internalType": "uint256",
          "name": "wad",
          "type": "uint256"
        }
      ],
      "name": "Mint",
      "type": "event"
    },
    {
      "anonymous": false,
      "inputs": [],
      "name": "Start",
      "type": "event"
    },
    {
      "anonymous": false,
      "inputs": [],
      "name": "Stop",
      "type": "event"
    },
    {
      "anonymous": false,
      "inputs": [
        {
          "indexed": true,
          "internalType": "address",
          "name": "src",
          "type": "address"
        },
        {
          "indexed": true,
          "internalType": "address",
          "name": "dst",
          "type": "address"
        },
        {
          "indexed": false,
          "internalType": "uint256",
          "name": "wad",
          "type": "uint256"
        }
      ],
      "name": "Transfer",
      "type": "event"
    },
    {
      "inputs": [
        {
          "internalType": "address",
          "name": "",
          "type": "address"
        },
        {
          "internalType": "address",
          "name": "",
          "type": "address"
        }
      ],
      "name": "allowance",
      "outputs": [
        {
          "internalType": "uint256",
          "name": "",
          "type": "uint256"
        }
      ],
      "stateMutability": "view",
      "type": "function"
    },
    {
      "inputs": [
        {
          "internalType": "address",
          "name": "guy",
          "type": "address"
        },
        {
          "internalType": "uint256",
          "name": "wad",
          "type": "uint256"
        }
      ],
      "name": "approve",
      "outputs": [
        {
          "internalType": "bool",
          "name": "",
          "type": "bool"
        }
      ],
      "stateMutability": "nonpayable",
      "type": "function"
    },
    {
      "inputs": [
        {
          "internalType": "address",
          "name": "guy",
          "type": "address"
        }
      ],
      "name": "approve",
      "outputs": [
        {
          "internalType": "bool",
          "name": "",
          "type": "bool"
        }
      ],
      "stateMutability": "nonpayable",
      "type": "function"
    },
    {
      "inputs": [],
      "name": "authority",
      "outputs": [
        {
          "internalType": "contract DSAuthority",
          "name": "",
          "type": "address"
        }
      ],
      "stateMutability": "view",
      "type": "function"
    },
    {
      "inputs": [
        {
          "internalType": "address",
          "name": "",
          "type": "address"
        }
      ],
      "name": "balanceOf",
      "outputs": [
        {
          "internalType": "uint256",
          "name": "",
          "type": "uint256"
        }
      ],
      "stateMutability": "view",
      "type": "function"
    },
    {
      "inputs": [
        {
          "internalType": "uint256",
          "name": "wad",
          "type": "uint256"
        }
      ],
      "name": "burn",
      "outputs": [],
      "stateMutability": "nonpayable",
      "type": "function"
    },
    {
      "inputs": [
        {
          "internalType": "address",
          "name": "guy",
          "type": "address"
        },
        {
          "internalType": "uint256",
          "name": "wad",
          "type": "uint256"
        }
      ],
      "name": "burn",
      "outputs": [],
      "stateMutability": "nonpayable",
      "type": "function"
    },
    {
      "inputs": [],
      "name": "decimals",
      "outputs": [
        {
          "internalType": "uint8",
          "name": "",
          "type": "uint8"
        }
      ],
      "stateMutability": "view",
      "type": "function"
    },
    {
      "inputs": [
        {
          "internalType": "address",
          "name": "guy",
          "type": "address"
        },
        {
          "internalType": "uint256",
          "name": "wad",
          "type": "uint256"
        }
      ],
      "name": "mint",
      "outputs": [],
      "stateMutability": "nonpayable",
      "type": "function"
    },
    {
      "inputs": [
        {
          "internalType": "uint256",
          "name": "wad",
          "type": "uint256"
        }
      ],
      "name": "mint",
      "outputs": [],
      "stateMutability": "nonpayable",
      "type": "function"
    },
    {
      "inputs": [
        {
          "internalType": "address",
          "name": "src",
          "type": "address"
        },
        {
          "internalType": "address",
          "name": "dst",
          "type": "address"
        },
        {
          "internalType": "uint256",
          "name": "wad",
          "type": "uint256"
        }
      ],
      "name": "move",
      "outputs": [],
      "stateMutability": "nonpayable",
      "type": "function"
    },
    {
      "inputs": [],
      "name": "name",
      "outputs": [
        {
          "internalType": "string",
          "name": "",
          "type": "string"
        }
      ],
      "stateMutability": "view",
      "type": "function"
    },
    {
      "inputs": [],
      "name": "owner",
      "outputs": [
        {
          "internalType": "address",
          "name": "",
          "type": "address"
        }
      ],
      "stateMutability": "view",
      "type": "function"
    },
    {
      "inputs": [
        {
          "internalType": "address",
          "name": "src",
          "type": "address"
        },
        {
          "internalType": "uint256",
          "name": "wad",
          "type": "uint256"
        }
      ],
      "name": "pull",
      "outputs": [],
      "stateMutability": "nonpayable",
      "type": "function"
    },
    {
      "inputs": [
        {
          "internalType": "address",
          "name": "dst",
          "type": "address"
        },
        {
          "internalType": "uint256",
          "name": "wad",
          "type": "uint256"
        }
      ],
      "name": "push",
      "outputs": [],
      "stateMutability": "nonpayable",
      "type": "function"
    },
    {
      "inputs": [
        {
          "internalType": "contract DSAuthority",
          "name": "authority_",
          "type": "address"
        }
      ],
      "name": "setAuthority",
      "outputs": [],
      "stateMutability": "nonpayable",
      "type": "function"
    },
    {
      "inputs": [
        {
          "internalType": "string",
          "name": "name_",
          "type": "string"
        }
      ],
      "name": "setName",
      "outputs": [],
      "stateMutability": "nonpayable",
      "type": "function"
    },
    {
      "inputs": [
        {
          "internalType": "address",
          "name": "owner_",
          "type": "address"
        }
      ],
      "name": "setOwner",
      "outputs": [],
      "stateMutability": "nonpayable",
      "type": "function"
    },
    {
      "inputs": [],
      "name": "start",
      "outputs": [],
      "stateMutability": "nonpayable",
      "type": "function"
    },
    {
      "inputs": [],
      "name": "stop",
      "outputs": [],
      "stateMutability": "nonpayable",
      "type": "function"
    },
    {
      "inputs": [],
      "name": "stopped",
      "outputs": [
        {
          "internalType": "bool",
          "name": "",
          "type": "bool"
        }
      ],
      "stateMutability": "view",
      "type": "function"
    },
    {
      "inputs": [],
      "name": "symbol",
      "outputs": [
        {
          "internalType": "string",
          "name": "",
          "type": "string"
        }
      ],
      "stateMutability": "view",
      "type": "function"
    },
    {
      "inputs": [],
      "name": "totalSupply",
      "outputs": [
        {
          "internalType": "uint256",
          "name": "",
          "type": "uint256"
        }
      ],
      "stateMutability": "view",
      "type": "function"
    },
    {
      "inputs": [
        {
          "internalType": "address",
          "name": "dst",
          "type": "address"
        },
        {
          "internalType": "uint256",
          "name": "wad",
          "type": "uint256"
        }
      ],
      "name": "transfer",
      "outputs": [
        {
          "internalType": "bool",
          "name": "",
          "type": "bool"
        }
      ],
      "stateMutability": "nonpayable",
      "type": "function"
    },
    {
      "inputs": [
        {
          "internalType": "address",
          "name": "src",
          "type": "address"
        },
        {
          "internalType": "address",
          "name": "dst",
          "type": "address"
        },
        {
          "internalType": "uint256",
          "name": "wad",
          "type": "uint256"
        }
      ],
      "name": "transferFrom",
      "outputs": [
        {
          "internalType": "bool",
          "name": "",
          "type": "bool"
        }
      ],
      "stateMutability": "nonpayable",
      "type": "function"
    }
  ],
  "bytecode": {
    "object": "0x6006805460ff1916601217905560a060408190526000608081905262000028916007916200016d565b503480156200003657600080fd5b506040516200184638038062001846833981810160405260208110156200005c57600080fd5b81019080805160405193929190846401000000008211156200007d57600080fd5b9083019060208201858111156200009357600080fd5b8251640100000000811182820188101715620000ae57600080fd5b82525081516020918201929091019080838360005b83811015620000dd578181015183820152602001620000c3565b50505050905090810190601f1680156200010b5780820380516001836020036101000a031916815260200191505b506040819052600180546001600160a01b0319163390811790915593507fce241d7ca1f669fee44b6fc00b8eba2df3bb514eed0f6f668f8f89096e81ed94925060009150a28051620001659060059060208401906200016d565b505062000209565b828054600181600116156101000203166002900490600052602060002090601f016020900481019282601f10620001b057805160ff1916838001178555620001e0565b82800160010185558215620001e0579182015b82811115620001e0578251825591602001919060010190620001c3565b50620001ee929150620001f2565b5090565b5b80821115620001ee5760008155600101620001f3565b61162d80620002196000396000f3fe608060405234801561001057600080fd5b50600436106101735760003560e01c80638da5cb5b116100de578063bb35783b11610097578063c47f002711610071578063c47f002714610483578063daea85c514610529578063dd62ed3e1461054f578063f2d5d56b1461057d57610173565b8063bb35783b1461043d578063be9a655514610473578063bf7e214f1461047b57610173565b80638da5cb5b1461037057806395d89b41146103945780639dc29fac1461039c578063a0712d68146103c8578063a9059cbb146103e5578063b753a98c1461041157610173565b8063313ce56711610130578063313ce567146102b557806340c10f19146102d357806342966c68146102ff57806370a082311461031c57806375f12b21146103425780637a9e5e4b1461034a57610173565b806306fdde031461017857806307da68f5146101f5578063095ea7b3146101ff57806313af40351461023f57806318160ddd1461026557806323b872dd1461027f575b600080fd5b6101806105a9565b6040805160208082528351818301528351919283929083019185019080838360005b838110156101ba5781810151838201526020016101a2565b50505050905090810190601f1680156101e75780820380516001836020036101000a031916815260200191505b509250505060405180910390f35b6101fd610637565b005b61022b6004803603604081101561021557600080fd5b506001600160a01b038135169060200135610701565b604080519115158252519081900360200190f35b6101fd6004803603602081101561025557600080fd5b50356001600160a01b03166107c0565b61026d61089c565b60408051918252519081900360200190f35b61022b6004803603606081101561029557600080fd5b506001600160a01b038135811691602081013590911690604001356108a2565b6102bd610b27565b6040805160ff9092168252519081900360200190f35b6101fd600480360360408110156102e957600080fd5b506001600160a01b038135169060200135610b30565b6101fd6004803603602081101561031557600080fd5b5035610c9f565b61026d6004803603602081101561033257600080fd5b50356001600160a01b0316610cac565b61022b610cbe565b6101fd6004803603602081101561036057600080fd5b50356001600160a01b0316610cce565b610378610da6565b604080516001600160a01b039092168252519081900360200190f35b610180610db5565b6101fd600480360360408110156103b257600080fd5b506001600160a01b038135169060200135610e10565b6101fd600480360360208110156103de57600080fd5b50356110fa565b61022b600480360360408110156103fb57600080fd5b506001600160a01b038135169060200135611104565b6101fd6004803603604081101561042757600080fd5b506001600160a01b038135169060200135611118565b6101fd6004803603606081101561045357600080fd5b506001600160a01b03813581169160208101359091169060400135611128565b6101fd611139565b6103786111fd565b6101fd6004803603602081101561049957600080fd5b8101906020810181356401000000008111156104b457600080fd5b8201836020820111156104c657600080fd5b803590602001918460018302840111640100000000831117156104e857600080fd5b91908080601f01602080910402602001604051908101604052809392919081815260200183838082843760009201919091525092955061120c945050505050565b61022b6004803603602081101561053f57600080fd5b50356001600160a01b03166112af565b61026d6004803603604081101561056557600080fd5b506001600160a01b03813581169160200135166112bd565b6101fd6004803603604081101561059357600080fd5b506001600160a01b0381351690602001356112da565b6007805460408051602060026001851615610100026000190190941693909304601f8101849004840282018401909252818152929183018282801561062f5780601f106106045761010080835404028352916020019161062f565b820191906000526020600020905b81548152906001019060200180831161061257829003601f168201915b505050505081565b6106656040518060400160405280600d81526020016c30baba341036b7b234b334b2b960991b8152506112e5565b61067b336000356001600160e01b03191661138b565b6106c3576040805162461bcd60e51b8152602060048201526014602482015273191ccb585d5d1a0b5d5b985d5d1a1bdc9a5e995960621b604482015290519081900360640190fd5b6001805460ff60a01b1916600160a01b1790556040517fbedf0f4abfe86d4ffad593d9607fe70e83ea706033d44d24b3b6283cf3fc4f6b90600090a1565b600154600090600160a01b900460ff1615610758576040805162461bcd60e51b8152602060048201526012602482015271191ccb5cdd1bdc0b5a5ccb5cdd1bdc1c195960721b604482015290519081900360640190fd5b3360008181526004602090815260408083206001600160a01b03881680855290835292819020869055805186815290519293927f8c5be1e5ebec7d5bd14f71427d1e84f3dd0314c0f7b2291e5b200ac8c7c3b925929181900390910190a35060015b92915050565b6107ee6040518060400160405280600d81526020016c30baba341036b7b234b334b2b960991b8152506112e5565b610804336000356001600160e01b03191661138b565b61084c576040805162461bcd60e51b8152602060048201526014602482015273191ccb585d5d1a0b5d5b985d5d1a1bdc9a5e995960621b604482015290519081900360640190fd5b600180546001600160a01b0319166001600160a01b0383811691909117918290556040519116907fce241d7ca1f669fee44b6fc00b8eba2df3bb514eed0f6f668f8f89096e81ed9490600090a250565b60025481565b600154600090600160a01b900460ff16156108f9576040805162461bcd60e51b8152602060048201526012602482015271191ccb5cdd1bdc0b5a5ccb5cdd1bdc1c195960721b604482015290519081900360640190fd5b6001600160a01b038416331480159061093757506001600160a01b038416600090815260046020908152604080832033845290915290205460001914155b15610a07576001600160a01b03841660009081526004602090815260408083203384529091529020548211156109b4576040805162461bcd60e51b815260206004820152601e60248201527f64732d746f6b656e2d696e73756666696369656e742d617070726f76616c0000604482015290519081900360640190fd5b6001600160a01b03841660009081526004602090815260408083203384529091529020546109e290836114a4565b6001600160a01b03851660009081526004602090815260408083203384529091529020555b6001600160a01b038416600090815260036020526040902054821115610a74576040805162461bcd60e51b815260206004820152601d60248201527f64732d746f6b656e2d696e73756666696369656e742d62616c616e6365000000604482015290519081900360640190fd5b6001600160a01b038416600090815260036020526040902054610a9790836114a4565b6001600160a01b038086166000908152600360205260408082209390935590851681522054610ac690836114f4565b6001600160a01b0380851660008181526003602090815260409182902094909455805186815290519193928816927fddf252ad1be2c89b69c2b068fc378daa952ba7f163c4a11628f55a4df523b3ef92918290030190a35060019392505050565b60065460ff1681565b610b5e6040518060400160405280600d81526020016c30baba341036b7b234b334b2b960991b8152506112e5565b610b74336000356001600160e01b03191661138b565b610bbc576040805162461bcd60e51b8152602060048201526014602482015273191ccb585d5d1a0b5d5b985d5d1a1bdc9a5e995960621b604482015290519081900360640190fd5b600154600160a01b900460ff1615610c10576040805162461bcd60e51b8152602060048201526012602482015271191ccb5cdd1bdc0b5a5ccb5cdd1bdc1c195960721b604482015290519081900360640190fd5b6001600160a01b038216600090815260036020526040902054610c3390826114f4565b6001600160a01b038316600090815260036020526040902055600254610c5990826114f4565b6002556040805182815290516001600160a01b038416917f0f6798a560793a54c3bcfe86a93cde1e73087d944c0ea20544137d4121396885919081900360200190a25050565b610ca93382610e10565b50565b60036020526000908152604090205481565b600154600160a01b900460ff1681565b610cfc6040518060400160405280600d81526020016c30baba341036b7b234b334b2b960991b8152506112e5565b610d12336000356001600160e01b03191661138b565b610d5a576040805162461bcd60e51b8152602060048201526014602482015273191ccb585d5d1a0b5d5b985d5d1a1bdc9a5e995960621b604482015290519081900360640190fd5b600080546001600160a01b0319166001600160a01b03838116919091178083556040519116917f1abebea81bfa2637f28358c371278fb15ede7ea8dd28d2e03b112ff6d936ada491a250565b6001546001600160a01b031681565b6005805460408051602060026001851615610100026000190190941693909304601f8101849004840282018401909252818152929183018282801561062f5780601f106106045761010080835404028352916020019161062f565b610e3e6040518060400160405280600d81526020016c30baba341036b7b234b334b2b960991b8152506112e5565b610e54336000356001600160e01b03191661138b565b610e9c576040805162461bcd60e51b8152602060048201526014602482015273191ccb585d5d1a0b5d5b985d5d1a1bdc9a5e995960621b604482015290519081900360640190fd5b600154600160a01b900460ff1615610ef0576040805162461bcd60e51b8152602060048201526012602482015271191ccb5cdd1bdc0b5a5ccb5cdd1bdc1c195960721b604482015290519081900360640190fd5b6001600160a01b0382163314801590610f2e57506001600160a01b038216600090815260046020908152604080832033845290915290205460001914155b15610ffe576001600160a01b0382166000908152600460209081526040808320338452909152902054811115610fab576040805162461bcd60e51b815260206004820152601e60248201527f64732d746f6b656e2d696e73756666696369656e742d617070726f76616c0000604482015290519081900360640190fd5b6001600160a01b0382166000908152600460209081526040808320338452909152902054610fd990826114a4565b6001600160a01b03831660009081526004602090815260408083203384529091529020555b6001600160a01b03821660009081526003602052604090205481111561106b576040805162461bcd60e51b815260206004820152601d60248201527f64732d746f6b656e2d696e73756666696369656e742d62616c616e6365000000604482015290519081900360640190fd5b6001600160a01b03821660009081526003602052604090205461108e90826114a4565b6001600160a01b0383166000908152600360205260409020556002546110b490826114a4565b6002556040805182815290516001600160a01b038416917fcc16f5dbb4873280815c1ee09dbd06736cffcc184412cf7a71a0fdb75d397ca5919081900360200190a25050565b610ca93382610b30565b60006111113384846108a2565b9392505050565b6111233383836108a2565b505050565b6111338383836108a2565b50505050565b6111676040518060400160405280600d81526020016c30baba341036b7b234b334b2b960991b8152506112e5565b61117d336000356001600160e01b03191661138b565b6111c5576040805162461bcd60e51b8152602060048201526014602482015273191ccb585d5d1a0b5d5b985d5d1a1bdc9a5e995960621b604482015290519081900360640190fd5b6001805460ff60a01b191690556040517f1b55ba3aa851a46be3b365aee5b5c140edd620d578922f3e8466d2cbd96f954b90600090a1565b6000546001600160a01b031681565b61123a6040518060400160405280600d81526020016c30baba341036b7b234b334b2b960991b8152506112e5565b611250336000356001600160e01b03191661138b565b611298576040805162461bcd60e51b8152602060048201526014602482015273191ccb585d5d1a0b5d5b985d5d1a1bdc9a5e995960621b604482015290519081900360640190fd5b80516112ab906007906020840190611564565b5050565b60006107ba82600019610701565b600460209081526000928352604080842090915290825290205481565b6111238233836108a2565b610ca9816040516024018080602001828103825283818151815260200191508051906020019080838360005b83811015611329578181015183820152602001611311565b50505050905090810190601f1680156113565780820380516001836020036101000a031916815260200191505b5060408051601f198184030181529190526020810180516001600160e01b031663104c13eb60e21b1790529250611543915050565b60006001600160a01b0383163014156113a6575060016107ba565b6001546001600160a01b03848116911614156113c4575060016107ba565b6000546001600160a01b03166113dc575060006107ba565b61140e60405180604001604052806011815260200170185d5d1a1bdc9a5d1e4b98d85b90d85b1b607a1b8152506112e5565b6000546040805163b700961360e01b81526001600160a01b0386811660048301523060248301526001600160e01b0319861660448301529151919092169163b7009613916064808301926020929190829003018186803b15801561147157600080fd5b505afa158015611485573d6000803e3d6000fd5b505050506040513d602081101561149b57600080fd5b505190506107ba565b808203828111156107ba576040805162461bcd60e51b815260206004820152601560248201527464732d6d6174682d7375622d756e646572666c6f7760581b604482015290519081900360640190fd5b808201828110156107ba576040805162461bcd60e51b815260206004820152601460248201527364732d6d6174682d6164642d6f766572666c6f7760601b604482015290519081900360640190fd5b80516a636f6e736f6c652e6c6f67602083016000808483855afa5050505050565b828054600181600116156101000203166002900490600052602060002090601f016020900481019282601f106115a557805160ff19168380011785556115d2565b828001600101855582156115d2579182015b828111156115d25782518255916020019190600101906115b7565b506115de9291506115e2565b5090565b5b808211156115de57600081556001016115e356fea2646970667358221220209ad39621bafd0633cc610d16d763cb6dc47fd3b45281d7093958c6586a6fa664736f6c634300060c0033",
    "linkReferences": {}
  },
  "methodIdentifiers": {
    "allowance(address,address)": "dd62ed3e",
    "approve(address)": "daea85c5",
    "approve(address,uint256)": "095ea7b3",
    "authority()": "bf7e214f",
    "balanceOf(address)": "70a08231",
    "burn(address,uint256)": "9dc29fac",
    "burn(uint256)": "42966c68",
    "decimals()": "313ce567",
    "mint(address,uint256)": "40c10f19",
    "mint(uint256)": "a0712d68",
    "move(address,address,uint256)": "bb35783b",
    "name()": "06fdde03",
    "owner()": "8da5cb5b",
    "pull(address,uint256)": "f2d5d56b",
    "push(address,uint256)": "b753a98c",
    "setAuthority(address)": "7a9e5e4b",
    "setName(string)": "c47f0027",
    "setOwner(address)": "13af4035",
    "start()": "be9a6555",
    "stop()": "07da68f5",
    "stopped()": "75f12b21",
    "symbol()": "95d89b41",
    "totalSupply()": "18160ddd",
    "transfer(address,uint256)": "a9059cbb",
    "transferFrom(address,address,uint256)": "23b872dd"
  },
  "id": 3
}