{
  "abi": [
    {
      "inputs": [
        {
          "internalType": "uint8",
          "name": "_ilkIndex",
          "type": "uint8"
        },
        {
          "internalType": "contract IonPool",
          "name": "_ionPool",
          "type": "address"
        },
        {
          "internalType": "contract GemJoin",
          "name": "_gemJoin",
          "type": "address"
        },
        {
          "internalType": "contract IStaderStakePoolsManager",
          "name": "_staderDeposit",
          "type": "address"
        },
        {
          "internalType": "contract Whitelist",
          "name": "_whitelist",
          "type": "address"
        },
        {
          "internalType": "contract IUniswapV3Pool",
          "name": "_wstEthUniswapPool",
          "type": "address"
        }
      ],
      "stateMutability": "nonpayable",
      "type": "constructor"
    },
    {
      "inputs": [
        {
          "internalType": "address",
          "name": "target",
          "type": "address"
        }
      ],
      "name": "AddressEmptyCode",
      "type": "error"
    },
    {
      "inputs": [
        {
          "internalType": "address",
          "name": "account",
          "type": "address"
        }
      ],
      "name": "AddressInsufficientBalance",
      "type": "error"
    },
    {
      "inputs": [],
      "name": "CannotSendEthToContract",
      "type": "error"
    },
    {
      "inputs": [],
      "name": "ExternalBalancerFlashloanNotAllowed",
      "type": "error"
    },
    {
      "inputs": [],
      "name": "ExternalUniswapFlashloanNotAllowed",
      "type": "error"
    },
    {
      "inputs": [],
      "name": "FailedInnerCall",
      "type": "error"
    },
    {
      "inputs": [
        {
          "internalType": "uint256",
          "name": "amountTokens",
          "type": "uint256"
        }
      ],
      "name": "FlashLoanedTooManyTokens",
      "type": "error"
    },
    {
      "inputs": [
        {
          "internalType": "uint256",
          "name": "repaymentAmount",
          "type": "uint256"
        },
        {
          "internalType": "uint256",
          "name": "maxRepaymentAmount",
          "type": "uint256"
        }
      ],
      "name": "FlashloanRepaymentTooExpensive",
      "type": "error"
    },
    {
      "inputs": [
        {
          "internalType": "address",
          "name": "tokenAddress",
          "type": "address"
        }
      ],
      "name": "FlashloanedInvalidToken",
      "type": "error"
    },
    {
      "inputs": [],
      "name": "MathOverflowedMulDiv",
      "type": "error"
    },
    {
      "inputs": [
        {
          "internalType": "address",
          "name": "unauthorizedCaller",
          "type": "address"
        }
      ],
      "name": "ReceiveCallerNotPool",
      "type": "error"
    },
    {
      "inputs": [
        {
          "internalType": "address",
          "name": "unauthorizedCaller",
          "type": "address"
        }
      ],
      "name": "ReceiveCallerNotVault",
      "type": "error"
    },
    {
      "inputs": [
        {
          "internalType": "address",
          "name": "token",
          "type": "address"
        }
      ],
      "name": "SafeERC20FailedOperation",
      "type": "error"
    },
    {
      "inputs": [
        {
          "internalType": "contract IUniswapV3Pool",
          "name": "pool",
          "type": "address"
        }
      ],
      "name": "WethNotInPoolPair",
      "type": "error"
    },
    {
      "inputs": [],
      "name": "FLASHLOAN_POOL",
      "outputs": [
        {
          "internalType": "contract IUniswapV3Pool",
          "name": "",
          "type": "address"
        }
      ],
      "stateMutability": "view",
      "type": "function"
    },
    {
      "inputs": [
        {
          "internalType": "uint256",
          "name": "amountCollateral",
          "type": "uint256"
        },
        {
          "internalType": "uint256",
          "name": "amountToBorrow",
          "type": "uint256"
        },
        {
          "internalType": "bytes32[]",
          "name": "proof",
          "type": "bytes32[]"
        }
      ],
      "name": "depositAndBorrow",
      "outputs": [],
      "stateMutability": "nonpayable",
      "type": "function"
    },
    {
      "inputs": [
        {
          "internalType": "uint256",
          "name": "maxCollateralToRemove",
          "type": "uint256"
        },
        {
          "internalType": "uint256",
          "name": "debtToRemove",
          "type": "uint256"
        }
      ],
      "name": "flashDeleverageWethAndSwap",
      "outputs": [],
      "stateMutability": "nonpayable",
      "type": "function"
    },
    {
      "inputs": [
        {
          "internalType": "uint256",
          "name": "initialDeposit",
          "type": "uint256"
        },
        {
          "internalType": "uint256",
          "name": "resultingAdditionalCollateral",
          "type": "uint256"
        },
        {
          "internalType": "uint256",
          "name": "maxResultingDebt",
          "type": "uint256"
        }
      ],
      "name": "flashLeverageCollateral",
      "outputs": [],
      "stateMutability": "nonpayable",
      "type": "function"
    },
    {
      "inputs": [
        {
          "internalType": "uint256",
          "name": "initialDeposit",
          "type": "uint256"
        },
        {
          "internalType": "uint256",
          "name": "resultingAdditionalCollateral",
          "type": "uint256"
        },
        {
          "internalType": "uint256",
          "name": "maxResultingDebt",
          "type": "uint256"
        }
      ],
      "name": "flashLeverageWeth",
      "outputs": [],
      "stateMutability": "payable",
      "type": "function"
    },
    {
      "inputs": [
        {
          "internalType": "uint256",
          "name": "initialDeposit",
          "type": "uint256"
        },
        {
          "internalType": "uint256",
          "name": "resultingAdditionalCollateral",
          "type": "uint256"
        },
        {
          "internalType": "uint256",
          "name": "maxResultingAdditionalDebt",
          "type": "uint256"
        }
      ],
      "name": "flashLeverageWethAndSwap",
      "outputs": [],
      "stateMutability": "payable",
      "type": "function"
    },
    {
      "inputs": [
        {
          "internalType": "contract IERC20[]",
          "name": "tokens",
          "type": "address[]"
        },
        {
          "internalType": "uint256[]",
          "name": "amounts",
          "type": "uint256[]"
        },
        {
          "internalType": "uint256[]",
          "name": "",
          "type": "uint256[]"
        },
        {
          "internalType": "bytes",
          "name": "userData",
          "type": "bytes"
        }
      ],
      "name": "receiveFlashLoan",
      "outputs": [],
      "stateMutability": "nonpayable",
      "type": "function"
    },
    {
      "inputs": [
        {
          "internalType": "uint256",
          "name": "debtToRepay",
          "type": "uint256"
        },
        {
          "internalType": "uint256",
          "name": "collateralToWithdraw",
          "type": "uint256"
        }
      ],
      "name": "repayAndWithdraw",
      "outputs": [],
      "stateMutability": "nonpayable",
      "type": "function"
    },
    {
      "inputs": [
        {
          "internalType": "uint256",
          "name": "fee0",
          "type": "uint256"
        },
        {
          "internalType": "uint256",
          "name": "fee1",
          "type": "uint256"
        },
        {
          "internalType": "bytes",
          "name": "data",
          "type": "bytes"
        }
      ],
      "name": "uniswapV3FlashCallback",
      "outputs": [],
      "stateMutability": "nonpayable",
      "type": "function"
    },
    {
      "stateMutability": "payable",
      "type": "receive"
    }
  ],
  "bytecode": {
    "object": "0x6101a060405260016000553480156200001757600080fd5b50604051620036c8380380620036c88339810160408190526200003a91620004e9565b6001600160a01b03851660c081905260ff871660a05260408051636f307dc360e01b8152905183928992899289928892600092636f307dc3916004808201926020929091908290030181865afa15801562000099573d6000803e3d6000fd5b505050506040513d601f19601f82011682018060405250810190620000bf919062000582565b6001600160a01b0381811660805260c05160405163efff005f60e01b815260ff8916600482015292935060009291169063efff005f90602401602060405180830381865afa15801562000116573d6000803e3d6000fd5b505050506040513d601f19601f820116820180604052508101906200013c919062000582565b6001600160a01b038181166101005285811660e0528481166101205260405163095ea7b360e01b81528782166004820152600019602482015291925083169063095ea7b3906044016020604051808303816000875af1158015620001a4573d6000803e3d6000fd5b505050506040513d601f19601f82011682018060405250810190620001ca9190620005a9565b5060405163095ea7b360e01b81526001600160a01b038581166004830152600019602483015282169063095ea7b3906044016020604051808303816000875af11580156200021c573d6000803e3d6000fd5b505050506040513d601f19601f82011682018060405250810190620002429190620005a9565b505060805160405163095ea7b360e01b815273ba12222222228d8ba445958a75a0704d566bf2c8600482015260001960248201529095506001600160a01b038616945063095ea7b393506044019150620002999050565b6020604051808303816000875af1158015620002b9573d6000803e3d6000fd5b505050506040513d601f19601f82011682018060405250810190620002df9190620005a9565b506101005160405163095ea7b360e01b815273ba12222222228d8ba445958a75a0704d566bf2c8600482015260001960248201526001600160a01b039091169063095ea7b3906044016020604051808303816000875af115801562000348573d6000803e3d6000fd5b505050506040513d601f19601f820116820180604052508101906200036e9190620005a9565b50816001600160a01b0316610160816001600160a01b0316815250506000826001600160a01b0316630dfe16816040518163ffffffff1660e01b8152600401602060405180830381865afa158015620003cb573d6000803e3d6000fd5b505050506040513d601f19601f82011682018060405250810190620003f1919062000582565b90506000836001600160a01b031663d21220a76040518163ffffffff1660e01b8152600401602060405180830381865afa15801562000434573d6000803e3d6000fd5b505050506040513d601f19601f820116820180604052508101906200045a919062000582565b90506001600160a01b038381168382168114918316148115826200047c575080155b15620004aa57604051633f42eb2d60e01b81526001600160a01b038716600482015260240160405180910390fd5b501515610140525050506001600160a01b039093166101805250620005cd945050505050565b6001600160a01b0381168114620004e657600080fd5b50565b60008060008060008060c087890312156200050357600080fd5b865160ff811681146200051557600080fd5b60208801519096506200052881620004d0565b60408801519095506200053b81620004d0565b60608801519094506200054e81620004d0565b60808801519093506200056181620004d0565b60a08801519092506200057481620004d0565b809150509295509295509295565b6000602082840312156200059557600080fd5b8151620005a281620004d0565b9392505050565b600060208284031215620005bc57600080fd5b81518015158114620005a257600080fd5b60805160a05160c05160e0516101005161012051610140516101605161018051612f5e6200076a600039600081816115190152611f090152600081816101c701528181610590015281816106bc015261092601526000818161055f015261068b0152600061083b0152600081816102320152818161043c01528181610514015281816108e501528181610a6701528181610c3a01528181610d05015281816111b301528181611297015281816112ed01526113490152600081816115610152611e250152600081816115cd015281816116d20152818161178c0152818161186401528181611b4501528181611bfe01528181611cf20152611da30152600081816107d40152818161086a015281816115f8015281816116a7015281816117570152818161188b01528181611b1b01528181611bc901528181611cab0152611d5f01526000818160aa0152818161027e015281816104f301528181610a3801528181610b9b01528181610c5b01528181610d3401528181610e3001528181610ed60152818161101f015281816110cf0152611e980152612f5e6000f3fe60806040526004361061009a5760003560e01c8063e9cbafb011610069578063f04f27071161004e578063f04f270714610195578063f676c6a4146101b5578063f978b2a51461020557600080fd5b8063e9cbafb014610155578063ebc9b94d1461017557600080fd5b80631c8f6623146100ef5780633d2a4f5614610102578063934f73a41461011557806396c752591461013557600080fd5b366100ea57336001600160a01b037f000000000000000000000000000000000000000000000000000000000000000016146100e857604051637c56635360e01b815260040160405180910390fd5b005b600080fd5b6100e86100fd36600461248d565b610225565b6100e861011036600461248d565b61042f565b34801561012157600080fd5b506100e86101303660046124b9565b61067a565b34801561014157600080fd5b506100e86101503660046124db565b6107d2565b34801561016157600080fd5b506100e861017036600461255e565b61091b565b34801561018157600080fd5b506100e86101903660046124b9565b610eb4565b3480156101a157600080fd5b506100e86101b036600461272a565b610f5c565b3480156101c157600080fd5b506101e97f000000000000000000000000000000000000000000000000000000000000000081565b6040516001600160a01b03909116815260200160405180910390f35b34801561021157600080fd5b506100e861022036600461248d565b6112e0565b61025a6001600160a01b037f00000000000000000000000000000000000000000000000000000000000000001633308661148e565b604080516001808252818301909252600091602080830190803683370190505090507f0000000000000000000000000000000000000000000000000000000000000000816000815181106102b0576102b0612835565b6001600160a01b039092166020928302919091019091015260006102d48585612861565b905060006102e18261150a565b905080600003610302576102fa33308760006001611545565b505050505050565b8381111561033257604051634245776b60e11b815260048101829052602481018590526044015b60405180910390fd5b60408051600180825281830190925260009160208083019080368337019050509050818160008151811061036857610368612835565b60209081029190910181019190915260026000556040805133928101929092528101889052606081018790526080810186905273ba12222222228d8ba445958a75a0704d566bf2c890635c38449e9030908790859060a0015b6040516020818303038152906040526040518563ffffffff1660e01b81526004016103ef94939291906128ff565b600060405180830381600087803b15801561040957600080fd5b505af115801561041d573d6000803e3d6000fd5b50506001600055505050505050505050565b6104646001600160a01b037f00000000000000000000000000000000000000000000000000000000000000001633308661148e565b60006104708484612861565b90508060000361048f5761048933308560006001611545565b50505050565b6104ca6040518060a0016040528060006001600160a01b03168152602001600081526020016000815260200160008152602001600081525090565b6040805160808101825230808252600060208301819052928201526060810182905290610539827f00000000000000000000000000000000000000000000000000000000000000007f0000000000000000000000000000000000000000000000000000000000000000876118f9565b3384526020840188905260408401869052606084018190526080840185905290506000807f00000000000000000000000000000000000000000000000000000000000000001561058b5782915061058e565b50815b7f00000000000000000000000000000000000000000000000000000000000000006001600160a01b031663490e6cbc3084848960405160200161060f9190600060a0820190506001600160a01b0383511682526020830151602083015260408301516040830152606083015160608301526080830151608083015292915050565b6040516020818303038152906040526040518563ffffffff1660e01b815260040161063d9493929190612982565b600060405180830381600087803b15801561065757600080fd5b505af115801561066b573d6000803e3d6000fd5b50505050505050505050505050565b80600003610686575050565b6000807f0000000000000000000000000000000000000000000000000000000000000000156106b7578291506106ba565b50815b7f00000000000000000000000000000000000000000000000000000000000000006001600160a01b031663490e6cbc3084846040518060a00160405280336001600160a01b03168152602001600081526020018a8152602001898152602001600081525060405160200161076c9190600060a0820190506001600160a01b0383511682526020830151602083015260408301516040830152606083015160608301526080830151608083015292915050565b6040516020818303038152906040526040518563ffffffff1660e01b815260040161079a9493929190612982565b600060405180830381600087803b1580156107b457600080fd5b505af11580156107c8573d6000803e3d6000fd5b5050505050505050565b7f00000000000000000000000000000000000000000000000000000000000000008282808060200260200160405190810160405280939291908181526020018383602002808284376000920191909152505060405163125ddf4d60e01b81526001600160a01b037f000000000000000000000000000000000000000000000000000000000000000016925063125ddf4d9150610896907f000000000000000000000000000000000000000000000000000000000000000090339086906004016129b0565b602060405180830381865afa1580156108b3573d6000803e3d6000fd5b505050506040513d601f19601f820116820180604052508101906108d791906129db565b5061090d6001600160a01b037f00000000000000000000000000000000000000000000000000000000000000001633308961148e565b6102fa333388886001611545565b336001600160a01b037f0000000000000000000000000000000000000000000000000000000000000000161461096657604051634c04358d60e11b8152336004820152602401610329565b6000610974828401846129fd565b604080516080810182523080825260006020830181905292820152606081018290529192506109a38688612a76565b608084015190915015610c1e57608083015183516040850151606086015160006109cd8683612a76565b9050828111156109fa57604051634245776b60e11b81526004810182905260248101849052604401610329565b6040805160c081019091527f37b18b10ce5635a84834b26095a0ae5639dcb7520000000000000000000005cb815260009060208101600181526020017f00000000000000000000000000000000000000000000000000000000000000006001600160a01b031681526020017f00000000000000000000000000000000000000000000000000000000000000006001600160a01b03168152602001878152602001604051806020016040528060008152508152509050600073ba12222222228d8ba445958a75a0704d566bf2c86001600160a01b03166352bbbe29838b600019426001610ae69190612a76565b6040518563ffffffff1660e01b8152600401610b059493929190612ac1565b6020604051808303816000875af1158015610b24573d6000803e3d6000fd5b505050506040513d601f19601f82011682018060405250810190610b489190612b7e565b905089606001518114610b5d57610b5d612b97565b6000878b60200151610b6f9190612a76565b9050610b7f873083876000611545565b60405163a9059cbb60e01b8152336004820152602481018590527f00000000000000000000000000000000000000000000000000000000000000006001600160a01b03169063a9059cbb906044016020604051808303816000875af1158015610bec573d6000803e3d6000fd5b505050506040513d601f19601f82011682018060405250810190610c1091906129db565b505050505050505050610eab565b6000818460600151610c309190612a76565b90506000610c80847f00000000000000000000000000000000000000000000000000000000000000007f0000000000000000000000000000000000000000000000000000000000000000856118f9565b604086015190915080821115610cb357604051634245776b60e11b81526004810183905260248101829052604401610329565b610cc7866000015130848960600151611b0a565b6040805160c081019091527f37b18b10ce5635a84834b26095a0ae5639dcb7520000000000000000000005cb815260009060208101600181526020017f00000000000000000000000000000000000000000000000000000000000000006001600160a01b031681526020017f00000000000000000000000000000000000000000000000000000000000000006001600160a01b0316815260200185815260200160405180602001604052806000815250815250905073ba12222222228d8ba445958a75a0704d566bf2c86001600160a01b03166352bbbe298288600019426001610db19190612a76565b6040518563ffffffff1660e01b8152600401610dd09493929190612ac1565b6020604051808303816000875af1158015610def573d6000803e3d6000fd5b505050506040513d601f19601f82011682018060405250810190610e139190612b7e565b5060405163a9059cbb60e01b8152336004820152602481018590527f00000000000000000000000000000000000000000000000000000000000000006001600160a01b03169063a9059cbb906044016020604051808303816000875af1158015610e81573d6000803e3d6000fd5b505050506040513d601f19601f82011682018060405250810190610ea591906129db565b50505050505b50505050505050565b6040516323b872dd60e01b8152336004820152306024820152604481018390527f00000000000000000000000000000000000000000000000000000000000000006001600160a01b0316906323b872dd906064016020604051808303816000875af1158015610f27573d6000803e3d6000fd5b505050506040513d601f19601f82011682018060405250810190610f4b91906129db565b50610f5833338385611b0a565b5050565b600184511115610f835783516040516243e53360e71b815260040161032991815260200190565b3373ba12222222228d8ba445958a75a0704d566bf2c814610fb9576040516337e52a2b60e11b8152336004820152602401610329565b600054600214610fdc57604051633e0560f760e11b815260040160405180910390fd5b600084600081518110610ff157610ff1612835565b60200260200101519050600080600080858060200190518101906110159190612bad565b93509350935093507f00000000000000000000000000000000000000000000000000000000000000006001600160a01b0316856001600160a01b0316036111a757600061107b8960008151811061106e5761106e612835565b6020026020010151611e7f565b9050826110888583612a76565b1461109557611095612b97565b818111156110a5576110a5612b97565b6110cd8530858c6000815181106110be576110be612835565b60200260200101516000611545565b7f00000000000000000000000000000000000000000000000000000000000000006001600160a01b031663a9059cbb73ba12222222228d8ba445958a75a0704d566bf2c88b60008151811061112457611124612835565b60200260200101516040518363ffffffff1660e01b815260040161115d9291906001600160a01b03929092168252602082015260400190565b6020604051808303816000875af115801561117c573d6000803e3d6000fd5b505050506040513d601f19601f820116820180604052508101906111a091906129db565b50506112d5565b846001600160a01b03167f00000000000000000000000000000000000000000000000000000000000000006001600160a01b03161461120457604051632742f9c360e21b81526001600160a01b0386166004820152602401610329565b60006112298960008151811061121c5761121c612835565b602002602001015161150a565b905082848a60008151811061124057611240612835565b60200260200101516112529190612a76565b1461125f5761125f612b97565b8181111561126f5761126f612b97565b61127d853085846000611545565b600061128882611e7f565b90506112d26001600160a01b037f00000000000000000000000000000000000000000000000000000000000000001673ba12222222228d8ba445958a75a0704d566bf2c883611f31565b50505b505050505050505050565b6113156001600160a01b037f00000000000000000000000000000000000000000000000000000000000000001633308661148e565b60006113218484612861565b60408051600180825281830190925291925060009190602080830190803683370190505090507f00000000000000000000000000000000000000000000000000000000000000008160008151811061137b5761137b612835565b6001600160a01b03929092166020928302919091019091015260408051600180825281830190925260009181602001602082028036833701905050905082816000815181106113cc576113cc612835565b602002602001018181525050806000815181106113eb576113eb612835565b6020026020010151600003611409576102fa33308760006001611545565b60006114148461150a565b90508481111561144157604051634245776b60e11b81526004810182905260248101869052604401610329565b600260005560408051336020820152908101889052606081018790526080810186905273ba12222222228d8ba445958a75a0704d566bf2c890635c38449e9030908690869060a0016103c1565b6040516001600160a01b0384811660248301528381166044830152606482018390526104899186918216906323b872dd906084015b604051602081830303815290604052915060e01b6020820180517bffffffffffffffffffffffffffffffffffffffffffffffffffffffff8381831617835250505050611f67565b600061153f6001600160a01b037f00000000000000000000000000000000000000000000000000000000000000001683611fca565b92915050565b604051633b4da69f60e01b8152306004820152602481018490527f00000000000000000000000000000000000000000000000000000000000000006001600160a01b031690633b4da69f90604401600060405180830381600087803b1580156115ad57600080fd5b505af11580156115c1573d6000803e3d6000fd5b50506001600160a01b037f000000000000000000000000000000000000000000000000000000000000000016915063918a2f4290507f00000000000000000000000000000000000000000000000000000000000000008730876000604051908082528060200260200182016040528015611645578160200160208202803683370190505b506040518663ffffffff1660e01b8152600401611666959493929190612bec565b600060405180830381600087803b15801561168057600080fd5b505af1158015611694573d6000803e3d6000fd5b5050604051633c04b54760e01b815260ff7f0000000000000000000000000000000000000000000000000000000000000000166004820152600092507f00000000000000000000000000000000000000000000000000000000000000006001600160a01b03169150633c04b54790602401602060405180830381865afa158015611722573d6000803e3d6000fd5b505050506040513d601f19601f820116820180604052508101906117469190612b7e565b604051639b7fd77760e01b815260ff7f00000000000000000000000000000000000000000000000000000000000000001660048201529091506000906001600160a01b037f00000000000000000000000000000000000000000000000000000000000000001690639b7fd7779060240160a060405180830381865afa1580156117d3573d6000803e3d6000fd5b505050506040513d601f19601f820116820180604052508101906117f79190612c27565b50506cffffffffffffffffffffffffff16925050506000818361181a9190612a76565b905060008085600181111561183157611831612a89565b0361184757611840868361216e565b9050611854565b6118518683612190565b90505b85156112d5576001600160a01b037f000000000000000000000000000000000000000000000000000000000000000016639306f2f87f00000000000000000000000000000000000000000000000000000000000000008b8b8560006040519080825280602002602001820160405280156118d8578160200160208202803683370190505b506040518663ffffffff1660e01b815260040161063d959493929190612bec565b6040805160a0810182527f37b18b10ce5635a84834b26095a0ae5639dcb7520000000000000000000005cb8152600060208083018290526001838501819052606080850187905285518084018752848152608086015285516002808252918101875293958695929492938693929190830190803683370190505090508781858151811061198857611988612835565b60200260200101906001600160a01b031690816001600160a01b031681525050868184815181106119bb576119bb612835565b6001600160a01b039290921660209283029190910190910152604080516001808252818301909252600091816020015b611a206040518060a0016040528060008019168152602001600081526020016000815260200160008152602001606081525090565b8152602001906001900390816119eb5790505090508281600081518110611a4957611a49612835565b602002602001018190525073ba12222222228d8ba445958a75a0704d566bf2c86001600160a01b031663f84d066e600183858e6040518563ffffffff1660e01b8152600401611a9b9493929190612cd4565b6000604051808303816000875af1158015611aba573d6000803e3d6000fd5b505050506040513d6000823e601f3d908101601f19168201604052611ae29190810190612dc7565b8581518110611af357611af3612835565b602002602001015195505050505050949350505050565b604051633c04b54760e01b815260ff7f00000000000000000000000000000000000000000000000000000000000000001660048201526000907f00000000000000000000000000000000000000000000000000000000000000006001600160a01b031690633c04b54790602401602060405180830381865afa158015611b94573d6000803e3d6000fd5b505050506040513d601f19601f82011682018060405250810190611bb89190612b7e565b604051639b7fd77760e01b815260ff7f00000000000000000000000000000000000000000000000000000000000000001660048201529091506000906001600160a01b037f00000000000000000000000000000000000000000000000000000000000000001690639b7fd7779060240160a060405180830381865afa158015611c45573d6000803e3d6000fd5b505050506040513d601f19601f82011682018060405250810190611c699190612c27565b50506cffffffffffffffffffffffffff169250505060008183611c8c9190612a76565b90506000611c9a8583612190565b604051638459b43760e01b815260ff7f00000000000000000000000000000000000000000000000000000000000000001660048201526001600160a01b038a81166024830152306044830152606482018390529192507f000000000000000000000000000000000000000000000000000000000000000090911690638459b43790608401600060405180830381600087803b158015611d3857600080fd5b505af1158015611d4c573d6000803e3d6000fd5b5050604051631d0fe70360e21b815260ff7f00000000000000000000000000000000000000000000000000000000000000001660048201526001600160a01b038b81166024830152306044830152606482018a90527f000000000000000000000000000000000000000000000000000000000000000016925063743f9c0c9150608401600060405180830381600087803b158015611de957600080fd5b505af1158015611dfd573d6000803e3d6000fd5b505060405163ef693bed60e01b81526001600160a01b038a81166004830152602482018a90527f000000000000000000000000000000000000000000000000000000000000000016925063ef693bed9150604401600060405180830381600087803b158015611e6b57600080fd5b505af1158015610ea5573d6000803e3d6000fd5b604051632e1a7d4d60e01b8152600481018290526000907f00000000000000000000000000000000000000000000000000000000000000006001600160a01b031690632e1a7d4d90602401600060405180830381600087803b158015611ee457600080fd5b505af1158015611ef8573d6000803e3d6000fd5b5061153f9250506001600160a01b037f0000000000000000000000000000000000000000000000000000000000000000169050836121a9565b6040516001600160a01b03838116602483015260448201839052611f6291859182169063a9059cbb906064016114c3565b505050565b6000611f7c6001600160a01b03841683612218565b90508051600014158015611fa1575080806020019051810190611f9f91906129db565b155b15611f6257604051635274afe760e01b81526001600160a01b0384166004820152602401610329565b600080836001600160a01b031663490ffa356040518163ffffffff1660e01b8152600401602060405180830381865afa15801561200b573d6000803e3d6000fd5b505050506040513d601f19601f8201168201806040525081019061202f9190612e4d565b6001600160a01b031663defd024d6040518163ffffffff1660e01b8152600401602060405180830381865afa15801561206c573d6000803e3d6000fd5b505050506040513d601f19601f820116820180604052508101906120909190612e4d565b6001600160a01b031663e6aa216c6040518163ffffffff1660e01b8152600401606060405180830381865afa1580156120cd573d6000803e3d6000fd5b505050506040513d601f19601f820116820180604052508101906120f19190612e6a565b604001519050612166846001600160a01b03166301e1d1146040518163ffffffff1660e01b8152600401602060405180830381865afa158015612138573d6000803e3d6000fd5b505050506040513d601f19601f8201168201806040525081019061215c9190612b7e565b8490836001612226565b949350505050565b6000612189836b033b2e3c9fd0803ce8000000846001612226565b9392505050565b6000612189836b033b2e3c9fd0803ce800000084612277565b60405163f340fa0160e01b81523060048201526000906001600160a01b0384169063f340fa0190849060240160206040518083038185885af11580156121f3573d6000803e3d6000fd5b50505050506040513d601f19601f820116820180604052508101906121899190612b7e565b60606121898383600061233b565b600080612234868686612277565b905061223f836123d8565b801561225b57506000848061225657612256612ec6565b868809115b1561226e5761226b600182612a76565b90505b95945050505050565b60008383028160001985870982811083820303915050806000036122ae578382816122a4576122a4612ec6565b0492505050612189565b8084116122ce5760405163227bc15360e01b815260040160405180910390fd5b6000848688096000868103871696879004966002600389028118808a02820302808a02820302808a02820302808a02820302808a02820302808a02909103029181900381900460010186841190950394909402919094039290920491909117919091029150509392505050565b6060814710156123605760405163cd78605960e01b8152306004820152602401610329565b600080856001600160a01b0316848660405161237c9190612edc565b60006040518083038185875af1925050503d80600081146123b9576040519150601f19603f3d011682016040523d82523d6000602084013e6123be565b606091505b50915091506123ce868383612405565b9695505050505050565b600060028260038111156123ee576123ee612a89565b6123f89190612ef8565b60ff166001149050919050565b60608261241a5761241582612461565b612189565b815115801561243157506001600160a01b0384163b155b1561245a57604051639996b31560e01b81526001600160a01b0385166004820152602401610329565b5080612189565b8051156124715780518082602001fd5b604051630a12f52160e11b815260040160405180910390fd5b50565b6000806000606084860312156124a257600080fd5b505081359360208301359350604090920135919050565b600080604083850312156124cc57600080fd5b50508035926020909101359150565b600080600080606085870312156124f157600080fd5b8435935060208501359250604085013567ffffffffffffffff8082111561251757600080fd5b818701915087601f83011261252b57600080fd5b81358181111561253a57600080fd5b8860208260051b850101111561254f57600080fd5b95989497505060200194505050565b6000806000806060858703121561257457600080fd5b8435935060208501359250604085013567ffffffffffffffff8082111561259a57600080fd5b818701915087601f8301126125ae57600080fd5b8135818111156125bd57600080fd5b88602082850101111561254f57600080fd5b634e487b7160e01b600052604160045260246000fd5b604051601f8201601f1916810167ffffffffffffffff8111828210171561260e5761260e6125cf565b604052919050565b600067ffffffffffffffff821115612630576126306125cf565b5060051b60200190565b6001600160a01b038116811461248a57600080fd5b600082601f83011261266057600080fd5b8135602061267561267083612616565b6125e5565b82815260059290921b8401810191818101908684111561269457600080fd5b8286015b848110156126af5780358352918301918301612698565b509695505050505050565b600082601f8301126126cb57600080fd5b813567ffffffffffffffff8111156126e5576126e56125cf565b6126f8601f8201601f19166020016125e5565b81815284602083860101111561270d57600080fd5b816020850160208301376000918101602001919091529392505050565b6000806000806080858703121561274057600080fd5b843567ffffffffffffffff8082111561275857600080fd5b818701915087601f83011261276c57600080fd5b8135602061277c61267083612616565b82815260059290921b8401810191818101908b84111561279b57600080fd5b948201945b838610156127c25785356127b38161263a565b825294820194908201906127a0565b985050880135925050808211156127d857600080fd5b6127e48883890161264f565b945060408701359150808211156127fa57600080fd5b6128068883890161264f565b9350606087013591508082111561281c57600080fd5b50612829878288016126ba565b91505092959194509250565b634e487b7160e01b600052603260045260246000fd5b634e487b7160e01b600052601160045260246000fd5b8181038181111561153f5761153f61284b565b600081518084526020808501945080840160005b838110156128a457815187529582019590820190600101612888565b509495945050505050565b60005b838110156128ca5781810151838201526020016128b2565b50506000910152565b600081518084526128eb8160208601602086016128af565b601f01601f19169290920160200192915050565b6000608082016001600160a01b038088168452602060808186015282885180855260a087019150828a01945060005b8181101561294c57855185168352948301949183019160010161292e565b505085810360408701526129608189612874565b9350505050828103606084015261297781856128d3565b979650505050505050565b6001600160a01b03851681528360208201528260408201526080606082015260006123ce60808301846128d3565b60ff841681526001600160a01b038316602082015260606040820152600061226e6060830184612874565b6000602082840312156129ed57600080fd5b8151801515811461218957600080fd5b600060a08284031215612a0f57600080fd5b60405160a0810181811067ffffffffffffffff82111715612a3257612a326125cf565b6040528235612a408161263a565b80825250602083013560208201526040830135604082015260608301356060820152608083013560808201528091505092915050565b8082018082111561153f5761153f61284b565b634e487b7160e01b600052602160045260246000fd5b60028110612abd57634e487b7160e01b600052602160045260246000fd5b9052565b60e08152845160e082015260006020860151612ae1610100840182612a9f565b5060408601516001600160a01b03908116610120840152606087015116610140830152608086015161016083015260a086015160c0610180840152612b2a6101a08401826128d3565b915050612b6c60208301866001600160a01b03808251168352602082015115156020840152806040830151166040840152506060810151151560608301525050565b60a082019390935260c0015292915050565b600060208284031215612b9057600080fd5b5051919050565b634e487b7160e01b600052600160045260246000fd5b60008060008060808587031215612bc357600080fd5b8451612bce8161263a565b60208601516040870151606090970151919890975090945092505050565b60ff8616815260006001600160a01b03808716602084015280861660408401525083606083015260a0608083015261297760a0830184612874565b600080600080600060a08688031215612c3f57600080fd5b855194506020860151935060408601516cffffffffffffffffffffffffff81168114612c6a57600080fd5b60608701516080880151919450925065ffffffffffff81168114612c8d57600080fd5b809150509295509295909350565b600081518084526020808501945080840160005b838110156128a45781516001600160a01b031687529582019590820190600101612caf565b600060e08201612ce48388612a9f565b602060e08185015281875180845261010093508386019150838160051b870101935082890160005b82811015612d6e5787860360ff190184528151805187528581015186880152604080820151908801526060808201519088015260809081015160a091880182905290612d5a818901836128d3565b975050509284019290840190600101612d0c565b50505050508281036040840152612d858186612c9b565b91505061226e60608301846001600160a01b03808251168352602082015115156020840152806040830151166040840152506060810151151560608301525050565b60006020808385031215612dda57600080fd5b825167ffffffffffffffff811115612df157600080fd5b8301601f81018513612e0257600080fd5b8051612e1061267082612616565b81815260059190911b82018301908381019087831115612e2f57600080fd5b928401925b8284101561297757835182529284019290840190612e34565b600060208284031215612e5f57600080fd5b81516121898161263a565b600060608284031215612e7c57600080fd5b6040516060810181811067ffffffffffffffff82111715612e9f57612e9f6125cf565b80604052508251815260208301516020820152604083015160408201528091505092915050565b634e487b7160e01b600052601260045260246000fd5b60008251612eee8184602087016128af565b9190910192915050565b600060ff831680612f1957634e487b7160e01b600052601260045260246000fd5b8060ff8416069150509291505056fea26469706673582212209c66c570a0d0acbff1dfb5d630dd2191e6a40df9e287d76e4f5262a08c1a4b1064736f6c63430008150033",
    "linkReferences": {}
  },
  "methodIdentifiers": {
    "FLASHLOAN_POOL()": "f676c6a4",
    "depositAndBorrow(uint256,uint256,bytes32[])": "96c75259",
    "flashDeleverageWethAndSwap(uint256,uint256)": "934f73a4",
    "flashLeverageCollateral(uint256,uint256,uint256)": "f978b2a5",
    "flashLeverageWeth(uint256,uint256,uint256)": "1c8f6623",
    "flashLeverageWethAndSwap(uint256,uint256,uint256)": "3d2a4f56",
    "receiveFlashLoan(address[],uint256[],uint256[],bytes)": "f04f2707",
    "repayAndWithdraw(uint256,uint256)": "ebc9b94d",
    "uniswapV3FlashCallback(uint256,uint256,bytes)": "e9cbafb0"
  },
  "id": 103
}