{
    "abi": [
        {
            "type": "constructor",
            "inputs": [
                {
                    "name": "_pool",
                    "type": "address",
                    "internalType": "contract IonPool"
                },
                {
                    "name": "_gem",
                    "type": "address",
                    "internalType": "contract IERC20"
                },
                {
                    "name": "_ilkIndex",
                    "type": "uint8",
                    "internalType": "uint8"
                },
                {
                    "name": "owner",
                    "type": "address",
                    "internalType": "address"
                }
            ],
            "stateMutability": "nonpayable"
        },
        {
            "type": "function",
            "name": "GEM",
            "inputs": [],
            "outputs": [
                {
                    "name": "",
                    "type": "address",
                    "internalType": "contract IERC20"
                }
            ],
            "stateMutability": "view"
        },
        {
            "type": "function",
            "name": "ILK_INDEX",
            "inputs": [],
            "outputs": [
                {
                    "name": "",
                    "type": "uint8",
                    "internalType": "uint8"
                }
            ],
            "stateMutability": "view"
        },
        {
            "type": "function",
            "name": "POOL",
            "inputs": [],
            "outputs": [
                {
                    "name": "",
                    "type": "address",
                    "internalType": "contract IonPool"
                }
            ],
            "stateMutability": "view"
        },
        {
            "type": "function",
            "name": "acceptOwnership",
            "inputs": [],
            "outputs": [],
            "stateMutability": "nonpayable"
        },
        {
            "type": "function",
            "name": "exit",
            "inputs": [
                {
                    "name": "user",
                    "type": "address",
                    "internalType": "address"
                },
                {
                    "name": "amount",
                    "type": "uint256",
                    "internalType": "uint256"
                }
            ],
            "outputs": [],
            "stateMutability": "nonpayable"
        },
        {
            "type": "function",
            "name": "join",
            "inputs": [
                {
                    "name": "user",
                    "type": "address",
                    "internalType": "address"
                },
                {
                    "name": "amount",
                    "type": "uint256",
                    "internalType": "uint256"
                }
            ],
            "outputs": [],
            "stateMutability": "nonpayable"
        },
        {
            "type": "function",
            "name": "owner",
            "inputs": [],
            "outputs": [
                {
                    "name": "",
                    "type": "address",
                    "internalType": "address"
                }
            ],
            "stateMutability": "view"
        },
        {
            "type": "function",
            "name": "pause",
            "inputs": [],
            "outputs": [],
            "stateMutability": "nonpayable"
        },
        {
            "type": "function",
            "name": "paused",
            "inputs": [],
            "outputs": [
                {
                    "name": "",
                    "type": "bool",
                    "internalType": "bool"
                }
            ],
            "stateMutability": "view"
        },
        {
            "type": "function",
            "name": "pendingOwner",
            "inputs": [],
            "outputs": [
                {
                    "name": "",
                    "type": "address",
                    "internalType": "address"
                }
            ],
            "stateMutability": "view"
        },
        {
            "type": "function",
            "name": "renounceOwnership",
            "inputs": [],
            "outputs": [],
            "stateMutability": "nonpayable"
        },
        {
            "type": "function",
            "name": "totalGem",
            "inputs": [],
            "outputs": [
                {
                    "name": "",
                    "type": "uint256",
                    "internalType": "uint256"
                }
            ],
            "stateMutability": "view"
        },
        {
            "type": "function",
            "name": "transferOwnership",
            "inputs": [
                {
                    "name": "newOwner",
                    "type": "address",
                    "internalType": "address"
                }
            ],
            "outputs": [],
            "stateMutability": "nonpayable"
        },
        {
            "type": "function",
            "name": "unpause",
            "inputs": [],
            "outputs": [],
            "stateMutability": "nonpayable"
        },
        {
            "type": "event",
            "name": "OwnershipTransferStarted",
            "inputs": [
                {
                    "name": "previousOwner",
                    "type": "address",
                    "indexed": true,
                    "internalType": "address"
                },
                {
                    "name": "newOwner",
                    "type": "address",
                    "indexed": true,
                    "internalType": "address"
                }
            ],
            "anonymous": false
        },
        {
            "type": "event",
            "name": "OwnershipTransferred",
            "inputs": [
                {
                    "name": "previousOwner",
                    "type": "address",
                    "indexed": true,
                    "internalType": "address"
                },
                {
                    "name": "newOwner",
                    "type": "address",
                    "indexed": true,
                    "internalType": "address"
                }
            ],
            "anonymous": false
        },
        {
            "type": "event",
            "name": "Paused",
            "inputs": [
                {
                    "name": "account",
                    "type": "address",
                    "indexed": false,
                    "internalType": "address"
                }
            ],
            "anonymous": false
        },
        {
            "type": "event",
            "name": "Unpaused",
            "inputs": [
                {
                    "name": "account",
                    "type": "address",
                    "indexed": false,
                    "internalType": "address"
                }
            ],
            "anonymous": false
        },
        {
            "type": "error",
            "name": "AddressEmptyCode",
            "inputs": [
                {
                    "name": "target",
                    "type": "address",
                    "internalType": "address"
                }
            ]
        },
        {
            "type": "error",
            "name": "AddressInsufficientBalance",
            "inputs": [
                {
                    "name": "account",
                    "type": "address",
                    "internalType": "address"
                }
            ]
        },
        {
            "type": "error",
            "name": "EnforcedPause",
            "inputs": []
        },
        {
            "type": "error",
            "name": "ExpectedPause",
            "inputs": []
        },
        {
            "type": "error",
            "name": "FailedInnerCall",
            "inputs": []
        },
        {
            "type": "error",
            "name": "Int256Overflow",
            "inputs": []
        },
        {
            "type": "error",
            "name": "OwnableInvalidOwner",
            "inputs": [
                {
                    "name": "owner",
                    "type": "address",
                    "internalType": "address"
                }
            ]
        },
        {
            "type": "error",
            "name": "OwnableUnauthorizedAccount",
            "inputs": [
                {
                    "name": "account",
                    "type": "address",
                    "internalType": "address"
                }
            ]
        },
        {
            "type": "error",
            "name": "SafeERC20FailedOperation",
            "inputs": [
                {
                    "name": "token",
                    "type": "address",
                    "internalType": "address"
                }
            ]
        },
        {
            "type": "error",
            "name": "WrongIlkAddress",
            "inputs": [
                {
                    "name": "ilkIndex",
                    "type": "uint8",
                    "internalType": "uint8"
                },
                {
                    "name": "gem",
                    "type": "address",
                    "internalType": "contract IERC20"
                }
            ]
        }
    ],
    "bytecode": {
        "object": "0x60e06040523480156200001157600080fd5b5060405162000d5038038062000d508339810160408190526200003491620001cc565b806001600160a01b0381166200006557604051631e4fbdf760e01b8152600060048201526024015b60405180910390fd5b620000708162000148565b506001805460ff60a01b191690556001600160a01b03838116608081905290851660a081905260ff841660c081905260405163efff005f60e01b8152600481019190915263efff005f90602401602060405180830381865afa158015620000db573d6000803e3d6000fd5b505050506040513d601f19601f8201168201806040525081019062000101919062000239565b6001600160a01b0316146200013e57604051630b75b7fb60e31b815260ff831660048201526001600160a01b03841660248201526044016200005c565b5050505062000260565b600180546001600160a01b0319169055620001638162000166565b50565b600080546001600160a01b038381166001600160a01b0319831681178455604051919092169283917f8be0079c531659141344cd1fd0a4f28419497f9722a3daafe3b4186f6b6457e09190a35050565b6001600160a01b03811681146200016357600080fd5b60008060008060808587031215620001e357600080fd5b8451620001f081620001b6565b60208601519094506200020381620001b6565b604086015190935060ff811681146200021b57600080fd5b60608601519092506200022e81620001b6565b939692955090935050565b6000602082840312156200024c57600080fd5b81516200025981620001b6565b9392505050565b60805160a05160c051610a96620002ba600039600081816101ea01528181610296015261045a01526000818161017a015281816102d401526104330152600081816101110152818161033d01526104f80152610a966000f3fe608060405234801561001057600080fd5b50600436106100ea5760003560e01c806383e8d3b81161008c578063e30c397811610066578063e30c3978146101d4578063ed0cee97146101e5578063ef693bed1461021e578063f2fde38b1461023157600080fd5b806383e8d3b8146101a45780638456cb59146101bb5780638da5cb5b146101c357600080fd5b80635c975abb116100c85780635c975abb14610150578063715018a61461016d5780637535d2461461017557806379ba50971461019c57600080fd5b80633b4da69f146100ef5780633f4ba83a146101045780634dc654111461010c575b600080fd5b6101026100fd366004610972565b610244565b005b61010261036b565b6101337f000000000000000000000000000000000000000000000000000000000000000081565b6040516001600160a01b0390911681526020015b60405180910390f35b600154600160a01b900460ff166040519015158152602001610147565b61010261037d565b6101337f000000000000000000000000000000000000000000000000000000000000000081565b61010261038f565b6101ad60025481565b604051908152602001610147565b6101026103d8565b6000546001600160a01b0316610133565b6001546001600160a01b0316610133565b61020c7f000000000000000000000000000000000000000000000000000000000000000081565b60405160ff9091168152602001610147565b61010261022c366004610972565b6103e8565b61010261023f36600461099c565b610521565b61024c610592565b600081121561026e576040516317aa172560e01b815260040160405180910390fd5b806002600082825461028091906109cd565b90915550506040516314e2c4e560e31b815260ff7f00000000000000000000000000000000000000000000000000000000000000001660048201526001600160a01b038381166024830152604482018390527f0000000000000000000000000000000000000000000000000000000000000000169063a716272890606401600060405180830381600087803b15801561031857600080fd5b505af115801561032c573d6000803e3d6000fd5b506103679250506001600160a01b037f00000000000000000000000000000000000000000000000000000000000000001690503330846105bd565b5050565b61037361062a565b61037b610657565b565b61038561062a565b61037b60006106ac565b60015433906001600160a01b031681146103cc5760405163118cdaa760e01b81526001600160a01b03821660048201526024015b60405180910390fd5b6103d5816106ac565b50565b6103e061062a565b61037b6106c5565b6103f0610592565b6000811215610412576040516317aa172560e01b815260040160405180910390fd5b806002600082825461042491906109e0565b90915550506001600160a01b037f00000000000000000000000000000000000000000000000000000000000000001663a71627287f000000000000000000000000000000000000000000000000000000000000000033610483856109f3565b6040516001600160e01b031960e086901b16815260ff90931660048401526001600160a01b0390911660248301526044820152606401600060405180830381600087803b1580156104d357600080fd5b505af11580156104e7573d6000803e3d6000fd5b506103679250506001600160a01b037f00000000000000000000000000000000000000000000000000000000000000001690508383610708565b61052961062a565b600180546001600160a01b0383166001600160a01b0319909116811790915561055a6000546001600160a01b031690565b6001600160a01b03167f38d16b8cac22d99fc7c124b9cd0de2d3fa1faef420bfe791d8c362d765e2270060405160405180910390a350565b600154600160a01b900460ff161561037b5760405163d93c066560e01b815260040160405180910390fd5b6040516001600160a01b0384811660248301528381166044830152606482018390526106249186918216906323b872dd906084015b604051602081830303815290604052915060e01b6020820180516001600160e01b03838183161783525050505061073e565b50505050565b6000546001600160a01b0316331461037b5760405163118cdaa760e01b81523360048201526024016103c3565b61065f6107a1565b6001805460ff60a01b191690557f5db9ee0a495bf2e6ff9c91a7834c1ba4fdd244a5e8aa4e537bd38aeae4b073aa335b6040516001600160a01b03909116815260200160405180910390a1565b600180546001600160a01b03191690556103d5816107cb565b6106cd610592565b6001805460ff60a01b1916600160a01b1790557f62e78cea01bee320cd4e420270b5ea74000d11b0c9f74754ebdbfc544b05a25861068f3390565b6040516001600160a01b0383811660248301526044820183905261073991859182169063a9059cbb906064016105f2565b505050565b60006107536001600160a01b0384168361081b565b905080516000141580156107785750808060200190518101906107769190610a0f565b155b1561073957604051635274afe760e01b81526001600160a01b03841660048201526024016103c3565b600154600160a01b900460ff1661037b57604051638dfc202b60e01b815260040160405180910390fd5b600080546001600160a01b038381166001600160a01b0319831681178455604051919092169283917f8be0079c531659141344cd1fd0a4f28419497f9722a3daafe3b4186f6b6457e09190a35050565b606061082983836000610832565b90505b92915050565b6060814710156108575760405163cd78605960e01b81523060048201526024016103c3565b600080856001600160a01b031684866040516108739190610a31565b60006040518083038185875af1925050503d80600081146108b0576040519150601f19603f3d011682016040523d82523d6000602084013e6108b5565b606091505b50915091506108c58683836108d1565b925050505b9392505050565b6060826108e6576108e18261092d565b6108ca565b81511580156108fd57506001600160a01b0384163b155b1561092657604051639996b31560e01b81526001600160a01b03851660048201526024016103c3565b50806108ca565b80511561093d5780518082602001fd5b604051630a12f52160e11b815260040160405180910390fd5b80356001600160a01b038116811461096d57600080fd5b919050565b6000806040838503121561098557600080fd5b61098e83610956565b946020939093013593505050565b6000602082840312156109ae57600080fd5b61082982610956565b634e487b7160e01b600052601160045260246000fd5b8082018082111561082c5761082c6109b7565b8181038181111561082c5761082c6109b7565b6000600160ff1b8201610a0857610a086109b7565b5060000390565b600060208284031215610a2157600080fd5b815180151581146108ca57600080fd5b6000825160005b81811015610a525760208186018101518583015201610a38565b50600092019182525091905056fea2646970667358221220b4cd187c48f03d53f1e49e711ddcae142ad0d33f3a19a981cc125485992a6e3a64736f6c63430008150033",
        "linkReferences": {}
    },
    "methodIdentifiers": {
        "GEM()": "4dc65411",
        "ILK_INDEX()": "ed0cee97",
        "POOL()": "7535d246",
        "acceptOwnership()": "79ba5097",
        "exit(address,uint256)": "ef693bed",
        "join(address,uint256)": "3b4da69f",
        "owner()": "8da5cb5b",
        "pause()": "8456cb59",
        "paused()": "5c975abb",
        "pendingOwner()": "e30c3978",
        "renounceOwnership()": "715018a6",
        "totalGem()": "83e8d3b8",
        "transferOwnership(address)": "f2fde38b",
        "unpause()": "3f4ba83a"
    },
    "id": 153
}