{
  "abi": [
    {
      "inputs": [
        {
          "internalType": "address",
          "name": "vatAddress",
          "type": "address"
        },
        {
          "internalType": "address",
          "name": "daiJoinAddress",
          "type": "address"
        },
        {
          "internalType": "address",
          "name": "daiAddress",
          "type": "address"
        }
      ],
      "stateMutability": "nonpayable",
      "type": "constructor"
    },
    {
      "inputs": [
        {
          "internalType": "bytes32",
          "name": "ilk",
          "type": "bytes32"
        },
        {
          "internalType": "address",
          "name": "ilkAddress",
          "type": "address"
        },
        {
          "internalType": "int256",
          "name": "dink",
          "type": "int256"
        },
        {
          "internalType": "int256",
          "name": "dart",
          "type": "int256"
        }
      ],
      "name": "borrow",
      "outputs": [],
      "stateMutability": "nonpayable",
      "type": "function"
    },
    {
      "inputs": [
        {
          "internalType": "bytes32",
          "name": "ilk",
          "type": "bytes32"
        },
        {
          "internalType": "address",
          "name": "ilkAddress",
          "type": "address"
        },
        {
          "internalType": "int256",
          "name": "wad",
          "type": "int256"
        }
      ],
      "name": "claimYield",
      "outputs": [],
      "stateMutability": "nonpayable",
      "type": "function"
    },
    {
      "inputs": [
        {
          "internalType": "bytes32",
          "name": "ilk",
          "type": "bytes32"
        },
        {
          "internalType": "address",
          "name": "ilkAddress",
          "type": "address"
        },
        {
          "internalType": "int256",
          "name": "dink",
          "type": "int256"
        }
      ],
      "name": "deposit",
      "outputs": [],
      "stateMutability": "nonpayable",
      "type": "function"
    },
    {
      "inputs": [
        {
          "internalType": "bytes32",
          "name": "ilk",
          "type": "bytes32"
        },
        {
          "internalType": "address",
          "name": "tokenAddress",
          "type": "address"
        },
        {
          "internalType": "address",
          "name": "tokenJoinAddress",
          "type": "address"
        }
      ],
      "name": "getSharesPrice",
      "outputs": [
        {
          "internalType": "uint256",
          "name": "price",
          "type": "uint256"
        }
      ],
      "stateMutability": "view",
      "type": "function"
    },
    {
      "inputs": [
        {
          "internalType": "bytes32",
          "name": "ilk",
          "type": "bytes32"
        },
        {
          "internalType": "address",
          "name": "ilkAddress",
          "type": "address"
        },
        {
          "internalType": "int256",
          "name": "dart",
          "type": "int256"
        }
      ],
      "name": "payback",
      "outputs": [],
      "stateMutability": "nonpayable",
      "type": "function"
    },
    {
      "inputs": [
        {
          "internalType": "bytes32",
          "name": "",
          "type": "bytes32"
        }
      ],
      "name": "tokenJoinMapping",
      "outputs": [
        {
          "internalType": "address",
          "name": "",
          "type": "address"
        }
      ],
      "stateMutability": "view",
      "type": "function"
    },
    {
      "inputs": [
        {
          "internalType": "bytes32",
          "name": "ilk",
          "type": "bytes32"
        },
        {
          "internalType": "address",
          "name": "tokenJoinAddress",
          "type": "address"
        }
      ],
      "name": "updateTokenJoinMapping",
      "outputs": [],
      "stateMutability": "nonpayable",
      "type": "function"
    },
    {
      "inputs": [
        {
          "internalType": "address",
          "name": "",
          "type": "address"
        }
      ],
      "name": "wards",
      "outputs": [
        {
          "internalType": "uint256",
          "name": "",
          "type": "uint256"
        }
      ],
      "stateMutability": "view",
      "type": "function"
    },
    {
      "inputs": [
        {
          "internalType": "bytes32",
          "name": "ilk",
          "type": "bytes32"
        },
        {
          "internalType": "address",
          "name": "ilkAddress",
          "type": "address"
        },
        {
          "internalType": "int256",
          "name": "dink",
          "type": "int256"
        }
      ],
      "name": "withdraw",
      "outputs": [],
      "stateMutability": "nonpayable",
      "type": "function"
    }
  ],
  "bytecode": {
    "object": "0x6080604052670de0b6b3a764000060055534801561001c57600080fd5b50604051611a67380380611a678339818101604052606081101561003f57600080fd5b508051602080830151604093840151336000908152928390529390912060019055600280546001600160a01b039384166001600160a01b0319918216179091556003805492841692821692909217909155600480549290931691161790556119bb806100ac6000396000f3fe608060405234801561001057600080fd5b50600436106100935760003560e01c806386a436ef1161006657806386a436ef146101705780639470f47e146101a8578063949cf6f1146101e1578063bf353dbb14610213578063d364fb801461023957610093565b806314d2b71f1461009857806335573729146100cc57806374965af3146100f857806380b3f3291461013e575b600080fd5b6100ca600480360360608110156100ae57600080fd5b508035906001600160a01b03602082013516906040013561026b565b005b6100ca600480360360408110156100e257600080fd5b50803590602001356001600160a01b03166106f7565b61012c6004803603606081101561010e57600080fd5b508035906001600160a01b0360208201358116916040013516610782565b60408051918252519081900360200190f35b6100ca6004803603606081101561015457600080fd5b508035906001600160a01b0360208201351690604001356109bd565b6100ca6004803603608081101561018657600080fd5b508035906001600160a01b036020820135169060408101359060600135610bc2565b6101c5600480360360208110156101be57600080fd5b50356110e4565b604080516001600160a01b039092168252519081900360200190f35b6100ca600480360360608110156101f757600080fd5b508035906001600160a01b0360208201351690604001356110ff565b61012c6004803603602081101561022957600080fd5b50356001600160a01b03166112df565b6100ca6004803603606081101561024f57600080fd5b508035906001600160a01b0360208201351690604001356112f1565b61029e604051806040016040528060128152602001711a185b991b195c8818db185a5b565a595b1960721b81525061158b565b6000838152600160205260409020546001600160a01b03168083640e6e88aa8960db1b8614156106ef5760025460408051636cb1c69b60e11b81526004810189905290516000926001600160a01b03169163d9638d369160248083019260e0929190829003018186803b15801561031457600080fd5b505afa158015610328573d6000803e3d6000fd5b505050506040513d60e081101561033e57600080fd5b5060409081015160025482516309092f9760e21b8152600481018b9052336024820152925191935060009283926001600160a01b0390921691632424be5c91604480820192606092909190829003018186803b15801561039d57600080fd5b505afa1580156103b1573d6000803e3d6000fd5b505050506040513d60608110156103c757600080fd5b50805160409182015182518084019093526008835267029b430b932b99d160c51b602084015290935091506103fc9084611634565b60006104098a8a89610782565b9050610434604051806040016040528060078152602001660383934b1b29d160cd1b81525082611634565b61045b60405180604001604052806005815260200164034b7359d160dd1b81525084611634565b61048560405180604001604052806008815260200167039b430b932b99d160c51b81525083611634565b6104b560405180604001604052806005815260200164036bab61d160dd1b8152506104b084846116e6565b611634565b6104f26040518060400160405280600681526020016503bb234bb1d160d51b8152506104b06104e485856116e6565b670de0b6b3a764000061174f565b6105336040518060400160405280600581526020016403234bb1d160dd1b815250670de0b6b3a764000061052685856116e6565b8161052d57fe5b04611634565b6000610559670de0b6b3a764000061054b85856116e6565b8161055257fe5b048561177f565b905061058660405180604001604052806009815260200168030b1b1b93ab2b21d160bd1b81525082611634565b808911156105db576040805162461bcd60e51b815260206004820152601b60248201527f636c61696d5969656c642f7969656c64206f7665722d636c61696d0000000000604482015290519081900360640190fd5b60006105e78a8461174f565b9050600260009054906101000a90046001600160a01b03166001600160a01b03166395d89e948d33846000036040518463ffffffff1660e01b815260040180848152602001836001600160a01b031681526020018281526020019350505050600060405180830381600087803b15801561066057600080fd5b505af1158015610674573d6000803e3d6000fd5b50506040805163357d12f960e21b81523360048201526001600160a01b038f81166024830152604482018f90529151918c16935063d5f44be4925060648082019260009290919082900301818387803b1580156106d057600080fd5b505af11580156106e4573d6000803e3d6000fd5b505050505050505050505b505050505050565b33600090815260208190526040902054600114610754576040805162461bcd60e51b815260206004820152601660248201527512185b991b195c8bdb9bdd0b585d5d1a1bdc9a5e995960521b604482015290519081900360640190fd5b60009182526001602052604090912080546001600160a01b0319166001600160a01b03909216919091179055565b60025460408051636cb1c69b60e11b8152600481018690529051600092859284926001600160a01b039092169163d9638d369160248082019260e092909190829003018186803b1580156107d557600080fd5b505afa1580156107e9573d6000803e3d6000fd5b505050506040513d60e08110156107ff57600080fd5b5060409081015181518083019092526008825267029b430b932b99d160c51b6020830152915061082f9082611634565b6108d06040518060400160405280600781526020016603a37b5b2b71d160cd1b815250836001600160a01b03166370a08231876040518263ffffffff1660e01b815260040180826001600160a01b0316815260200191505060206040518083038186803b15801561089f57600080fd5b505afa1580156108b3573d6000803e3d6000fd5b505050506040513d60208110156108c957600080fd5b5051611634565b6000811561095f5761095a836001600160a01b03166370a08231876040518263ffffffff1660e01b815260040180826001600160a01b0316815260200191505060206040518083038186803b15801561092857600080fd5b505afa15801561093c573d6000803e3d6000fd5b505050506040513d602081101561095257600080fd5b50518361174f565b610969565b670de0b6b3a76400005b905060018110156109b3576040805162461bcd60e51b815260206004820152600f60248201526e70726963652062656c6f77206f6e6560881b604482015290519081900360640190fd5b9695505050505050565b600083815260016020526040808220546002548251637608870360e01b81526004810188905233602482018190523060448301526064820152858503608482015260a4810185905292516001600160a01b0392831694859488949093169263760887039260c4808301939282900301818387803b158015610a3d57600080fd5b505af1158015610a51573d6000803e3d6000fd5b505050506000610a62878786610782565b90506000610a70868361174f565b6002546040805163257627a560e21b8152600481018c90526001600160a01b038b81166024830152600085810360448401529251949550909216926395d89e9492606480820193929182900301818387803b158015610ace57600080fd5b505af1158015610ae2573d6000803e3d6000fd5b50506040805163ef693bed60e01b8152306004820152602481018a905290516001600160a01b038816935063ef693bed9250604480830192600092919082900301818387803b158015610b3457600080fd5b505af1158015610b48573d6000803e3d6000fd5b5050604080516323b872dd60e01b8152306004820152336024820152604481018a905290516001600160a01b03871693506323b872dd9250606480830192600092919082900301818387803b158015610ba057600080fd5b505af1158015610bb4573d6000803e3d6000fd5b505050505050505050505050565b610bf16040518060400160405280600e81526020016d68616e646c657220626f72726f7760901b81525061158b565b6000848152600160205260408120546001600160a01b03169081908590610c19888385610782565b604080516323b872dd60e01b81523360048201523060248201526044810189905290519192506001600160a01b038416916323b872dd9160648082019260009290919082900301818387803b158015610c7157600080fd5b505af1158015610c85573d6000803e3d6000fd5b50505050816001600160a01b031663095ea7b384886040518363ffffffff1660e01b815260040180836001600160a01b0316815260200182815260200192505050600060405180830381600087803b158015610ce057600080fd5b505af1158015610cf4573d6000803e3d6000fd5b505060408051633b4da69f60e01b8152306004820152602481018a905290516001600160a01b0387169350633b4da69f9250604480830192600092919082900301818387803b158015610d4657600080fd5b505af1158015610d5a573d6000803e3d6000fd5b505050506000610d69866117cf565b60025460408051637608870360e01b8152600481018d905233602482018190523060448301526064820152608481018b905260a481018a905290519293506001600160a01b039091169163760887039160c48082019260009290919082900301818387803b158015610dda57600080fd5b505af1158015610dee573d6000803e3d6000fd5b50505050610e1b604051806040016040528060078152602001660383934b1b29d160cd1b81525083611634565b6000610e27888461174f565b9050610e5160405180604001604052806006815260200165036b4b73a1d160d51b81525082611634565b6002546040805163257627a560e21b8152600481018d90523360248201526044810184905290516001600160a01b03909216916395d89e949160648082019260009290919082900301818387803b158015610eab57600080fd5b505af1158015610ebf573d6000803e3d6000fd5b5050600254604080516328ec8bf160e21b815230600482015290516001600160a01b03909216935063a3b22fc4925060248082019260009290919082900301818387803b158015610f0f57600080fd5b505af1158015610f23573d6000803e3d6000fd5b50506002546040805163bb35783b60e01b81523360048201523060248201526044810187905290516001600160a01b03909216935063bb35783b925060648082019260009290919082900301818387803b158015610f8057600080fd5b505af1158015610f94573d6000803e3d6000fd5b5050600254600354604080516328ec8bf160e21b81526001600160a01b039283166004820152905191909216935063a3b22fc49250602480830192600092919082900301818387803b158015610fe957600080fd5b505af1158015610ffd573d6000803e3d6000fd5b50506003546040805163ef693bed60e01b8152306004820152602481018c905290516001600160a01b03909216935063ef693bed925060448082019260009290919082900301818387803b15801561105457600080fd5b505af1158015611068573d6000803e3d6000fd5b5050600480546040805163a9059cbb60e01b81523393810193909352602483018c9052516001600160a01b03909116935063a9059cbb9250604480830192600092919082900301818387803b1580156110c057600080fd5b505af11580156110d4573d6000803e3d6000fd5b5050505050505050505050505050565b6001602052600090815260409020546001600160a01b031681565b6000838152600160205260408082205481516323b872dd60e01b81523360048201523060248201526044810185905291516001600160a01b0391821693849387938416926323b872dd9260648084019391929182900301818387803b15801561116757600080fd5b505af115801561117b573d6000803e3d6000fd5b50505050806001600160a01b031663095ea7b383866040518363ffffffff1660e01b815260040180836001600160a01b0316815260200182815260200192505050600060405180830381600087803b1580156111d657600080fd5b505af11580156111ea573d6000803e3d6000fd5b505060408051633b4da69f60e01b81523060048201526024810188905290516001600160a01b0386169350633b4da69f9250604480830192600092919082900301818387803b15801561123c57600080fd5b505af1158015611250573d6000803e3d6000fd5b505060025460408051637608870360e01b8152600481018b90523360248201819052306044830152606482015260848101899052600060a4820181905291516001600160a01b0390931694506376088703935060c4808201939182900301818387803b1580156112bf57600080fd5b505af11580156112d3573d6000803e3d6000fd5b50505050505050505050565b60006020819052908152604090205481565b6000838152600160205260408120546001600160a01b0316908190849061131887336117e0565b90506000856000191461132b578561132d565b815b60048054604080516323b872dd60e01b8152339381019390935230602484015260448301849052519293506001600160a01b0316916323b872dd9160648082019260009290919082900301818387803b15801561138957600080fd5b505af115801561139d573d6000803e3d6000fd5b5050600480546003546040805163095ea7b360e01b81526001600160a01b039283169481019490945260248401879052519116935063095ea7b39250604480830192600092919082900301818387803b1580156113f957600080fd5b505af115801561140d573d6000803e3d6000fd5b505060035460408051633b4da69f60e01b81523060048201526024810186905290516001600160a01b039092169350633b4da69f925060448082019260009290919082900301818387803b15801561146457600080fd5b505af1158015611478573d6000803e3d6000fd5b505050506000611487826117cf565b6002546040805163bb35783b60e01b81523060048201523360248201526044810184905290519293506001600160a01b039091169163bb35783b9160648082019260009290919082900301818387803b1580156114e357600080fd5b505af11580156114f7573d6000803e3d6000fd5b505060025460408051637608870360e01b8152600481018e9052336024820181905260448201819052606482015260006084820181905287810360a483015291516001600160a01b0390931694506376088703935060c4808201939182900301818387803b15801561156857600080fd5b505af115801561157c573d6000803e3d6000fd5b50505050505050505050505050565b611631816040516024018080602001828103825283818151815260200191508051906020019080838360005b838110156115cf5781810151838201526020016115b7565b50505050905090810190601f1680156115fc5780820380516001836020036101000a031916815260200191505b5060408051601f198184030181529190526020810180516001600160e01b031663104c13eb60e21b1790529250611915915050565b50565b6116e282826040516024018080602001838152602001828103825284818151815260200191508051906020019080838360005b8381101561167f578181015183820152602001611667565b50505050905090810190601f1680156116ac5780820380516001836020036101000a031916815260200191505b5060408051601f198184030181529190526020810180516001600160e01b03166309710a9d60e41b179052935061191592505050565b5050565b6000811580611701575050808202828282816116fe57fe5b04145b611749576040805162461bcd60e51b815260206004820152601460248201527364732d6d6174682d6d756c2d6f766572666c6f7760601b604482015290519081900360640190fd5b92915050565b60008161177061176785670de0b6b3a76400006116e6565b60028504611936565b8161177757fe5b049392505050565b80820382811115611749576040805162461bcd60e51b815260206004820152601560248201527464732d6d6174682d7375622d756e646572666c6f7760581b604482015290519081900360640190fd5b6b033b2e3c9fd0803ce80000000290565b60025460408051636cb1c69b60e11b815260048101859052905160009283926001600160a01b039091169163d9638d369160248082019260e092909190829003018186803b15801561183157600080fd5b505afa158015611845573d6000803e3d6000fd5b505050506040513d60e081101561185b57600080fd5b50606090810151600254604080516309092f9760e21b8152600481018990526001600160a01b03888116602483015291519395506000949190921692632424be5c926044808201939291829003018186803b1580156118b957600080fd5b505afa1580156118cd573d6000803e3d6000fd5b505050506040513d60608110156118e357600080fd5b5060200151905060006b033b2e3c9fd0803ce800000061190383856116e6565b8161190a57fe5b049695505050505050565b80516a636f6e736f6c652e6c6f67602083016000808483855afa5050505050565b80820182811015611749576040805162461bcd60e51b815260206004820152601460248201527364732d6d6174682d6164642d6f766572666c6f7760601b604482015290519081900360640190fdfea2646970667358221220a46f1c6adfdb1a7e9605e11b35490f5488e67c2b0c07710e16c22e1a0863868a64736f6c634300060c0033",
    "linkReferences": {}
  },
  "methodIdentifiers": {
    "borrow(bytes32,address,int256,int256)": "86a436ef",
    "claimYield(bytes32,address,int256)": "14d2b71f",
    "deposit(bytes32,address,int256)": "949cf6f1",
    "getSharesPrice(bytes32,address,address)": "74965af3",
    "payback(bytes32,address,int256)": "d364fb80",
    "tokenJoinMapping(bytes32)": "9470f47e",
    "updateTokenJoinMapping(bytes32,address)": "35573729",
    "wards(address)": "bf353dbb",
    "withdraw(bytes32,address,int256)": "80b3f329"
  },
  "id": 24
}