{
  "abi": [
    {
      "inputs": [
        {
          "components": [
            {
              "internalType": "uint96",
              "name": "adjustedProfitMargin",
              "type": "uint96"
            },
            {
              "internalType": "uint96",
              "name": "minimumKinkRate",
              "type": "uint96"
            },
            {
              "internalType": "uint16",
              "name": "reserveFactor",
              "type": "uint16"
            },
            {
              "internalType": "uint96",
              "name": "adjustedBaseRate",
              "type": "uint96"
            },
            {
              "internalType": "uint96",
              "name": "minimumBaseRate",
              "type": "uint96"
            },
            {
              "internalType": "uint16",
              "name": "optimalUtilizationRate",
              "type": "uint16"
            },
            {
              "internalType": "uint16",
              "name": "distributionFactor",
              "type": "uint16"
            },
            {
              "internalType": "uint96",
              "name": "adjustedAboveKinkSlope",
              "type": "uint96"
            },
            {
              "internalType": "uint96",
              "name": "minimumAboveKinkSlope",
              "type": "uint96"
            }
          ],
          "internalType": "struct IlkData[]",
          "name": "ilkDataList",
          "type": "tuple[]"
        },
        {
          "internalType": "contract IYieldOracle",
          "name": "_yieldOracle",
          "type": "address"
        }
      ],
      "stateMutability": "nonpayable",
      "type": "constructor"
    },
    {
      "inputs": [],
      "name": "CollateralIndexOutOfBounds",
      "type": "error"
    },
    {
      "inputs": [
        {
          "internalType": "uint256",
          "name": "sum",
          "type": "uint256"
        }
      ],
      "name": "DistributionFactorsDoNotSumToOne",
      "type": "error"
    },
    {
      "inputs": [],
      "name": "InvalidYieldOracleAddress",
      "type": "error"
    },
    {
      "inputs": [],
      "name": "MathOverflowedMulDiv",
      "type": "error"
    },
    {
      "inputs": [
        {
          "internalType": "uint256",
          "name": "from",
          "type": "uint256"
        },
        {
          "internalType": "uint256",
          "name": "to",
          "type": "uint256"
        }
      ],
      "name": "NotScalingUp",
      "type": "error"
    },
    {
      "inputs": [
        {
          "internalType": "uint256",
          "name": "COLLATERAL_COUNT",
          "type": "uint256"
        },
        {
          "internalType": "uint256",
          "name": "totalIlkDebtsLength",
          "type": "uint256"
        }
      ],
      "name": "TotalDebtsLength",
      "type": "error"
    },
    {
      "inputs": [],
      "name": "COLLATERAL_COUNT",
      "outputs": [
        {
          "internalType": "uint256",
          "name": "",
          "type": "uint256"
        }
      ],
      "stateMutability": "view",
      "type": "function"
    },
    {
      "inputs": [],
      "name": "YIELD_ORACLE",
      "outputs": [
        {
          "internalType": "contract IYieldOracle",
          "name": "",
          "type": "address"
        }
      ],
      "stateMutability": "view",
      "type": "function"
    },
    {
      "inputs": [
        {
          "internalType": "uint256",
          "name": "ilkIndex",
          "type": "uint256"
        },
        {
          "internalType": "uint256",
          "name": "totalIlkDebt",
          "type": "uint256"
        },
        {
          "internalType": "uint256",
          "name": "totalEthSupply",
          "type": "uint256"
        }
      ],
      "name": "calculateInterestRate",
      "outputs": [
        {
          "internalType": "uint256",
          "name": "",
          "type": "uint256"
        },
        {
          "internalType": "uint256",
          "name": "",
          "type": "uint256"
        }
      ],
      "stateMutability": "view",
      "type": "function"
    },
    {
      "inputs": [
        {
          "internalType": "uint256",
          "name": "index",
          "type": "uint256"
        }
      ],
      "name": "unpackCollateralConfig",
      "outputs": [
        {
          "components": [
            {
              "internalType": "uint96",
              "name": "adjustedProfitMargin",
              "type": "uint96"
            },
            {
              "internalType": "uint96",
              "name": "minimumKinkRate",
              "type": "uint96"
            },
            {
              "internalType": "uint16",
              "name": "reserveFactor",
              "type": "uint16"
            },
            {
              "internalType": "uint96",
              "name": "adjustedBaseRate",
              "type": "uint96"
            },
            {
              "internalType": "uint96",
              "name": "minimumBaseRate",
              "type": "uint96"
            },
            {
              "internalType": "uint16",
              "name": "optimalUtilizationRate",
              "type": "uint16"
            },
            {
              "internalType": "uint16",
              "name": "distributionFactor",
              "type": "uint16"
            },
            {
              "internalType": "uint96",
              "name": "adjustedAboveKinkSlope",
              "type": "uint96"
            },
            {
              "internalType": "uint96",
              "name": "minimumAboveKinkSlope",
              "type": "uint96"
            }
          ],
          "internalType": "struct IlkData",
          "name": "ilkData",
          "type": "tuple"
        }
      ],
      "stateMutability": "view",
      "type": "function"
    }
  ],
  "bytecode": {
    "object": "0x6103c06040523480156200001257600080fd5b506040516200146838038062001468833981016040819052620000359162000378565b6001600160a01b0381166200005d57604051633a9f6af760e11b815260040160405180910390fd5b8151610380526001600160a01b0381166103a0526000805b61038051811015620000be57838181518110620000965762000096620004fb565b602002602001015160c0015161ffff1682620000b3919062000511565b915060010162000075565b508061271014620000e95760405163b9778c0960e01b81526004810182905260240160405180910390fd5b620000f6836000620001b7565b60c05260a0526080526200010c836001620001b7565b610120526101005260e05262000124836002620001b7565b6101805261016052610140526200013d836003620001b7565b6101e0526101c0526101a05262000156836004620001b7565b6102405261022052610200526200016f836005620001b7565b6102a052610280526102605262000188836006620001b7565b610300526102e0526102c052620001a1836007620001b7565b6103605261034052610320525062000539915050565b6000806000610380518410620001d657506000915081905080620002b4565b6000858581518110620001ed57620001ed620004fb565b60200260200101519050606060ff1681602001516001600160601b0316901b600060ff1682600001516001600160601b0316901b17935060e060ff168160c0015161ffff16901b60d060ff168260a0015161ffff16901b607060ff1683608001516001600160601b0316901b601060ff1684606001516001600160601b0316901b600060ff16856040015161ffff16901b171717179250606060ff168161010001516001600160601b0316901b600060ff168260e001516001600160601b0316901b179150505b9250925092565b634e487b7160e01b600052604160045260246000fd5b60405161012081016001600160401b0381118282101715620002f757620002f7620002bb565b60405290565b604051601f8201601f191681016001600160401b0381118282101715620003285762000328620002bb565b604052919050565b80516001600160601b03811681146200034857600080fd5b919050565b805161ffff811681146200034857600080fd5b80516001600160a01b03811681146200034857600080fd5b60008060408084860312156200038d57600080fd5b83516001600160401b0380821115620003a557600080fd5b818601915086601f830112620003ba57600080fd5b8151602082821115620003d157620003d1620002bb565b620003e1818360051b01620002fd565b828152818101935061012092830285018201928a8411156200040257600080fd5b948201945b83861015620004dd5780868c031215620004215760008081fd5b6200042b620002d1565b620004368762000330565b81526200044584880162000330565b84820152620004568888016200034d565b8882015260606200046981890162000330565b9082015260806200047c88820162000330565b9082015260a06200048f8882016200034d565b9082015260c0620004a28882016200034d565b9082015260e0620004b588820162000330565b90820152610100620004c988820162000330565b908201528552948501949382019362000407565b509650620004ed88820162000360565b955050505050509250929050565b634e487b7160e01b600052603260045260246000fd5b808201808211156200053357634e487b7160e01b600052601160045260246000fd5b92915050565b60805160a05160c05160e05161010051610120516101405161016051610180516101a0516101c0516101e05161020051610220516102405161026051610280516102a0516102c0516102e05161030051610320516103405161036051610380516103a051610df762000671600039600081816056015261016f01526000818160ba01526104ab01526000610878015260006108550152600061083201526000610803015260006107e0015260006107bd0152600061078e0152600061076b0152600061074801526000610719015260006106f6015260006106d3015260006106a4015260006106810152600061065e0152600061062f0152600061060c015260006105e9015260006105ba01526000610597015260006105740152600061054501526000610522015260006104ff0152610df76000f3fe608060405234801561001057600080fd5b506004361061004c5760003560e01c806309ea519f14610051578063161fa6561461009557806348d4b487146100b5578063fe4bab43146100ea575b600080fd5b6100787f000000000000000000000000000000000000000000000000000000000000000081565b6040516001600160a01b0390911681526020015b60405180910390f35b6100a86100a3366004610ae5565b610112565b60405161008c9190610afe565b6100dc7f000000000000000000000000000000000000000000000000000000000000000081565b60405190815260200161008c565b6100fd6100f8366004610bcd565b610129565b6040805192835260208301919091520161008c565b61011a610a99565b6101238261049c565b92915050565b60008060006101378661049c565b9050600061015760048360a0015161ffff1661091490919063ffffffff16565b905060006301e1338065ffffffffffff1661021060087f00000000000000000000000000000000000000000000000000000000000000006001600160a01b03166381ce1c238c6040518263ffffffff1660e01b81526004016101bb91815260200190565b602060405180830381865afa1580156101d8573d6000803e3d6000fd5b505050506040513d601f19601f820116820180604052508101906101fc9190610bf9565b63ffffffff1661091490919063ffffffff16565b61021a9190610c4b565b60c084015190915061ffff16600081900361026157602084015160408501516102489061ffff166004610914565b816001600160601b031691509550955050505050610494565b6000871561028d5761027e610277836004610929565b8990610937565b610288908a610c4b565b610290565b60005b606086015186519192506000916001600160601b039182169116850303848111156102b9575060005b6102c3818761094c565b91505060006102ef86886080015189602001516102e09190610c6d565b6001600160601b03169061094c565b90508583101561038e5760608701516000906001600160601b03166103148486610965565b61031e9190610c94565b60808901519091506000906001600160601b031661033c8487610965565b6103469190610c94565b90508082101561037857604089015181906103669061ffff166004610914565b9a509a50505050505050505050610494565b604089015182906103669061ffff166004610914565b600061039a8785610ca7565b60608901519091506000906001600160601b03166103b8858a610965565b6103c29190610c94565b60808a01519091506000906001600160601b03166103e0858b610965565b6103ea9190610c94565b905060008261040f858d60e001516001600160601b031661096590919063ffffffff16565b6104199190610c94565b905060008261043f868e61010001516001600160601b031661096590919063ffffffff16565b6104499190610c94565b90508082101561047e5760408c015181906104699061ffff166004610914565b9d509d50505050505050505050505050610494565b60408c015182906104699061ffff166004610914565b935093915050565b6104a4610a99565b6104cf60017f0000000000000000000000000000000000000000000000000000000000000000610ca7565b8211156104ef5760405163ca89fc4960e01b815260040160405180910390fd5b60008060008460000361056957507f000000000000000000000000000000000000000000000000000000000000000091507f000000000000000000000000000000000000000000000000000000000000000090507f0000000000000000000000000000000000000000000000000000000000000000610898565b846001036105de57507f000000000000000000000000000000000000000000000000000000000000000091507f000000000000000000000000000000000000000000000000000000000000000090507f0000000000000000000000000000000000000000000000000000000000000000610898565b8460020361065357507f000000000000000000000000000000000000000000000000000000000000000091507f000000000000000000000000000000000000000000000000000000000000000090507f0000000000000000000000000000000000000000000000000000000000000000610898565b846003036106c857507f000000000000000000000000000000000000000000000000000000000000000091507f000000000000000000000000000000000000000000000000000000000000000090507f0000000000000000000000000000000000000000000000000000000000000000610898565b8460040361073d57507f000000000000000000000000000000000000000000000000000000000000000091507f000000000000000000000000000000000000000000000000000000000000000090507f0000000000000000000000000000000000000000000000000000000000000000610898565b846005036107b257507f000000000000000000000000000000000000000000000000000000000000000091507f000000000000000000000000000000000000000000000000000000000000000090507f0000000000000000000000000000000000000000000000000000000000000000610898565b8460060361082757507f000000000000000000000000000000000000000000000000000000000000000091507f000000000000000000000000000000000000000000000000000000000000000090507f0000000000000000000000000000000000000000000000000000000000000000610898565b8460070361089857507f000000000000000000000000000000000000000000000000000000000000000091507f000000000000000000000000000000000000000000000000000000000000000090507f00000000000000000000000000000000000000000000000000000000000000005b60408051610120810182526001600160601b038581168252606095861c8116602083015261ffff85811693830193909352601085901c811682870152607085901c8116608083015260d085901c831660a083015260e094851c90921660c082015282821693810193909352921c90911661010082015292915050565b60006109228383601b61097e565b9392505050565b60006109228383601261097e565b60006109228383670de0b6b3a76400006109d5565b6000610922836b033b2e3c9fd0803ce8000000846109d5565b600061092283836b033b2e3c9fd0803ce80000006109d5565b60008183106109ae57604051631a065cf160e01b8152600481018490526024810183905260440160405180910390fd5b6109b88383610ca7565b6109c390600a610d9e565b6109cd9085610daa565b949350505050565b6000838302816000198587098281108382030391505080600003610a0c57838281610a0257610a02610c1f565b0492505050610922565b808411610a2c5760405163227bc15360e01b815260040160405180910390fd5b6000848688096000868103871696879004966002600389028118808a02820302808a02820302808a02820302808a02820302808a02820302808a02909103029181900381900460010186841190950394909402919094039290920491909117919091029150509392505050565b6040805161012081018252600080825260208201819052918101829052606081018290526080810182905260a0810182905260c0810182905260e0810182905261010081019190915290565b600060208284031215610af757600080fd5b5035919050565b6000610120820190506001600160601b03808451168352806020850151166020840152506040830151610b37604084018261ffff169052565b506060830151610b5260608401826001600160601b03169052565b506080830151610b6d60808401826001600160601b03169052565b5060a0830151610b8360a084018261ffff169052565b5060c0830151610b9960c084018261ffff169052565b5060e0830151610bb460e08401826001600160601b03169052565b50610100928301516001600160601b0316919092015290565b600080600060608486031215610be257600080fd5b505081359360208301359350604090920135919050565b600060208284031215610c0b57600080fd5b815163ffffffff8116811461092257600080fd5b634e487b7160e01b600052601260045260246000fd5b634e487b7160e01b600052601160045260246000fd5b600082610c6857634e487b7160e01b600052601260045260246000fd5b500490565b6001600160601b03828116828216039080821115610c8d57610c8d610c35565b5092915050565b8082018082111561012357610123610c35565b8181038181111561012357610123610c35565b600181815b80851115610cf5578160001904821115610cdb57610cdb610c35565b80851615610ce857918102915b93841c9390800290610cbf565b509250929050565b600082610d0c57506001610123565b81610d1957506000610123565b8160018114610d2f5760028114610d3957610d55565b6001915050610123565b60ff841115610d4a57610d4a610c35565b50506001821b610123565b5060208310610133831016604e8410600b8410161715610d78575081810a610123565b610d828383610cba565b8060001904821115610d9657610d96610c35565b029392505050565b60006109228383610cfd565b808202811582820484141761012357610123610c3556fea2646970667358221220a78f0fb48b2eba83fd78bb239799d6724dadcf0ddeb4ef9e53b541f7c775d99064736f6c63430008150033",
    "linkReferences": {}
  },
  "methodIdentifiers": {
    "COLLATERAL_COUNT()": "48d4b487",
    "YIELD_ORACLE()": "09ea519f",
    "calculateInterestRate(uint256,uint256,uint256)": "fe4bab43",
    "unpackCollateralConfig(uint256)": "161fa656"
  },
  "id": 96
}