{
  "abi": [
    {
      "type": "constructor",
      "inputs": [],
      "stateMutability": "nonpayable"
    },
    {
      "type": "function",
      "name": "DEFAULT_ADMIN_ROLE",
      "inputs": [],
      "outputs": [
        {
          "name": "",
          "type": "bytes32",
          "internalType": "bytes32"
        }
      ],
      "stateMutability": "view"
    },
    {
      "type": "function",
      "name": "GEM_JOIN_ROLE",
      "inputs": [],
      "outputs": [
        {
          "name": "",
          "type": "bytes32",
          "internalType": "bytes32"
        }
      ],
      "stateMutability": "view"
    },
    {
      "type": "function",
      "name": "ION",
      "inputs": [],
      "outputs": [
        {
          "name": "",
          "type": "bytes32",
          "internalType": "bytes32"
        }
      ],
      "stateMutability": "view"
    },
    {
      "type": "function",
      "name": "LIQUIDATOR_ROLE",
      "inputs": [],
      "outputs": [
        {
          "name": "",
          "type": "bytes32",
          "internalType": "bytes32"
        }
      ],
      "stateMutability": "view"
    },
    {
      "type": "function",
      "name": "acceptDefaultAdminTransfer",
      "inputs": [],
      "outputs": [],
      "stateMutability": "nonpayable"
    },
    {
      "type": "function",
      "name": "accrueInterest",
      "inputs": [],
      "outputs": [
        {
          "name": "newTotalDebt",
          "type": "uint256",
          "internalType": "uint256"
        }
      ],
      "stateMutability": "nonpayable"
    },
    {
      "type": "function",
      "name": "addOperator",
      "inputs": [
        {
          "name": "operator",
          "type": "address",
          "internalType": "address"
        }
      ],
      "outputs": [],
      "stateMutability": "nonpayable"
    },
    {
      "type": "function",
      "name": "addressContains",
      "inputs": [
        {
          "name": "ilk",
          "type": "address",
          "internalType": "address"
        }
      ],
      "outputs": [
        {
          "name": "",
          "type": "bool",
          "internalType": "bool"
        }
      ],
      "stateMutability": "view"
    },
    {
      "type": "function",
      "name": "balanceOf",
      "inputs": [
        {
          "name": "user",
          "type": "address",
          "internalType": "address"
        }
      ],
      "outputs": [
        {
          "name": "",
          "type": "uint256",
          "internalType": "uint256"
        }
      ],
      "stateMutability": "view"
    },
    {
      "type": "function",
      "name": "beginDefaultAdminTransfer",
      "inputs": [
        {
          "name": "newAdmin",
          "type": "address",
          "internalType": "address"
        }
      ],
      "outputs": [],
      "stateMutability": "nonpayable"
    },
    {
      "type": "function",
      "name": "borrow",
      "inputs": [
        {
          "name": "ilkIndex",
          "type": "uint8",
          "internalType": "uint8"
        },
        {
          "name": "user",
          "type": "address",
          "internalType": "address"
        },
        {
          "name": "recipient",
          "type": "address",
          "internalType": "address"
        },
        {
          "name": "amountOfNormalizedDebt",
          "type": "uint256",
          "internalType": "uint256"
        },
        {
          "name": "proof",
          "type": "bytes32[]",
          "internalType": "bytes32[]"
        }
      ],
      "outputs": [],
      "stateMutability": "nonpayable"
    },
    {
      "type": "function",
      "name": "calculateRewardAndDebtDistribution",
      "inputs": [],
      "outputs": [
        {
          "name": "totalSupplyFactorIncrease",
          "type": "uint256",
          "internalType": "uint256"
        },
        {
          "name": "totalTreasuryMintAmount",
          "type": "uint256",
          "internalType": "uint256"
        },
        {
          "name": "rateIncreases",
          "type": "uint104[]",
          "internalType": "uint104[]"
        },
        {
          "name": "totalDebtIncrease",
          "type": "uint256",
          "internalType": "uint256"
        },
        {
          "name": "timestampIncreases",
          "type": "uint48[]",
          "internalType": "uint48[]"
        }
      ],
      "stateMutability": "view"
    },
    {
      "type": "function",
      "name": "calculateRewardAndDebtDistributionForIlk",
      "inputs": [
        {
          "name": "ilkIndex",
          "type": "uint8",
          "internalType": "uint8"
        }
      ],
      "outputs": [
        {
          "name": "newRateIncrease",
          "type": "uint104",
          "internalType": "uint104"
        },
        {
          "name": "timestampIncrease",
          "type": "uint48",
          "internalType": "uint48"
        }
      ],
      "stateMutability": "view"
    },
    {
      "type": "function",
      "name": "cancelDefaultAdminTransfer",
      "inputs": [],
      "outputs": [],
      "stateMutability": "nonpayable"
    },
    {
      "type": "function",
      "name": "changeDefaultAdminDelay",
      "inputs": [
        {
          "name": "newDelay",
          "type": "uint48",
          "internalType": "uint48"
        }
      ],
      "outputs": [],
      "stateMutability": "nonpayable"
    },
    {
      "type": "function",
      "name": "collateral",
      "inputs": [
        {
          "name": "ilkIndex",
          "type": "uint8",
          "internalType": "uint8"
        },
        {
          "name": "user",
          "type": "address",
          "internalType": "address"
        }
      ],
      "outputs": [
        {
          "name": "",
          "type": "uint256",
          "internalType": "uint256"
        }
      ],
      "stateMutability": "view"
    },
    {
      "type": "function",
      "name": "confiscateVault",
      "inputs": [
        {
          "name": "ilkIndex",
          "type": "uint8",
          "internalType": "uint8"
        },
        {
          "name": "u",
          "type": "address",
          "internalType": "address"
        },
        {
          "name": "v",
          "type": "address",
          "internalType": "address"
        },
        {
          "name": "w",
          "type": "address",
          "internalType": "address"
        },
        {
          "name": "changeInCollateral",
          "type": "int256",
          "internalType": "int256"
        },
        {
          "name": "changeInNormalizedDebt",
          "type": "int256",
          "internalType": "int256"
        }
      ],
      "outputs": [],
      "stateMutability": "nonpayable"
    },
    {
      "type": "function",
      "name": "debt",
      "inputs": [],
      "outputs": [
        {
          "name": "",
          "type": "uint256",
          "internalType": "uint256"
        }
      ],
      "stateMutability": "view"
    },
    {
      "type": "function",
      "name": "debtCeiling",
      "inputs": [
        {
          "name": "ilkIndex",
          "type": "uint8",
          "internalType": "uint8"
        }
      ],
      "outputs": [
        {
          "name": "",
          "type": "uint256",
          "internalType": "uint256"
        }
      ],
      "stateMutability": "view"
    },
    {
      "type": "function",
      "name": "debtUnaccrued",
      "inputs": [],
      "outputs": [
        {
          "name": "",
          "type": "uint256",
          "internalType": "uint256"
        }
      ],
      "stateMutability": "view"
    },
    {
      "type": "function",
      "name": "decimals",
      "inputs": [],
      "outputs": [
        {
          "name": "",
          "type": "uint8",
          "internalType": "uint8"
        }
      ],
      "stateMutability": "view"
    },
    {
      "type": "function",
      "name": "defaultAdmin",
      "inputs": [],
      "outputs": [
        {
          "name": "",
          "type": "address",
          "internalType": "address"
        }
      ],
      "stateMutability": "view"
    },
    {
      "type": "function",
      "name": "defaultAdminDelay",
      "inputs": [],
      "outputs": [
        {
          "name": "",
          "type": "uint48",
          "internalType": "uint48"
        }
      ],
      "stateMutability": "view"
    },
    {
      "type": "function",
      "name": "defaultAdminDelayIncreaseWait",
      "inputs": [],
      "outputs": [
        {
          "name": "",
          "type": "uint48",
          "internalType": "uint48"
        }
      ],
      "stateMutability": "view"
    },
    {
      "type": "function",
      "name": "depositCollateral",
      "inputs": [
        {
          "name": "ilkIndex",
          "type": "uint8",
          "internalType": "uint8"
        },
        {
          "name": "user",
          "type": "address",
          "internalType": "address"
        },
        {
          "name": "depositor",
          "type": "address",
          "internalType": "address"
        },
        {
          "name": "amount",
          "type": "uint256",
          "internalType": "uint256"
        },
        {
          "name": "proof",
          "type": "bytes32[]",
          "internalType": "bytes32[]"
        }
      ],
      "outputs": [],
      "stateMutability": "nonpayable"
    },
    {
      "type": "function",
      "name": "dust",
      "inputs": [
        {
          "name": "ilkIndex",
          "type": "uint8",
          "internalType": "uint8"
        }
      ],
      "outputs": [
        {
          "name": "",
          "type": "uint256",
          "internalType": "uint256"
        }
      ],
      "stateMutability": "view"
    },
    {
      "type": "function",
      "name": "gem",
      "inputs": [
        {
          "name": "ilkIndex",
          "type": "uint8",
          "internalType": "uint8"
        },
        {
          "name": "user",
          "type": "address",
          "internalType": "address"
        }
      ],
      "outputs": [
        {
          "name": "",
          "type": "uint256",
          "internalType": "uint256"
        }
      ],
      "stateMutability": "view"
    },
    {
      "type": "function",
      "name": "getCurrentBorrowRate",
      "inputs": [
        {
          "name": "ilkIndex",
          "type": "uint8",
          "internalType": "uint8"
        }
      ],
      "outputs": [
        {
          "name": "borrowRate",
          "type": "uint256",
          "internalType": "uint256"
        },
        {
          "name": "reserveFactor",
          "type": "uint256",
          "internalType": "uint256"
        }
      ],
      "stateMutability": "view"
    },
    {
      "type": "function",
      "name": "getIlkAddress",
      "inputs": [
        {
          "name": "ilkIndex",
          "type": "uint256",
          "internalType": "uint256"
        }
      ],
      "outputs": [
        {
          "name": "",
          "type": "address",
          "internalType": "address"
        }
      ],
      "stateMutability": "view"
    },
    {
      "type": "function",
      "name": "getIlkIndex",
      "inputs": [
        {
          "name": "ilkAddress",
          "type": "address",
          "internalType": "address"
        }
      ],
      "outputs": [
        {
          "name": "",
          "type": "uint8",
          "internalType": "uint8"
        }
      ],
      "stateMutability": "view"
    },
    {
      "type": "function",
      "name": "getRoleAdmin",
      "inputs": [
        {
          "name": "role",
          "type": "bytes32",
          "internalType": "bytes32"
        }
      ],
      "outputs": [
        {
          "name": "",
          "type": "bytes32",
          "internalType": "bytes32"
        }
      ],
      "stateMutability": "view"
    },
    {
      "type": "function",
      "name": "grantRole",
      "inputs": [
        {
          "name": "role",
          "type": "bytes32",
          "internalType": "bytes32"
        },
        {
          "name": "account",
          "type": "address",
          "internalType": "address"
        }
      ],
      "outputs": [],
      "stateMutability": "nonpayable"
    },
    {
      "type": "function",
      "name": "hasRole",
      "inputs": [
        {
          "name": "role",
          "type": "bytes32",
          "internalType": "bytes32"
        },
        {
          "name": "account",
          "type": "address",
          "internalType": "address"
        }
      ],
      "outputs": [
        {
          "name": "",
          "type": "bool",
          "internalType": "bool"
        }
      ],
      "stateMutability": "view"
    },
    {
      "type": "function",
      "name": "ilkCount",
      "inputs": [],
      "outputs": [
        {
          "name": "",
          "type": "uint256",
          "internalType": "uint256"
        }
      ],
      "stateMutability": "view"
    },
    {
      "type": "function",
      "name": "implementation",
      "inputs": [],
      "outputs": [
        {
          "name": "",
          "type": "address",
          "internalType": "address"
        }
      ],
      "stateMutability": "view"
    },
    {
      "type": "function",
      "name": "initialize",
      "inputs": [
        {
          "name": "_underlying",
          "type": "address",
          "internalType": "address"
        },
        {
          "name": "_treasury",
          "type": "address",
          "internalType": "address"
        },
        {
          "name": "decimals_",
          "type": "uint8",
          "internalType": "uint8"
        },
        {
          "name": "name_",
          "type": "string",
          "internalType": "string"
        },
        {
          "name": "symbol_",
          "type": "string",
          "internalType": "string"
        },
        {
          "name": "initialDefaultAdmin",
          "type": "address",
          "internalType": "address"
        },
        {
          "name": "_interestRateModule",
          "type": "address",
          "internalType": "contract InterestRate"
        },
        {
          "name": "_whitelist",
          "type": "address",
          "internalType": "contract Whitelist"
        }
      ],
      "outputs": [],
      "stateMutability": "nonpayable"
    },
    {
      "type": "function",
      "name": "initializeIlk",
      "inputs": [
        {
          "name": "ilkAddress",
          "type": "address",
          "internalType": "address"
        }
      ],
      "outputs": [],
      "stateMutability": "nonpayable"
    },
    {
      "type": "function",
      "name": "interestRateModule",
      "inputs": [],
      "outputs": [
        {
          "name": "",
          "type": "address",
          "internalType": "address"
        }
      ],
      "stateMutability": "view"
    },
    {
      "type": "function",
      "name": "isAllowed",
      "inputs": [
        {
          "name": "user",
          "type": "address",
          "internalType": "address"
        },
        {
          "name": "operator",
          "type": "address",
          "internalType": "address"
        }
      ],
      "outputs": [
        {
          "name": "",
          "type": "bool",
          "internalType": "bool"
        }
      ],
      "stateMutability": "view"
    },
    {
      "type": "function",
      "name": "isOperator",
      "inputs": [
        {
          "name": "user",
          "type": "address",
          "internalType": "address"
        },
        {
          "name": "operator",
          "type": "address",
          "internalType": "address"
        }
      ],
      "outputs": [
        {
          "name": "",
          "type": "bool",
          "internalType": "bool"
        }
      ],
      "stateMutability": "view"
    },
    {
      "type": "function",
      "name": "lastRateUpdate",
      "inputs": [
        {
          "name": "ilkIndex",
          "type": "uint8",
          "internalType": "uint8"
        }
      ],
      "outputs": [
        {
          "name": "",
          "type": "uint256",
          "internalType": "uint256"
        }
      ],
      "stateMutability": "view"
    },
    {
      "type": "function",
      "name": "mintAndBurnGem",
      "inputs": [
        {
          "name": "ilkIndex",
          "type": "uint8",
          "internalType": "uint8"
        },
        {
          "name": "usr",
          "type": "address",
          "internalType": "address"
        },
        {
          "name": "wad",
          "type": "int256",
          "internalType": "int256"
        }
      ],
      "outputs": [],
      "stateMutability": "nonpayable"
    },
    {
      "type": "function",
      "name": "name",
      "inputs": [],
      "outputs": [
        {
          "name": "",
          "type": "string",
          "internalType": "string"
        }
      ],
      "stateMutability": "view"
    },
    {
      "type": "function",
      "name": "normalizedBalanceOf",
      "inputs": [
        {
          "name": "user",
          "type": "address",
          "internalType": "address"
        }
      ],
      "outputs": [
        {
          "name": "",
          "type": "uint256",
          "internalType": "uint256"
        }
      ],
      "stateMutability": "view"
    },
    {
      "type": "function",
      "name": "normalizedDebt",
      "inputs": [
        {
          "name": "ilkIndex",
          "type": "uint8",
          "internalType": "uint8"
        },
        {
          "name": "user",
          "type": "address",
          "internalType": "address"
        }
      ],
      "outputs": [
        {
          "name": "",
          "type": "uint256",
          "internalType": "uint256"
        }
      ],
      "stateMutability": "view"
    },
    {
      "type": "function",
      "name": "normalizedTotalSupply",
      "inputs": [],
      "outputs": [
        {
          "name": "",
          "type": "uint256",
          "internalType": "uint256"
        }
      ],
      "stateMutability": "view"
    },
    {
      "type": "function",
      "name": "normalizedTotalSupplyUnaccrued",
      "inputs": [],
      "outputs": [
        {
          "name": "",
          "type": "uint256",
          "internalType": "uint256"
        }
      ],
      "stateMutability": "view"
    },
    {
      "type": "function",
      "name": "owner",
      "inputs": [],
      "outputs": [
        {
          "name": "",
          "type": "address",
          "internalType": "address"
        }
      ],
      "stateMutability": "view"
    },
    {
      "type": "function",
      "name": "pause",
      "inputs": [],
      "outputs": [],
      "stateMutability": "nonpayable"
    },
    {
      "type": "function",
      "name": "paused",
      "inputs": [],
      "outputs": [
        {
          "name": "",
          "type": "bool",
          "internalType": "bool"
        }
      ],
      "stateMutability": "view"
    },
    {
      "type": "function",
      "name": "pendingDefaultAdmin",
      "inputs": [],
      "outputs": [
        {
          "name": "newAdmin",
          "type": "address",
          "internalType": "address"
        },
        {
          "name": "schedule",
          "type": "uint48",
          "internalType": "uint48"
        }
      ],
      "stateMutability": "view"
    },
    {
      "type": "function",
      "name": "pendingDefaultAdminDelay",
      "inputs": [],
      "outputs": [
        {
          "name": "newDelay",
          "type": "uint48",
          "internalType": "uint48"
        },
        {
          "name": "schedule",
          "type": "uint48",
          "internalType": "uint48"
        }
      ],
      "stateMutability": "view"
    },
    {
      "type": "function",
      "name": "rate",
      "inputs": [
        {
          "name": "ilkIndex",
          "type": "uint8",
          "internalType": "uint8"
        }
      ],
      "outputs": [
        {
          "name": "",
          "type": "uint256",
          "internalType": "uint256"
        }
      ],
      "stateMutability": "view"
    },
    {
      "type": "function",
      "name": "rateUnaccrued",
      "inputs": [
        {
          "name": "ilkIndex",
          "type": "uint8",
          "internalType": "uint8"
        }
      ],
      "outputs": [
        {
          "name": "",
          "type": "uint256",
          "internalType": "uint256"
        }
      ],
      "stateMutability": "view"
    },
    {
      "type": "function",
      "name": "removeOperator",
      "inputs": [
        {
          "name": "operator",
          "type": "address",
          "internalType": "address"
        }
      ],
      "outputs": [],
      "stateMutability": "nonpayable"
    },
    {
      "type": "function",
      "name": "renounceRole",
      "inputs": [
        {
          "name": "role",
          "type": "bytes32",
          "internalType": "bytes32"
        },
        {
          "name": "account",
          "type": "address",
          "internalType": "address"
        }
      ],
      "outputs": [],
      "stateMutability": "nonpayable"
    },
    {
      "type": "function",
      "name": "repay",
      "inputs": [
        {
          "name": "ilkIndex",
          "type": "uint8",
          "internalType": "uint8"
        },
        {
          "name": "user",
          "type": "address",
          "internalType": "address"
        },
        {
          "name": "payer",
          "type": "address",
          "internalType": "address"
        },
        {
          "name": "amountOfNormalizedDebt",
          "type": "uint256",
          "internalType": "uint256"
        }
      ],
      "outputs": [],
      "stateMutability": "nonpayable"
    },
    {
      "type": "function",
      "name": "repayBadDebt",
      "inputs": [
        {
          "name": "user",
          "type": "address",
          "internalType": "address"
        },
        {
          "name": "rad",
          "type": "uint256",
          "internalType": "uint256"
        }
      ],
      "outputs": [],
      "stateMutability": "nonpayable"
    },
    {
      "type": "function",
      "name": "revokeRole",
      "inputs": [
        {
          "name": "role",
          "type": "bytes32",
          "internalType": "bytes32"
        },
        {
          "name": "account",
          "type": "address",
          "internalType": "address"
        }
      ],
      "outputs": [],
      "stateMutability": "nonpayable"
    },
    {
      "type": "function",
      "name": "rollbackDefaultAdminDelay",
      "inputs": [],
      "outputs": [],
      "stateMutability": "nonpayable"
    },
    {
      "type": "function",
      "name": "spot",
      "inputs": [
        {
          "name": "ilkIndex",
          "type": "uint8",
          "internalType": "uint8"
        }
      ],
      "outputs": [
        {
          "name": "",
          "type": "address",
          "internalType": "contract SpotOracle"
        }
      ],
      "stateMutability": "view"
    },
    {
      "type": "function",
      "name": "supply",
      "inputs": [
        {
          "name": "user",
          "type": "address",
          "internalType": "address"
        },
        {
          "name": "amount",
          "type": "uint256",
          "internalType": "uint256"
        },
        {
          "name": "proof",
          "type": "bytes32[]",
          "internalType": "bytes32[]"
        }
      ],
      "outputs": [],
      "stateMutability": "nonpayable"
    },
    {
      "type": "function",
      "name": "supplyFactor",
      "inputs": [],
      "outputs": [
        {
          "name": "",
          "type": "uint256",
          "internalType": "uint256"
        }
      ],
      "stateMutability": "view"
    },
    {
      "type": "function",
      "name": "supplyFactorUnaccrued",
      "inputs": [],
      "outputs": [
        {
          "name": "",
          "type": "uint256",
          "internalType": "uint256"
        }
      ],
      "stateMutability": "view"
    },
    {
      "type": "function",
      "name": "supportsInterface",
      "inputs": [
        {
          "name": "interfaceId",
          "type": "bytes4",
          "internalType": "bytes4"
        }
      ],
      "outputs": [
        {
          "name": "",
          "type": "bool",
          "internalType": "bool"
        }
      ],
      "stateMutability": "view"
    },
    {
      "type": "function",
      "name": "symbol",
      "inputs": [],
      "outputs": [
        {
          "name": "",
          "type": "string",
          "internalType": "string"
        }
      ],
      "stateMutability": "view"
    },
    {
      "type": "function",
      "name": "totalNormalizedDebt",
      "inputs": [
        {
          "name": "ilkIndex",
          "type": "uint8",
          "internalType": "uint8"
        }
      ],
      "outputs": [
        {
          "name": "",
          "type": "uint256",
          "internalType": "uint256"
        }
      ],
      "stateMutability": "view"
    },
    {
      "type": "function",
      "name": "totalSupply",
      "inputs": [],
      "outputs": [
        {
          "name": "",
          "type": "uint256",
          "internalType": "uint256"
        }
      ],
      "stateMutability": "view"
    },
    {
      "type": "function",
      "name": "totalSupplyUnaccrued",
      "inputs": [],
      "outputs": [
        {
          "name": "",
          "type": "uint256",
          "internalType": "uint256"
        }
      ],
      "stateMutability": "view"
    },
    {
      "type": "function",
      "name": "totalUnbackedDebt",
      "inputs": [],
      "outputs": [
        {
          "name": "",
          "type": "uint256",
          "internalType": "uint256"
        }
      ],
      "stateMutability": "view"
    },
    {
      "type": "function",
      "name": "transferGem",
      "inputs": [
        {
          "name": "ilkIndex",
          "type": "uint8",
          "internalType": "uint8"
        },
        {
          "name": "src",
          "type": "address",
          "internalType": "address"
        },
        {
          "name": "dst",
          "type": "address",
          "internalType": "address"
        },
        {
          "name": "wad",
          "type": "uint256",
          "internalType": "uint256"
        }
      ],
      "outputs": [],
      "stateMutability": "nonpayable"
    },
    {
      "type": "function",
      "name": "treasury",
      "inputs": [],
      "outputs": [
        {
          "name": "",
          "type": "address",
          "internalType": "address"
        }
      ],
      "stateMutability": "view"
    },
    {
      "type": "function",
      "name": "unbackedDebt",
      "inputs": [
        {
          "name": "user",
          "type": "address",
          "internalType": "address"
        }
      ],
      "outputs": [
        {
          "name": "",
          "type": "uint256",
          "internalType": "uint256"
        }
      ],
      "stateMutability": "view"
    },
    {
      "type": "function",
      "name": "underlying",
      "inputs": [],
      "outputs": [
        {
          "name": "",
          "type": "address",
          "internalType": "contract IERC20"
        }
      ],
      "stateMutability": "view"
    },
    {
      "type": "function",
      "name": "unpause",
      "inputs": [],
      "outputs": [],
      "stateMutability": "nonpayable"
    },
    {
      "type": "function",
      "name": "updateIlkDebtCeiling",
      "inputs": [
        {
          "name": "ilkIndex",
          "type": "uint8",
          "internalType": "uint8"
        },
        {
          "name": "newCeiling",
          "type": "uint256",
          "internalType": "uint256"
        }
      ],
      "outputs": [],
      "stateMutability": "nonpayable"
    },
    {
      "type": "function",
      "name": "updateIlkDust",
      "inputs": [
        {
          "name": "ilkIndex",
          "type": "uint8",
          "internalType": "uint8"
        },
        {
          "name": "newDust",
          "type": "uint256",
          "internalType": "uint256"
        }
      ],
      "outputs": [],
      "stateMutability": "nonpayable"
    },
    {
      "type": "function",
      "name": "updateIlkSpot",
      "inputs": [
        {
          "name": "ilkIndex",
          "type": "uint8",
          "internalType": "uint8"
        },
        {
          "name": "newSpot",
          "type": "address",
          "internalType": "contract SpotOracle"
        }
      ],
      "outputs": [],
      "stateMutability": "nonpayable"
    },
    {
      "type": "function",
      "name": "updateInterestRateModule",
      "inputs": [
        {
          "name": "_interestRateModule",
          "type": "address",
          "internalType": "contract InterestRate"
        }
      ],
      "outputs": [],
      "stateMutability": "nonpayable"
    },
    {
      "type": "function",
      "name": "updateSupplyCap",
      "inputs": [
        {
          "name": "newSupplyCap",
          "type": "uint256",
          "internalType": "uint256"
        }
      ],
      "outputs": [],
      "stateMutability": "nonpayable"
    },
    {
      "type": "function",
      "name": "updateTreasury",
      "inputs": [
        {
          "name": "newTreasury",
          "type": "address",
          "internalType": "address"
        }
      ],
      "outputs": [],
      "stateMutability": "nonpayable"
    },
    {
      "type": "function",
      "name": "updateWhitelist",
      "inputs": [
        {
          "name": "_whitelist",
          "type": "address",
          "internalType": "contract Whitelist"
        }
      ],
      "outputs": [],
      "stateMutability": "nonpayable"
    },
    {
      "type": "function",
      "name": "vault",
      "inputs": [
        {
          "name": "ilkIndex",
          "type": "uint8",
          "internalType": "uint8"
        },
        {
          "name": "user",
          "type": "address",
          "internalType": "address"
        }
      ],
      "outputs": [
        {
          "name": "",
          "type": "uint256",
          "internalType": "uint256"
        },
        {
          "name": "",
          "type": "uint256",
          "internalType": "uint256"
        }
      ],
      "stateMutability": "view"
    },
    {
      "type": "function",
      "name": "weth",
      "inputs": [],
      "outputs": [
        {
          "name": "",
          "type": "uint256",
          "internalType": "uint256"
        }
      ],
      "stateMutability": "view"
    },
    {
      "type": "function",
      "name": "wethSupplyCap",
      "inputs": [],
      "outputs": [
        {
          "name": "",
          "type": "uint256",
          "internalType": "uint256"
        }
      ],
      "stateMutability": "view"
    },
    {
      "type": "function",
      "name": "whitelist",
      "inputs": [],
      "outputs": [
        {
          "name": "",
          "type": "address",
          "internalType": "address"
        }
      ],
      "stateMutability": "view"
    },
    {
      "type": "function",
      "name": "withdraw",
      "inputs": [
        {
          "name": "receiverOfUnderlying",
          "type": "address",
          "internalType": "address"
        },
        {
          "name": "amount",
          "type": "uint256",
          "internalType": "uint256"
        }
      ],
      "outputs": [],
      "stateMutability": "nonpayable"
    },
    {
      "type": "function",
      "name": "withdrawCollateral",
      "inputs": [
        {
          "name": "ilkIndex",
          "type": "uint8",
          "internalType": "uint8"
        },
        {
          "name": "user",
          "type": "address",
          "internalType": "address"
        },
        {
          "name": "recipient",
          "type": "address",
          "internalType": "address"
        },
        {
          "name": "amount",
          "type": "uint256",
          "internalType": "uint256"
        }
      ],
      "outputs": [],
      "stateMutability": "nonpayable"
    },
    {
      "type": "event",
      "name": "AddOperator",
      "inputs": [
        {
          "name": "user",
          "type": "address",
          "indexed": true,
          "internalType": "address"
        },
        {
          "name": "operator",
          "type": "address",
          "indexed": true,
          "internalType": "address"
        }
      ],
      "anonymous": false
    },
    {
      "type": "event",
      "name": "Borrow",
      "inputs": [
        {
          "name": "ilkIndex",
          "type": "uint8",
          "indexed": true,
          "internalType": "uint8"
        },
        {
          "name": "user",
          "type": "address",
          "indexed": true,
          "internalType": "address"
        },
        {
          "name": "recipient",
          "type": "address",
          "indexed": true,
          "internalType": "address"
        },
        {
          "name": "amountOfNormalizedDebt",
          "type": "uint256",
          "indexed": false,
          "internalType": "uint256"
        },
        {
          "name": "ilkRate",
          "type": "uint256",
          "indexed": false,
          "internalType": "uint256"
        },
        {
          "name": "totalDebt",
          "type": "uint256",
          "indexed": false,
          "internalType": "uint256"
        }
      ],
      "anonymous": false
    },
    {
      "type": "event",
      "name": "ConfiscateVault",
      "inputs": [
        {
          "name": "ilkIndex",
          "type": "uint8",
          "indexed": true,
          "internalType": "uint8"
        },
        {
          "name": "u",
          "type": "address",
          "indexed": true,
          "internalType": "address"
        },
        {
          "name": "v",
          "type": "address",
          "indexed": false,
          "internalType": "address"
        },
        {
          "name": "w",
          "type": "address",
          "indexed": true,
          "internalType": "address"
        },
        {
          "name": "changeInCollateral",
          "type": "int256",
          "indexed": false,
          "internalType": "int256"
        },
        {
          "name": "changeInNormalizedDebt",
          "type": "int256",
          "indexed": false,
          "internalType": "int256"
        }
      ],
      "anonymous": false
    },
    {
      "type": "event",
      "name": "DefaultAdminDelayChangeCanceled",
      "inputs": [],
      "anonymous": false
    },
    {
      "type": "event",
      "name": "DefaultAdminDelayChangeScheduled",
      "inputs": [
        {
          "name": "newDelay",
          "type": "uint48",
          "indexed": false,
          "internalType": "uint48"
        },
        {
          "name": "effectSchedule",
          "type": "uint48",
          "indexed": false,
          "internalType": "uint48"
        }
      ],
      "anonymous": false
    },
    {
      "type": "event",
      "name": "DefaultAdminTransferCanceled",
      "inputs": [],
      "anonymous": false
    },
    {
      "type": "event",
      "name": "DefaultAdminTransferScheduled",
      "inputs": [
        {
          "name": "newAdmin",
          "type": "address",
          "indexed": true,
          "internalType": "address"
        },
        {
          "name": "acceptSchedule",
          "type": "uint48",
          "indexed": false,
          "internalType": "uint48"
        }
      ],
      "anonymous": false
    },
    {
      "type": "event",
      "name": "DepositCollateral",
      "inputs": [
        {
          "name": "ilkIndex",
          "type": "uint8",
          "indexed": true,
          "internalType": "uint8"
        },
        {
          "name": "user",
          "type": "address",
          "indexed": true,
          "internalType": "address"
        },
        {
          "name": "depositor",
          "type": "address",
          "indexed": true,
          "internalType": "address"
        },
        {
          "name": "amount",
          "type": "uint256",
          "indexed": false,
          "internalType": "uint256"
        }
      ],
      "anonymous": false
    },
    {
      "type": "event",
      "name": "IlkDebtCeilingUpdated",
      "inputs": [
        {
          "name": "ilkIndex",
          "type": "uint8",
          "indexed": true,
          "internalType": "uint8"
        },
        {
          "name": "newDebtCeiling",
          "type": "uint256",
          "indexed": false,
          "internalType": "uint256"
        }
      ],
      "anonymous": false
    },
    {
      "type": "event",
      "name": "IlkDustUpdated",
      "inputs": [
        {
          "name": "ilkIndex",
          "type": "uint8",
          "indexed": true,
          "internalType": "uint8"
        },
        {
          "name": "newDust",
          "type": "uint256",
          "indexed": false,
          "internalType": "uint256"
        }
      ],
      "anonymous": false
    },
    {
      "type": "event",
      "name": "IlkInitialized",
      "inputs": [
        {
          "name": "ilkIndex",
          "type": "uint8",
          "indexed": true,
          "internalType": "uint8"
        },
        {
          "name": "ilkAddress",
          "type": "address",
          "indexed": true,
          "internalType": "address"
        }
      ],
      "anonymous": false
    },
    {
      "type": "event",
      "name": "IlkSpotUpdated",
      "inputs": [
        {
          "name": "ilkIndex",
          "type": "uint8",
          "indexed": true,
          "internalType": "uint8"
        },
        {
          "name": "newSpot",
          "type": "address",
          "indexed": false,
          "internalType": "address"
        }
      ],
      "anonymous": false
    },
    {
      "type": "event",
      "name": "Initialized",
      "inputs": [
        {
          "name": "version",
          "type": "uint64",
          "indexed": false,
          "internalType": "uint64"
        }
      ],
      "anonymous": false
    },
    {
      "type": "event",
      "name": "InterestRateModuleUpdated",
      "inputs": [
        {
          "name": "newModule",
          "type": "address",
          "indexed": false,
          "internalType": "address"
        }
      ],
      "anonymous": false
    },
    {
      "type": "event",
      "name": "MintAndBurnGem",
      "inputs": [
        {
          "name": "ilkIndex",
          "type": "uint8",
          "indexed": true,
          "internalType": "uint8"
        },
        {
          "name": "usr",
          "type": "address",
          "indexed": true,
          "internalType": "address"
        },
        {
          "name": "wad",
          "type": "int256",
          "indexed": false,
          "internalType": "int256"
        }
      ],
      "anonymous": false
    },
    {
      "type": "event",
      "name": "MintToTreasury",
      "inputs": [
        {
          "name": "treasury",
          "type": "address",
          "indexed": true,
          "internalType": "address"
        },
        {
          "name": "amount",
          "type": "uint256",
          "indexed": false,
          "internalType": "uint256"
        },
        {
          "name": "supplyFactor",
          "type": "uint256",
          "indexed": false,
          "internalType": "uint256"
        }
      ],
      "anonymous": false
    },
    {
      "type": "event",
      "name": "Paused",
      "inputs": [
        {
          "name": "account",
          "type": "address",
          "indexed": false,
          "internalType": "address"
        }
      ],
      "anonymous": false
    },
    {
      "type": "event",
      "name": "RemoveOperator",
      "inputs": [
        {
          "name": "user",
          "type": "address",
          "indexed": true,
          "internalType": "address"
        },
        {
          "name": "operator",
          "type": "address",
          "indexed": true,
          "internalType": "address"
        }
      ],
      "anonymous": false
    },
    {
      "type": "event",
      "name": "Repay",
      "inputs": [
        {
          "name": "ilkIndex",
          "type": "uint8",
          "indexed": true,
          "internalType": "uint8"
        },
        {
          "name": "user",
          "type": "address",
          "indexed": true,
          "internalType": "address"
        },
        {
          "name": "payer",
          "type": "address",
          "indexed": true,
          "internalType": "address"
        },
        {
          "name": "amountOfNormalizedDebt",
          "type": "uint256",
          "indexed": false,
          "internalType": "uint256"
        },
        {
          "name": "ilkRate",
          "type": "uint256",
          "indexed": false,
          "internalType": "uint256"
        },
        {
          "name": "totalDebt",
          "type": "uint256",
          "indexed": false,
          "internalType": "uint256"
        }
      ],
      "anonymous": false
    },
    {
      "type": "event",
      "name": "RepayBadDebt",
      "inputs": [
        {
          "name": "user",
          "type": "address",
          "indexed": true,
          "internalType": "address"
        },
        {
          "name": "payer",
          "type": "address",
          "indexed": true,
          "internalType": "address"
        },
        {
          "name": "rad",
          "type": "uint256",
          "indexed": false,
          "internalType": "uint256"
        }
      ],
      "anonymous": false
    },
    {
      "type": "event",
      "name": "RoleAdminChanged",
      "inputs": [
        {
          "name": "role",
          "type": "bytes32",
          "indexed": true,
          "internalType": "bytes32"
        },
        {
          "name": "previousAdminRole",
          "type": "bytes32",
          "indexed": true,
          "internalType": "bytes32"
        },
        {
          "name": "newAdminRole",
          "type": "bytes32",
          "indexed": true,
          "internalType": "bytes32"
        }
      ],
      "anonymous": false
    },
    {
      "type": "event",
      "name": "RoleGranted",
      "inputs": [
        {
          "name": "role",
          "type": "bytes32",
          "indexed": true,
          "internalType": "bytes32"
        },
        {
          "name": "account",
          "type": "address",
          "indexed": true,
          "internalType": "address"
        },
        {
          "name": "sender",
          "type": "address",
          "indexed": true,
          "internalType": "address"
        }
      ],
      "anonymous": false
    },
    {
      "type": "event",
      "name": "RoleRevoked",
      "inputs": [
        {
          "name": "role",
          "type": "bytes32",
          "indexed": true,
          "internalType": "bytes32"
        },
        {
          "name": "account",
          "type": "address",
          "indexed": true,
          "internalType": "address"
        },
        {
          "name": "sender",
          "type": "address",
          "indexed": true,
          "internalType": "address"
        }
      ],
      "anonymous": false
    },
    {
      "type": "event",
      "name": "Supply",
      "inputs": [
        {
          "name": "user",
          "type": "address",
          "indexed": true,
          "internalType": "address"
        },
        {
          "name": "underlyingFrom",
          "type": "address",
          "indexed": true,
          "internalType": "address"
        },
        {
          "name": "amount",
          "type": "uint256",
          "indexed": false,
          "internalType": "uint256"
        },
        {
          "name": "supplyFactor",
          "type": "uint256",
          "indexed": false,
          "internalType": "uint256"
        },
        {
          "name": "newDebt",
          "type": "uint256",
          "indexed": false,
          "internalType": "uint256"
        }
      ],
      "anonymous": false
    },
    {
      "type": "event",
      "name": "SupplyCapUpdated",
      "inputs": [
        {
          "name": "newSupplyCap",
          "type": "uint256",
          "indexed": false,
          "internalType": "uint256"
        }
      ],
      "anonymous": false
    },
    {
      "type": "event",
      "name": "Transfer",
      "inputs": [
        {
          "name": "from",
          "type": "address",
          "indexed": true,
          "internalType": "address"
        },
        {
          "name": "to",
          "type": "address",
          "indexed": true,
          "internalType": "address"
        },
        {
          "name": "value",
          "type": "uint256",
          "indexed": false,
          "internalType": "uint256"
        }
      ],
      "anonymous": false
    },
    {
      "type": "event",
      "name": "TransferGem",
      "inputs": [
        {
          "name": "ilkIndex",
          "type": "uint8",
          "indexed": true,
          "internalType": "uint8"
        },
        {
          "name": "src",
          "type": "address",
          "indexed": true,
          "internalType": "address"
        },
        {
          "name": "dst",
          "type": "address",
          "indexed": true,
          "internalType": "address"
        },
        {
          "name": "wad",
          "type": "uint256",
          "indexed": false,
          "internalType": "uint256"
        }
      ],
      "anonymous": false
    },
    {
      "type": "event",
      "name": "TreasuryUpdate",
      "inputs": [
        {
          "name": "treasury",
          "type": "address",
          "indexed": false,
          "internalType": "address"
        }
      ],
      "anonymous": false
    },
    {
      "type": "event",
      "name": "Unpaused",
      "inputs": [
        {
          "name": "account",
          "type": "address",
          "indexed": false,
          "internalType": "address"
        }
      ],
      "anonymous": false
    },
    {
      "type": "event",
      "name": "WhitelistUpdated",
      "inputs": [
        {
          "name": "newWhitelist",
          "type": "address",
          "indexed": false,
          "internalType": "address"
        }
      ],
      "anonymous": false
    },
    {
      "type": "event",
      "name": "Withdraw",
      "inputs": [
        {
          "name": "user",
          "type": "address",
          "indexed": true,
          "internalType": "address"
        },
        {
          "name": "target",
          "type": "address",
          "indexed": true,
          "internalType": "address"
        },
        {
          "name": "amount",
          "type": "uint256",
          "indexed": false,
          "internalType": "uint256"
        },
        {
          "name": "supplyFactor",
          "type": "uint256",
          "indexed": false,
          "internalType": "uint256"
        },
        {
          "name": "newDebt",
          "type": "uint256",
          "indexed": false,
          "internalType": "uint256"
        }
      ],
      "anonymous": false
    },
    {
      "type": "event",
      "name": "WithdrawCollateral",
      "inputs": [
        {
          "name": "ilkIndex",
          "type": "uint8",
          "indexed": true,
          "internalType": "uint8"
        },
        {
          "name": "user",
          "type": "address",
          "indexed": true,
          "internalType": "address"
        },
        {
          "name": "recipient",
          "type": "address",
          "indexed": true,
          "internalType": "address"
        },
        {
          "name": "amount",
          "type": "uint256",
          "indexed": false,
          "internalType": "uint256"
        }
      ],
      "anonymous": false
    },
    {
      "type": "error",
      "name": "AccessControlBadConfirmation",
      "inputs": []
    },
    {
      "type": "error",
      "name": "AccessControlEnforcedDefaultAdminDelay",
      "inputs": [
        {
          "name": "schedule",
          "type": "uint48",
          "internalType": "uint48"
        }
      ]
    },
    {
      "type": "error",
      "name": "AccessControlEnforcedDefaultAdminRules",
      "inputs": []
    },
    {
      "type": "error",
      "name": "AccessControlInvalidDefaultAdmin",
      "inputs": [
        {
          "name": "defaultAdmin",
          "type": "address",
          "internalType": "address"
        }
      ]
    },
    {
      "type": "error",
      "name": "AccessControlUnauthorizedAccount",
      "inputs": [
        {
          "name": "account",
          "type": "address",
          "internalType": "address"
        },
        {
          "name": "neededRole",
          "type": "bytes32",
          "internalType": "bytes32"
        }
      ]
    },
    {
      "type": "error",
      "name": "AddressEmptyCode",
      "inputs": [
        {
          "name": "target",
          "type": "address",
          "internalType": "address"
        }
      ]
    },
    {
      "type": "error",
      "name": "AddressInsufficientBalance",
      "inputs": [
        {
          "name": "account",
          "type": "address",
          "internalType": "address"
        }
      ]
    },
    {
      "type": "error",
      "name": "ArithmeticError",
      "inputs": []
    },
    {
      "type": "error",
      "name": "CeilingExceeded",
      "inputs": [
        {
          "name": "newDebt",
          "type": "uint256",
          "internalType": "uint256"
        },
        {
          "name": "debtCeiling",
          "type": "uint256",
          "internalType": "uint256"
        }
      ]
    },
    {
      "type": "error",
      "name": "DepositSurpassesSupplyCap",
      "inputs": [
        {
          "name": "depositAmount",
          "type": "uint256",
          "internalType": "uint256"
        },
        {
          "name": "supplyCap",
          "type": "uint256",
          "internalType": "uint256"
        }
      ]
    },
    {
      "type": "error",
      "name": "EnforcedPause",
      "inputs": []
    },
    {
      "type": "error",
      "name": "ExpectedPause",
      "inputs": []
    },
    {
      "type": "error",
      "name": "FailedInnerCall",
      "inputs": []
    },
    {
      "type": "error",
      "name": "GemTransferWithoutConsent",
      "inputs": [
        {
          "name": "ilkIndex",
          "type": "uint8",
          "internalType": "uint8"
        },
        {
          "name": "user",
          "type": "address",
          "internalType": "address"
        },
        {
          "name": "unconsentedOperator",
          "type": "address",
          "internalType": "address"
        }
      ]
    },
    {
      "type": "error",
      "name": "IlkAlreadyAdded",
      "inputs": [
        {
          "name": "ilkAddress",
          "type": "address",
          "internalType": "address"
        }
      ]
    },
    {
      "type": "error",
      "name": "IlkNotInitialized",
      "inputs": [
        {
          "name": "ilkIndex",
          "type": "uint256",
          "internalType": "uint256"
        }
      ]
    },
    {
      "type": "error",
      "name": "InsufficientBalance",
      "inputs": [
        {
          "name": "account",
          "type": "address",
          "internalType": "address"
        },
        {
          "name": "balance",
          "type": "uint256",
          "internalType": "uint256"
        },
        {
          "name": "needed",
          "type": "uint256",
          "internalType": "uint256"
        }
      ]
    },
    {
      "type": "error",
      "name": "InvalidBurnAmount",
      "inputs": []
    },
    {
      "type": "error",
      "name": "InvalidIlkAddress",
      "inputs": []
    },
    {
      "type": "error",
      "name": "InvalidInitialization",
      "inputs": []
    },
    {
      "type": "error",
      "name": "InvalidInterestRateModule",
      "inputs": [
        {
          "name": "invalidInterestRateModule",
          "type": "address",
          "internalType": "contract InterestRate"
        }
      ]
    },
    {
      "type": "error",
      "name": "InvalidMintAmount",
      "inputs": []
    },
    {
      "type": "error",
      "name": "InvalidReceiver",
      "inputs": [
        {
          "name": "receiver",
          "type": "address",
          "internalType": "address"
        }
      ]
    },
    {
      "type": "error",
      "name": "InvalidSender",
      "inputs": [
        {
          "name": "sender",
          "type": "address",
          "internalType": "address"
        }
      ]
    },
    {
      "type": "error",
      "name": "InvalidTreasuryAddress",
      "inputs": []
    },
    {
      "type": "error",
      "name": "InvalidUnderlyingAddress",
      "inputs": []
    },
    {
      "type": "error",
      "name": "InvalidWhitelist",
      "inputs": []
    },
    {
      "type": "error",
      "name": "MathOverflowedMulDiv",
      "inputs": []
    },
    {
      "type": "error",
      "name": "MaxIlksReached",
      "inputs": []
    },
    {
      "type": "error",
      "name": "NotInitializing",
      "inputs": []
    },
    {
      "type": "error",
      "name": "NotScalingUp",
      "inputs": [
        {
          "name": "from",
          "type": "uint256",
          "internalType": "uint256"
        },
        {
          "name": "to",
          "type": "uint256",
          "internalType": "uint256"
        }
      ]
    },
    {
      "type": "error",
      "name": "SafeCastOverflowedUintDowncast",
      "inputs": [
        {
          "name": "bits",
          "type": "uint8",
          "internalType": "uint8"
        },
        {
          "name": "value",
          "type": "uint256",
          "internalType": "uint256"
        }
      ]
    },
    {
      "type": "error",
      "name": "SafeCastOverflowedUintToInt",
      "inputs": [
        {
          "name": "value",
          "type": "uint256",
          "internalType": "uint256"
        }
      ]
    },
    {
      "type": "error",
      "name": "SafeERC20FailedOperation",
      "inputs": [
        {
          "name": "token",
          "type": "address",
          "internalType": "address"
        }
      ]
    },
    {
      "type": "error",
      "name": "TakingWethWithoutConsent",
      "inputs": [
        {
          "name": "payer",
          "type": "address",
          "internalType": "address"
        },
        {
          "name": "unconsentedOperator",
          "type": "address",
          "internalType": "address"
        }
      ]
    },
    {
      "type": "error",
      "name": "UnsafePositionChange",
      "inputs": [
        {
          "name": "newTotalDebtInVault",
          "type": "uint256",
          "internalType": "uint256"
        },
        {
          "name": "collateral",
          "type": "uint256",
          "internalType": "uint256"
        },
        {
          "name": "spot",
          "type": "uint256",
          "internalType": "uint256"
        }
      ]
    },
    {
      "type": "error",
      "name": "UnsafePositionChangeWithoutConsent",
      "inputs": [
        {
          "name": "ilkIndex",
          "type": "uint8",
          "internalType": "uint8"
        },
        {
          "name": "user",
          "type": "address",
          "internalType": "address"
        },
        {
          "name": "unconsentedOperator",
          "type": "address",
          "internalType": "address"
        }
      ]
    },
    {
      "type": "error",
      "name": "UseOfCollateralWithoutConsent",
      "inputs": [
        {
          "name": "ilkIndex",
          "type": "uint8",
          "internalType": "uint8"
        },
        {
          "name": "depositor",
          "type": "address",
          "internalType": "address"
        },
        {
          "name": "unconsentedOperator",
          "type": "address",
          "internalType": "address"
        }
      ]
    },
    {
      "type": "error",
      "name": "VaultCannotBeDusty",
      "inputs": [
        {
          "name": "amountLeft",
          "type": "uint256",
          "internalType": "uint256"
        },
        {
          "name": "dust",
          "type": "uint256",
          "internalType": "uint256"
        }
      ]
    }
  ],
  "bytecode": {
    "object": "0x60a0604052306080523480156200001557600080fd5b506200002062000026565b620000da565b7ff0c57e16840df040f15088dc2f81fe391c3923bec73e23a9662efc9c229c6a00805468010000000000000000900460ff1615620000775760405163f92ee8a960e01b815260040160405180910390fd5b80546001600160401b0390811614620000d75780546001600160401b0319166001600160401b0390811782556040519081527fc7f505b2f371ae2175ee4913f4499e1f2633a7b5936321eed1cdaeb6115181d29060200160405180910390a15b50565b608051615ee5620000f6600039600061086a0152615ee56000f3fe608060405234801561001057600080fd5b50600436106105585760003560e01c80638ba76507116102c3578063b443f4091161017c578063cf6eefb7116100de578063e5a97f07116100a2578063efff005f1161007c578063efff005f14610e6e578063f09b808d14610e81578063f3fef3a314610e9657600080fd5b8063e5a97f0714610e35578063e862114a14610e48578063ed0cb18314610e5b57600080fd5b8063cf6eefb714610dc4578063d547741f14610df2578063d602b9fd14610e05578063d831efd814610e0d578063dcec05bf14610e2057600080fd5b8063bb84f70111610140578063c358b49a1161011a578063c358b49a14610d9f578063cc8463c814610db4578063cefc142914610dbc57600080fd5b8063bb84f70114610d35578063bfb23b1214610d5c578063c0cc5edf14610d8c57600080fd5b8063b443f40914610c83578063b6363cf214610caa578063b64e000114610d05578063b827735f14610d1a578063b85e868e14610d2d57600080fd5b806399d4972111610225578063a36f653d116101e9578063a778d7b3116101c3578063a778d7b314610c24578063ac71554914610c5d578063ac8a584a14610c7057600080fd5b8063a36f653d14610bf6578063a6afed9514610c09578063a716272814610c1157600080fd5b806399d4972114610b7a5780639a3db79b14610ba1578063a165437914610bb4578063a1eda53c14610bc7578063a217fddf14610bee57600080fd5b80639306f2f81161028757806395d89b411161026157806395d89b4114610b4c5780639793974314610b545780639870d7fe14610b6757600080fd5b80639306f2f814610af657806393663c9614610b0957806393e59dc114610b1c57600080fd5b80638ba7650714610aa25780638da5cb5b14610ab55780638fb5400e14610abd578063918a2f4214610ad057806391d1485414610ae357600080fd5b80634c202531116104155780636f307dc3116103775780637886fe2f1161033b5780638456cb59116103155780638456cb5914610a7f5780638459b43714610a8757806384ef8ffc14610a9a57600080fd5b80637886fe2f14610a405780637ca5643d14610a595780637f51bb1f14610a6c57600080fd5b80636f307dc3146109905780636f424d76146109ae57806370a0823114610a07578063743f9c0c14610a1a5780637638eb4214610a2d57600080fd5b806361d027b3116103d957806368d8680d116103b357806368d8680d146108fc57806368eae77f146109555780636908d3df1461096857600080fd5b806361d027b3146108a6578063634e93da146108d6578063649a5ec7146108e957600080fd5b80634c202531146107ce5780634f1a43e3146107f957806357fc90b21461080c5780635c60da1b146108685780635c975abb1461088e57600080fd5b806318160ddd116104be57806336568abe116104825780633ea7ddda1161045c5780633ea7ddda146107785780633f4ba83a1461079f5780633fc8cef3146107a757600080fd5b806336568abe1461073f5780633c04b547146107525780633d0f963e1461076557600080fd5b806318160ddd1461068d5780631ffeaa2214610695578063248a9ca3146106dd5780632f2ff15d1461070d578063313ce5671461072057600080fd5b8063070a9645116105205780631059c533116104fa5780631059c5331461063957806313a141c21461064157806316d8887a1461066657600080fd5b8063070a96451461061f5780630aa6220b146106275780630dca59c11461063157600080fd5b8063012904451461055d57806301ffc9a714610583578063022d63fb146105a6578063023da9f9146105c257806306fdde031461060a575b600080fd5b61057061056b3660046151b6565b610ea9565b6040519081526020015b60405180910390f35b6105966105913660046151d1565b610ef4565b604051901515815260200161057a565b620697805b60405165ffffffffffff909116815260200161057a565b6105706105d0366004615210565b6001600160a01b031660009081527fdb3a0d63a7808d7d0422c40bb62354f42bff7602a547c329c1453dbcbeef4906602052604090205490565b610612610f1f565b60405161057a9190615251565b610570610fe2565b61062f611019565b005b61057061102f565b61057061105f565b61065461064f366004615210565b6110a2565b60405160ff909116815260200161057a565b6105707f5e17fc5225d4a099df75359ce1f405503ca79498a8dc46a7d583235a0ee45c1681565b610570611100565b6105706106a3366004615210565b6001600160a01b031660009081527fceba3d526b4d5afd91d1b752bf1fd37917c20a6daf576bcb41dd1c57c1f67e05602052604090205490565b6105706106eb366004615284565b6000908152600080516020615e50833981519152602052604090206001015490565b61062f61071b36600461529d565b611165565b600080516020615db083398151915254600160a01b900460ff16610654565b61062f61074d36600461529d565b611191565b6105706107603660046151b6565b61125a565b61062f610773366004615210565b6112c5565b6105707fc8e63ee95f263967af737f71b1c5d180e676a7f8b91a501b355a526a9a8fe3eb81565b61062f61138a565b7fceba3d526b4d5afd91d1b752bf1fd37917c20a6daf576bcb41dd1c57c1f67e0854610570565b6107e16107dc3660046151b6565b61141e565b6040516001600160a01b03909116815260200161057a565b61062f610807366004615210565b61146c565b61057061081a3660046152cd565b60ff9190911660009081527fceba3d526b4d5afd91d1b752bf1fd37917c20a6daf576bcb41dd1c57c1f67e03602090815260408083206001600160a01b039094168352929052206001015490565b7f00000000000000000000000000000000000000000000000000000000000000006107e1565b600080516020615e708339815191525460ff16610596565b7fdb3a0d63a7808d7d0422c40bb62354f42bff7602a547c329c1453dbcbeef4903546001600160a01b03166107e1565b61062f6108e4366004615210565b6115a9565b61062f6108f73660046152f9565b6115bd565b61057061090a3660046152cd565b60ff9190911660009081527fceba3d526b4d5afd91d1b752bf1fd37917c20a6daf576bcb41dd1c57c1f67e04602090815260408083206001600160a01b039094168352929052205490565b610596610963366004615210565b6115d1565b61097b6109763660046151b6565b611613565b6040805192835260208301919091520161057a565b600080516020615db0833981519152546001600160a01b03166107e1565b6105706109bc3660046152cd565b60ff9190911660009081527fceba3d526b4d5afd91d1b752bf1fd37917c20a6daf576bcb41dd1c57c1f67e03602090815260408083206001600160a01b039094168352929052205490565b610570610a15366004615210565b611750565b61062f610a28366004615321565b6117a4565b61062f610a3b3660046152cd565b61182f565b610a486118dd565b60405161057a959493929190615370565b61062f610a6736600461545b565b611a6d565b61062f610a7a366004615210565b611c06565b61062f611cc2565b61062f610a95366004615321565b611ceb565b6107e1611d8b565b610570610ab03660046151b6565b611db9565b6107e1611dfd565b61062f610acb366004615210565b611e0c565b61062f610ade3660046154b7565b61201f565b610596610af136600461529d565b61215a565b61062f610b04366004615581565b612192565b610570610b173660046151b6565b6122b8565b7fceba3d526b4d5afd91d1b752bf1fd37917c20a6daf576bcb41dd1c57c1f67e0c546001600160a01b03166107e1565b6106126122fc565b61062f610b62366004615669565b61233b565b61062f610b75366004615210565b6125b1565b7fceba3d526b4d5afd91d1b752bf1fd37917c20a6daf576bcb41dd1c57c1f67e0954610570565b61097b610baf3660046152cd565b612632565b610596610bc23660046156d5565b612687565b610bcf6126da565b6040805165ffffffffffff93841681529290911660208301520161057a565b610570600081565b61062f610c043660046156f3565b61275f565b6105706127e9565b61062f610c1f36600461571d565b6127fb565b610c37610c323660046151b6565b6128f2565b604080516001600160681b03909316835265ffffffffffff90911660208301520161057a565b610570610c6b3660046151b6565b612914565b61062f610c7e366004615210565b612966565b7fceba3d526b4d5afd91d1b752bf1fd37917c20a6daf576bcb41dd1c57c1f67e0a54610570565b610596610cb83660046156d5565b6001600160a01b0391821660009081527fceba3d526b4d5afd91d1b752bf1fd37917c20a6daf576bcb41dd1c57c1f67e066020908152604080832093909416825291909152205460011490565b600080516020615e9083398151915254610570565b61062f610d283660046157cc565b6129e6565b610570612c14565b7fceba3d526b4d5afd91d1b752bf1fd37917c20a6daf576bcb41dd1c57c1f67e0754610570565b7fceba3d526b4d5afd91d1b752bf1fd37917c20a6daf576bcb41dd1c57c1f67e0b546001600160a01b03166107e1565b61062f610d9a366004615321565b612c6d565b600080516020615e3083398151915254610570565b6105ab612db7565b61062f612e44565b610dcc612e84565b604080516001600160a01b03909316835265ffffffffffff90911660208301520161057a565b61062f610e0036600461529d565b612eb2565b61062f612eda565b61062f610e1b3660046158a0565b612eed565b610570600080516020615df083398151915281565b61062f610e43366004615284565b612fe8565b61062f610e563660046156f3565b613064565b610570610e693660046151b6565b6130ee565b6107e1610e7c366004615284565b61313f565b600080516020615dd083398151915254610570565b61062f610ea43660046158a0565b61317a565b600080516020615e90833981519152805460009190819060ff8516908110610ed357610ed36158be565b60009182526020909120600490910201546001600160681b03169392505050565b60006001600160e01b031982166318a4c3c360e11b1480610f195750610f1982613228565b92915050565b7fdb3a0d63a7808d7d0422c40bb62354f42bff7602a547c329c1453dbcbeef49018054606091600080516020615db083398151915291610f5e906158d4565b80601f0160208091040260200160405190810160405280929190818152602001828054610f8a906158d4565b8015610fd75780601f10610fac57610100808354040283529160200191610fd7565b820191906000526020600020905b815481529060010190602001808311610fba57829003601f168201915b505050505091505090565b6000600080516020615db083398151915281610ffc6118dd565b5050505090508082600501546110129190615924565b9250505090565b60006110248161325d565b61102c613267565b50565b6000600080516020615e90833981519152816110496118dd565b5093505050508082600701546110129190615924565b600080516020615dd083398151915254600090600080516020615db0833981519152908083036110925760009250505090565b6005820154611012908290613274565b6001600160a01b03811660008181527fceba3d526b4d5afd91d1b752bf1fd37917c20a6daf576bcb41dd1c57c1f67e0260205260408120549091600080516020615e90833981519152916110f890600190615937565b949350505050565b600080516020615dd083398151915254600090600080516020615db0833981519152908083036111335760009250505090565b600061113d6118dd565b50505050905061115d8184600501546111569190615924565b8390613274565b935050505090565b8161118357604051631fe1e13d60e11b815260040160405180910390fd5b61118d828261328c565b5050565b600080516020615e10833981519152821580156111c657506111b1611d8b565b6001600160a01b0316826001600160a01b0316145b1561124b576000806111d6612e84565b90925090506001600160a01b0382161515806111f8575065ffffffffffff8116155b8061120b57504265ffffffffffff821610155b15611238576040516319ca5ebb60e01b815265ffffffffffff821660048201526024015b60405180910390fd5b5050805465ffffffffffff60a01b191681555b61125583836132be565b505050565b6000600080516020615e9083398151915281611275846128f2565b506001600160681b0316905080826000018560ff168154811061129a5761129a6158be565b60009182526020909120600490910201546110f89190600160681b90046001600160681b0316615924565b600080516020615df08339815191526112dd8161325d565b6001600160a01b03821661130457604051635c4ff00360e11b815260040160405180910390fd5b7fceba3d526b4d5afd91d1b752bf1fd37917c20a6daf576bcb41dd1c57c1f67e0c80546001600160a01b0319166001600160a01b038416908117909155604051908152600080516020615e90833981519152907f86eba8651458cc924e4911e8a0a31258558de0474fdc43da05cea932cf130aad906020015b60405180910390a1505050565b600080516020615df08339815191526113a28161325d565b6113aa6132f1565b600080516020615e90833981519152805460005b8181101561141857428360000182815481106113dc576113dc6158be565b60009182526020909120600490910201805465ffffffffffff92909216600160d01b026001600160d01b039092169190911790556001016113be565b50505050565b600080516020615e90833981519152805460009190819060ff8516908110611448576114486158be565b60009182526020909120600160049092020101546001600160a01b03169392505050565b600080516020615df08339815191526114848161325d565b6001600160a01b0382166114b65760405163397b518b60e01b81526001600160a01b038316600482015260240161122f565b600080516020615e908339815191528054604080516348d4b48760e01b815290516001600160a01b038616916348d4b4879160048083019260209291908290030181865afa15801561150c573d6000803e3d6000fd5b505050506040513d601f19601f82011682018060405250810190611530919061594a565b146115595760405163397b518b60e01b81526001600160a01b038416600482015260240161122f565b600b810180546001600160a01b0319166001600160a01b0385169081179091556040519081527fad74a16b1bf6b1857f574482614816fe1f79ae6b578f5374e9ce760a2ede77869060200161137d565b60006115b48161325d565b61118d82613351565b60006115c88161325d565b61118d826133c4565b6000600080516020615e9083398151915261160c7fceba3d526b4d5afd91d1b752bf1fd37917c20a6daf576bcb41dd1c57c1f67e0184613434565b9392505050565b600080600080516020615e908339815191528161162e61105f565b90506000826000018660ff168154811061164a5761164a6158be565b6000918252602082206004909102015484546001600160681b039091169250849060ff891690811061167e5761167e6158be565b600091825260208220600490910201546001600160681b03600160681b9091041691506116ab8284615963565b600b86015460405163fe4bab4360e01b815260ff8b16600482015260248101839052604481018790529192506001600160a01b03169063fe4bab43906064016040805180830381865afa158015611706573d6000803e3d6000fd5b505050506040513d601f19601f8201168201806040525081019061172a919061597a565b9097509550611744676765c793fa10079d601b1b88615924565b96505050505050915091565b6000600080516020615db08339815191528161176a6118dd565b5050505090506110f88183600501546117839190615924565b6001600160a01b038616600090815260068501602052604090205490613274565b6117ac613456565b6117b4613487565b506117d684848460006117c68661363c565b6117cf9061599e565b600061366d565b5050816001600160a01b0316836001600160a01b03168560ff167f4363355d2aba118cce1b43c1cae9804f170e1cb6ede1116d421898bffef033a98460405161182191815260200190565b60405180910390a450505050565b600080516020615df08339815191526118478161325d565b600080516020615e9083398151915280548390829060ff871690811061186f5761186f6158be565b60009182526020918290206004919091020160010180546001600160a01b0319166001600160a01b03938416179055604051918516825260ff8616917f19df743a62793f3366940d678082fc6bc7926c06b86cd00dced146172870cbd691015b60405180910390a250505050565b6000806060818181600080516020615e9083398151915280549091508067ffffffffffffffff8111156119125761191261553a565b60405190808252806020026020018201604052801561193b578160200160208202803683370190505b5094508067ffffffffffffffff8111156119575761195761553a565b604051908082528060200260200182016040528015611980578160200160208202803683370190505b509250600061198d61105f565b905060005b828160ff161015611a625760008060008060006119af8688613c33565b9450945094509450945060008165ffffffffffff161115611a5257828c8760ff16815181106119e0576119e06158be565b60200260200101906001600160681b031690816001600160681b031681525050808a8760ff1681518110611a1657611a166158be565b65ffffffffffff90921660209283029190910190910152611a37828c615924565b9a50611a43858f615924565b9d50611a4f848e615924565b9c505b8560010195505050505050611992565b505050509091929394565b611a75613456565b8382828080602002602001604051908101604052809392919081815260200183836020028082843760009201829052509250611ab391506132169050565b600c810154604051631db4866560e01b81529192506001600160a01b031690631db4866590611aea903390879087906004016159f5565b602060405180830381865afa158015611b07573d6000803e3d6000fd5b505050506040513d601f19601f82011682018060405250810190611b2b9190615a21565b506000611b36613487565b90506000600080516020615e90833981519152905087816008016000828254611b5f9190615924565b9091555060009050611b728a338b613ee2565b600983015490915080611b83611100565b1115611bac57604051634f453d2760e11b8152600481018b90526024810182905260440161122f565b604080518b815260208101849052808201869052905133916001600160a01b038e16917feeb36d8164983f8a9f179702390cae566b9dfbea2d9df6344a56dbbccb428cf49181900360600190a35050505050505050505050565b600080516020615df0833981519152611c1e8161325d565b6001600160a01b038216611c455760405163cfe2ea6360e01b815260040160405180910390fd5b7fdb3a0d63a7808d7d0422c40bb62354f42bff7602a547c329c1453dbcbeef490380546001600160a01b0319166001600160a01b038416908117909155604051908152600080516020615db0833981519152907f8a3509a4057c89a5993a4a3140c2ebf7e829d325d8998eaa6c48adcff98b2cef9060200161137d565b600080516020615df0833981519152611cda8161325d565b611ce2613487565b5061102c613fa0565b611cf3613456565b611cfb613487565b50600080611d2086866000876000611d128961363c565b611d1b9061599e565b61366d565b604080518681526001600160681b038416602082015290810182905291935091506001600160a01b03808616919087169060ff8916907f406d000a5cb1dc8c35a7c089a430fac3d79fdbb8b3e37ee6a8707ce9d4ff46e69060600160405180910390a4505050505050565b7feef3dac4538c82c8ace4063ab0acd2d15cdb5883aa1dff7c2673abb3d8698401546001600160a01b031690565b600080516020615e90833981519152805460009190819060ff8516908110611de357611de36158be565b906000526020600020906004020160030154915050919050565b6000611e07611d8b565b905090565b600080516020615df0833981519152611e248161325d565b600080516020615e908339815191526001600160a01b038316611e5a57604051633a49766560e01b815260040160405180910390fd5b611e676001820184613fe9565b611e8f5760405163186b96a960e21b81526001600160a01b038416600482015260240161122f565b8054611e9d60ff6001615924565b8110611ebc576040516361d73a8560e01b815260040160405180910390fd5b6040805160c08101825260008082526020808301828152938301828152606084018381526080850184815260a08601858152895460018082018c558b8852958720885160049092020180549951955165ffffffffffff16600160d01b026001600160d01b036001600160681b03978816600160681b026001600160d01b0319909c1697909316969096179990991716939093178755905192860180546001600160a01b039094166001600160a01b03199094169390931790925590516002850155516003909301929092558354839290859060ff8516908110611fa157611fa16158be565b600091825260208220600490910201805465ffffffffffff4216600160d01b026001600160681b0390911617676765c793fa10079d60831b1781556040519092506001600160a01b0389169160ff8616917f15a7f70e00454c5cbf91f222531e25be8763187b123c94b14c64fe949726dc459190a350505050505050565b612027613456565b85858383808060200260200160405190810160405280939291908181526020018383602002808284376000920182905250925061206691506132169050565b600c81015460405163b5406b3d60e01b81529192506001600160a01b03169063b5406b3d9061209f908790339088908890600401615a43565b602060405180830381865afa1580156120bc573d6000803e3d6000fd5b505050506040513d601f19601f820116820180604052508101906120e09190615a21565b506120e9613487565b506120fb8a8a8a60006117cf8c61363c565b5050876001600160a01b0316896001600160a01b03168b60ff167fc125b447f095d22865ad610ebdc8ae9eff252e7d7011ca37e783c98a53970bc48a60405161214691815260200190565b60405180910390a450505050505050505050565b6000918252600080516020615e50833981519152602090815260408084206001600160a01b0393909316845291905290205460ff1690565b61219a613456565b8484826000600080516020615e90833981519152600c81015460405163b5406b3d60e01b81529192506001600160a01b03169063b5406b3d906121e7908790339088908890600401615a43565b602060405180830381865afa158015612204573d6000803e3d6000fd5b505050506040513d601f19601f820116820180604052508101906122289190615a21565b50612231613487565b506000806122488b8b60008c6000611d1b8e61363c565b604080518b81526001600160681b038416602082015290810182905291935091506001600160a01b03808b1691908c169060ff8e16907fe3e92e977f830d2a0b92c58e8866694b5dc929a35e2b95846f427de0f0bb412f9060600160405180910390a45050505050505050505050565b600080516020615e90833981519152805460009190819060ff85169081106122e2576122e26158be565b906000526020600020906004020160020154915050919050565b7fdb3a0d63a7808d7d0422c40bb62354f42bff7602a547c329c1453dbcbeef49028054606091600080516020615db083398151915291610f5e906158d4565b612343613456565b7f5e17fc5225d4a099df75359ce1f405503ca79498a8dc46a7d583235a0ee45c1661236d8161325d565b612375613487565b5060ff871660008181527fceba3d526b4d5afd91d1b752bf1fd37917c20a6daf576bcb41dd1c57c1f67e03602090815260408083206001600160a01b038b1684529091528120600080516020615e9083398151915280549093919291849181106123e1576123e16158be565b6000918252602090912060049091020180548354919250600160681b90046001600160681b0316906124139088613ffe565b835560018301546124249087613ffe565b6001840155815461244790612442906001600160681b031688613ffe565b61405b565b82546cffffffffffffffffffffffffff19166001600160681b039182161783556000906124779088908416615a78565b60ff8d16600090815260048701602090815260408083206001600160a01b038f1684529091529020549091506124ad908961408f565b8560040160008e60ff16815260200190815260200160002060008c6001600160a01b03166001600160a01b031681526020019081526020016000208190555061251d8560050160008b6001600160a01b03166001600160a01b03168152602001908152602001600020548261408f565b6001600160a01b038a166000908152600587016020526040902055600a850154612547908261408f565b600a860155604080516001600160a01b038c81168252602082018b9052918101899052818b16918d169060ff8f16907f196d7e6690c90edaf3483b0e23c0043895364c7ff093bb21292343c17020a1089060600160405180910390a4505050505050505050505050565b3360008181527fceba3d526b4d5afd91d1b752bf1fd37917c20a6daf576bcb41dd1c57c1f67e06602090815260408083206001600160a01b03861680855292528083206001905551600080516020615e908339815191529391927f51778c51d58ce676f156168a160fc5e14ad3c40027f7d6bf7ce613de46dda9a091a35050565b60ff821660009081527fceba3d526b4d5afd91d1b752bf1fd37917c20a6daf576bcb41dd1c57c1f67e03602090815260408083206001600160a01b0385168452909152902080546001909101545b9250929050565b6001600160a01b0391821660008181527fceba3d526b4d5afd91d1b752bf1fd37917c20a6daf576bcb41dd1c57c1f67e066020908152604080832094909516808352939052929092205460011491141790565b7feef3dac4538c82c8ace4063ab0acd2d15cdb5883aa1dff7c2673abb3d869840154600090600160d01b900465ffffffffffff16600080516020615e10833981519152811580159061273457504265ffffffffffff831610155b61274057600080612756565b6001810154600160a01b900465ffffffffffff16825b92509250509091565b600080516020615df08339815191526127778161325d565b600080516020615e9083398151915280548390829060ff871690811061279f5761279f6158be565b9060005260206000209060040201600201819055508360ff167f8867ae66007046a7ea4546c9cbb61f764adf577521a9831db2d82ec3d60bafbc846040516118cf91815260200190565b60006127f3613456565b611e07613487565b7fc8e63ee95f263967af737f71b1c5d180e676a7f8b91a501b355a526a9a8fe3eb6128258161325d565b60ff841660009081527fceba3d526b4d5afd91d1b752bf1fd37917c20a6daf576bcb41dd1c57c1f67e04602090815260408083206001600160a01b0387168452909152902054600080516020615e90833981519152906128859084613ffe565b60ff8616600081815260048401602090815260408083206001600160a01b038a1680855292529182902093909355517fe728fa61c700a3632cfd3973376b45b5f0bfdb3c2ea1946fd6d4fcda49e1d42f906128e39087815260200190565b60405180910390a35050505050565b6000806129068361290161105f565b613c33565b919791965090945050505050565b600080516020615e90833981519152805460009190819060ff851690811061293e5761293e6158be565b6000918252602090912060049091020154600160681b90046001600160681b03169392505050565b3360008181527fceba3d526b4d5afd91d1b752bf1fd37917c20a6daf576bcb41dd1c57c1f67e06602090815260408083206001600160a01b038616808552925280832083905551600080516020615e908339815191529391927fb157cf3e9ae29eb366b3bdda54b41d4738ada5daa73f8d2f1bef6280bb1418e491a35050565b7ff0c57e16840df040f15088dc2f81fe391c3923bec73e23a9662efc9c229c6a008054600160401b810460ff16159067ffffffffffffffff16600081158015612a2c5750825b905060008267ffffffffffffffff166001148015612a495750303b155b905081158015612a57575080155b15612a755760405163f92ee8a960e01b815260040160405180910390fd5b845467ffffffffffffffff191660011785558315612a9f57845460ff60401b1916600160401b1785555b612aaa6000896140eb565b612ab78d8d8d8d8d6140fd565b612acf600080516020615df08339815191528961425d565b507fceba3d526b4d5afd91d1b752bf1fd37917c20a6daf576bcb41dd1c57c1f67e0b80546001600160a01b03199081166001600160a01b038a81169182179093557fceba3d526b4d5afd91d1b752bf1fd37917c20a6daf576bcb41dd1c57c1f67e0c80549092169289169290921790556040805191825251600080516020615e90833981519152917fad74a16b1bf6b1857f574482614816fe1f79ae6b578f5374e9ce760a2ede7786919081900360200190a16040516001600160a01b03881681527f86eba8651458cc924e4911e8a0a31258558de0474fdc43da05cea932cf130aad9060200160405180910390a1508315612c0557845460ff60401b19168555604051600181527fc7f505b2f371ae2175ee4913f4499e1f2633a7b5936321eed1cdaeb6115181d29060200160405180910390a15b50505050505050505050505050565b6000600080516020615db08339815191528180612c2f6118dd565b505050915091506000612c52838560050154612c4b9190615924565b83906142cc565b9050808460040154612c649190615924565b94505050505090565b612c75613456565b612c7f8333612687565b612cb657604051631dda4a7d60e01b815260ff851660048201526001600160a01b038416602482015233604482015260640161122f565b60ff841660009081527fceba3d526b4d5afd91d1b752bf1fd37917c20a6daf576bcb41dd1c57c1f67e04602090815260408083206001600160a01b038716845290915281208054600080516020615e9083398151915292849291612d1b908490615937565b909155505060ff8516600090815260048201602090815260408083206001600160a01b038716845290915281208054849290612d58908490615924565b92505081905550826001600160a01b0316846001600160a01b03168660ff167fd511a95568d89bafbaf4849c74af18618e15f0c4aaeaa0a5212564935063723f85604051612da891815260200190565b60405180910390a45050505050565b7feef3dac4538c82c8ace4063ab0acd2d15cdb5883aa1dff7c2673abb3d869840154600090600080516020615e1083398151915290600160d01b900465ffffffffffff168015801590612e1157504265ffffffffffff8216105b612e2b578154600160d01b900465ffffffffffff16611012565b5060010154600160a01b900465ffffffffffff16919050565b6000612e4e612e84565b509050336001600160a01b03821614612e7c57604051636116401160e11b815233600482015260240161122f565b61102c6142e4565b600080516020615e10833981519152546001600160a01b03811691600160a01b90910465ffffffffffff1690565b81612ed057604051631fe1e13d60e11b815260040160405180910390fd5b61118d8282614381565b6000612ee58161325d565b61102c6143b3565b612ef5613456565b6001600160a01b03821660009081527fceba3d526b4d5afd91d1b752bf1fd37917c20a6daf576bcb41dd1c57c1f67e05602052604081208054600080516020615e9083398151915292849291612f4c908490615937565b925050819055508181600a016000828254612f679190615937565b9250508190555081816007016000828254612f829190615937565b90915550612fa3905033612f958461363c565b612f9e9061599e565b6143be565b60405182815233906001600160a01b038516907f88bdc625ef6cf9ddf1e8078b975bd3079c95fa9c9ea2cfc3312e4ad53acb4a6d9060200160405180910390a3505050565b600080516020615df08339815191526130008161325d565b7fceba3d526b4d5afd91d1b752bf1fd37917c20a6daf576bcb41dd1c57c1f67e09829055604051828152600080516020615e90833981519152907f4e44c8be34d12f1b7f56b13b4bbe97e64ca37a91916f86c73412da80c21748e29060200161137d565b600080516020615df083398151915261307c8161325d565b600080516020615e9083398151915280548390829060ff87169081106130a4576130a46158be565b9060005260206000209060040201600301819055508360ff167ff91e5e89199cb20fefcea995829cab2d6a5afb4a343b4438335f4e5f69173f09846040516118cf91815260200190565b600080516020615e90833981519152805460009190819060ff8516908110613118576131186158be565b6000918252602090912060049091020154600160d01b900465ffffffffffff169392505050565b6000600080516020615e9083398151915261160c7fceba3d526b4d5afd91d1b752bf1fd37917c20a6daf576bcb41dd1c57c1f67e01846144ef565b613182613456565b600061318c613487565b90506000600080516020615e908339815191529050828160080160008282546131b59190615937565b90915550600090506131c83386866144fb565b60408051868152602081018390529081018590529091506001600160a01b0386169033907febff2602b3f468259e1e99f613fed6691f3a6526effe6ef3e768ba7ae7a36c4f906060016128e3565b600080516020615e9083398151915290565b60006001600160e01b03198216637965db0b60e01b1480610f1957506301ffc9a760e01b6001600160e01b0319831614610f19565b61102c81336145aa565b6132726000806145e3565b565b600061160c8383676765c793fa10079d601b1b6146d0565b6000828152600080516020615e5083398151915260205260409020600101546132b48161325d565b611418838361425d565b6001600160a01b03811633146132e75760405163334bd91960e11b815260040160405180910390fd5b6112558282614794565b6132f96147ed565b600080516020615e70833981519152805460ff191681557f5db9ee0a495bf2e6ff9c91a7834c1ba4fdd244a5e8aa4e537bd38aeae4b073aa335b6040516001600160a01b03909116815260200160405180910390a150565b600061335b612db7565b6133644261481d565b61336e9190615aa8565b905061337a8282614850565b60405165ffffffffffff821681526001600160a01b038316907f3377dc44241e779dd06afab5b788a35ca5f3b778836e2990bdb26a2a4b2e5ed69060200160405180910390a25050565b60006133cf826148dd565b6133d84261481d565b6133e29190615aa8565b90506133ee82826145e3565b6040805165ffffffffffff8085168252831660208201527ff1038c18cf84a56e432fdbfaf746924b7ea511dfe03a6506a0ceba4888788d9b910160405180910390a15050565b6001600160a01b0381166000908152600183016020526040812054151561160c565b600080516020615e708339815191525460ff16156132725760405163d93c066560e01b815260040160405180910390fd5b6000600080516020615e90833981519152816134a161105f565b825490915060009081908190815b818160ff1610156135da5760008060008060006134cc868c613c33565b9450945094509450945060008165ffffffffffff1611156135ca5760008c6000018760ff1681548110613501576135016158be565b906000526020600020906004020190508381600001600d8282829054906101000a90046001600160681b03166135379190615ac7565b92506101000a8154816001600160681b0302191690836001600160681b031602179055508181600001601a8282829054906101000a900465ffffffffffff166135809190615aa8565b92506101000a81548165ffffffffffff021916908365ffffffffffff16021790555082896135ae9190615924565b98506135ba868c615924565b9a506135c6858b615924565b9950505b85600101955050505050506134af565b508186600701546135eb9190615924565b60078701819055965061362a8461360e600080516020615e308339815191525490565b6136189190615924565b600080516020615e3083398151915255565b61363383614925565b50505050505090565b60006001600160ff1b038211156136695760405163123baf0360e11b81526004810183905260240161122f565b5090565b600080516020615e9083398151915280546000918291819060ff8b16908110613698576136986158be565b600091825260208220600490910201546001600160681b03600160681b9091041693508390036136e057604051637a42d32b60e11b815260ff8a16600482015260240161122f565b60ff8916600090815260038201602090815260408083206001600160a01b038c168452825291829020825180840190935280548084526001909101549183019190915261372d9087613ffe565b8152602081015161373e9086613ffe565b602082015281546000906137859061244290859060ff8f16908110613765576137656158be565b60009182526020909120600490910201546001600160681b031688613ffe565b905060008260200151866001600160681b03166137a29190615963565b90506137f860008813856000018e60ff16815481106137c3576137c36158be565b906000526020600020906004020160020154886001600160681b0316856001600160681b03166137f39190615963565b111690565b15613861576138136001600160681b03808816908416615963565b846000018d60ff168154811061382b5761382b6158be565b906000526020600020906004020160020154604051631604695560e31b815260040161122f929190918252602082015260400190565b6000846000018d60ff168154811061387b5761387b6158be565b906000526020600020906004020160010160009054906101000a90046001600160a01b03166001600160a01b0316632b37269c6040518163ffffffff1660e01b8152600401602060405180830381865afa1580156138dd573d6000803e3d6000fd5b505050506040513d601f19601f82011682018060405250810190613901919061594a565b905061392861391560008a1360008c121790565b8551613922908490615963565b84111690565b1561395a578351604051631e09d3a360e31b81526004810184905260248101919091526044810182905260640161122f565b61397b61396c60008a1360008c121790565b6139768e33612687565b151690565b156139b3576040516315df6de160e31b815260ff8e1660048201526001600160a01b038d16602482015233604482015260640161122f565b6139c460008a136139768d33612687565b156139fc5760405163f7c30b4560e01b815260ff8e1660048201526001600160a01b038c16602482015233604482015260640161122f565b613a0d600089126139768c33612687565b15613a3c5760405163e236d98560e01b81526001600160a01b038b16600482015233602482015260440161122f565b613a78846020015160001415866000018f60ff1681548110613a6057613a606158be565b90600052602060002090600402016003015484101690565b15613acc5781856000018e60ff1681548110613a9657613a966158be565b90600052602060002090600402016003015460405163e6fe673d60e01b815260040161122f929190918252602082015260400190565b5050600086613ae3876001600160681b031661363c565b613aed9190615a78565b60ff8d16600090815260048601602090815260408083206001600160a01b038f168452909152902054909150613b23908961408f565b8460040160008e60ff16815260200190815260200160002060008c6001600160a01b03166001600160a01b0316815260200190815260200160002081905550828460030160008e60ff16815260200190815260200160002060008d6001600160a01b03166001600160a01b03168152602001908152602001600020600082015181600001556020820151816001015590505081846000018d60ff1681548110613bce57613bce6158be565b906000526020600020906004020160000160006101000a8154816001600160681b0302191690836001600160681b03160217905550613c11846007015482613ffe565b600785018190559450613c2489826143be565b50505050965096945050505050565b60008080808080600080516020615e9083398151915290506000816000018960ff1681548110613c6557613c656158be565b6000918252602090912060049091020180549091506001600160681b0316801580613c9f57508154600160d01b900465ffffffffffff1642145b15613cda578154600090819081908190613cc890600160d01b900465ffffffffffff1642615937565b97509750975097509750505050613ed8565b8154600090613cf990600160681b90046001600160681b031683615963565b600b85015460405163fe4bab4360e01b815260ff8e16600482015260248101839052604481018d905291925060009182916001600160a01b03169063fe4bab43906064016040805180830381865afa158015613d59573d6000803e3d6000fd5b505050506040513d601f19601f82011682018060405250810190613d7d919061597a565b9150915081600003613da65760008060008060009a509a509a509a509a50505050505050613ed8565b6000613dec613dc0676765c793fa10079d601b1b85615924565b8754613ddb90600160d01b900465ffffffffffff1642615937565b676765c793fa10079d601b1b614a11565b8654909150613e0a90600160d01b900465ffffffffffff1642615ae7565b9750613e3f612442613e27676765c793fa10079d601b1b84615937565b8854600160681b90046001600160681b031690614acf565b9950613e546001600160681b038b1686615963565b98506000613e6e600080516020615dd08339815191525490565b90508015613ea657613ea1613e8e84676765c793fa10079d601b1b615937565b613e99836012614ae9565b8c91906146d0565b613ea9565b60005b9c50613ecd8a84760a70c3c40a64e6c51999090b65f67d92400000000000006146d0565b9b5050505050505050505b9295509295909350565b600080516020615e3083398151915254600090600080516020615db08339815191529082613f1085836142cc565b905080600003613f335760405163199f5a0360e31b815260040160405180910390fd5b613f3d8782614af7565b8254613f54906001600160a01b0316873088614b8b565b6040518581526001600160a01b038816906000907fddf252ad1be2c89b69c2b068fc378daa952ba7f163c4a11628f55a4df523b3ef906020015b60405180910390a35095945050505050565b613fa8613456565b600080516020615e70833981519152805460ff191660011781557f62e78cea01bee320cd4e420270b5ea74000d11b0c9f74754ebdbfc544b05a25833613333565b600061160c836001600160a01b038416614bf2565b81810160008212801561401057508281115b1561402e57604051630fc12e3560e11b815260040160405180910390fd5b60008213801561403d57508281105b15610f1957604051630fc12e3560e11b815260040160405180910390fd5b60006001600160681b03821115613669576040516306dfcc6560e41b8152606860048201526024810183905260440161122f565b8082036000821380156140a157508281115b156140bf57604051630fc12e3560e11b815260040160405180910390fd5b60008212801561403d575082811015610f1957604051630fc12e3560e11b815260040160405180910390fd5b6140f3614c41565b61118d8282614c8a565b614105614c41565b6001600160a01b03851661412c5760405163e9a1cca560e01b815260040160405180910390fd5b6001600160a01b0384166141535760405163cfe2ea6360e01b815260040160405180910390fd5b600080516020615db083398151915280547fdb3a0d63a7808d7d0422c40bb62354f42bff7602a547c329c1453dbcbeef490380546001600160a01b0319166001600160a01b0388811691909117909155871674ffffffffffffffffffffffffffffffffffffffffff1990911617600160a01b60ff8616021781557fdb3a0d63a7808d7d0422c40bb62354f42bff7602a547c329c1453dbcbeef49016141f88482615b54565b50600281016142078382615b54565b50676765c793fa10079d601b1b60058201556040516001600160a01b03861681527f8a3509a4057c89a5993a4a3140c2ebf7e829d325d8998eaa6c48adcff98b2cef9060200160405180910390a1505050505050565b6000600080516020615e10833981519152836142c257600061427d611d8b565b6001600160a01b0316146142a457604051631fe1e13d60e11b815260040160405180910390fd5b6001810180546001600160a01b0319166001600160a01b0385161790555b6110f88484614cf3565b600061160c83676765c793fa10079d601b1b846146d0565b600080516020615e108339815191526000806142fe612e84565b915091506143138165ffffffffffff16151590565b158061432757504265ffffffffffff821610155b1561434f576040516319ca5ebb60e01b815265ffffffffffff8216600482015260240161122f565b614361600061435c611d8b565b614794565b5061436d60008361425d565b505081546001600160d01b03191690915550565b6000828152600080516020615e5083398151915260205260409020600101546143a98161325d565b6114188383614794565b613272600080614850565b806000036143ca575050565b600080516020615e9083398151915260008212156144885760006143ed8361599e565b90506000614406676765c793fa10079d601b1b83615c2a565b9050600061441f676765c793fa10079d601b1b84615c3e565b11156144315761442e81615c52565b90505b808360080160008282546144459190615924565b909155506144819050853083614470600080516020615db0833981519152546001600160a01b031690565b6001600160a01b0316929190614b8b565b5050505050565b600061449f676765c793fa10079d601b1b84615c2a565b9050808260080160008282546144b59190615937565b90915550611418905084826144df600080516020615db0833981519152546001600160a01b031690565b6001600160a01b03169190614d9f565b600061160c8383614dd0565b600080516020615e3083398151915254600090600080516020615db083398151915290826145298583614dfa565b90508060000361454c576040516302075cc160e41b815260040160405180910390fd5b6145568782614e14565b825461456c906001600160a01b03168787614d9f565b6040518581526000906001600160a01b038916907fddf252ad1be2c89b69c2b068fc378daa952ba7f163c4a11628f55a4df523b3ef90602001613f8e565b6145b4828261215a565b61118d5760405163e2517d3f60e01b81526001600160a01b03821660048201526024810183905260440161122f565b7feef3dac4538c82c8ace4063ab0acd2d15cdb5883aa1dff7c2673abb3d869840154600080516020615e1083398151915290600160d01b900465ffffffffffff168015614692574265ffffffffffff8216101561466857600182015482546001600160d01b0316600160a01b90910465ffffffffffff16600160d01b02178255614692565b6040517f2b1fa2edafe6f7b9e97c1a9e0c3660e645beb2dcaa2d45bdbf9beaf5472e1ec590600090a15b5060010180546001600160a01b0316600160a01b65ffffffffffff948516026001600160d01b031617600160d01b9290931691909102919091179055565b6000838302816000198587098281108382030391505080600003614707578382816146fd576146fd615c14565b049250505061160c565b8084116147275760405163227bc15360e01b815260040160405180910390fd5b6000848688096000868103871696879004966002600389028118808a02820302808a02820302808a02820302808a02820302808a02820302808a02909103029181900381900460010186841190950394909402919094039290920491909117919091029150509392505050565b6000600080516020615e10833981519152831580156147cb57506147b6611d8b565b6001600160a01b0316836001600160a01b0316145b156147e3576001810180546001600160a01b03191690555b6110f88484614ee0565b600080516020615e708339815191525460ff1661327257604051638dfc202b60e01b815260040160405180910390fd5b600065ffffffffffff821115613669576040516306dfcc6560e41b8152603060048201526024810183905260440161122f565b600080516020615e108339815191526000614869612e84565b835465ffffffffffff8616600160a01b026001600160d01b03199091166001600160a01b0388161717845591506148a990508165ffffffffffff16151590565b15611418576040517f8886ebfc4259abdbc16601dd8fb5678e54878f47b3c34836cfc51154a960510990600090a150505050565b6000806148e8612db7565b90508065ffffffffffff168365ffffffffffff16116149105761490b8382615ae7565b61160c565b61160c65ffffffffffff841662069780614f5c565b806000036149305750565b600080516020615e30833981519152547fdb3a0d63a7808d7d0422c40bb62354f42bff7602a547c329c1453dbcbeef490354600080516020615db083398151915291906001600160a01b031661498f8161498a86856142cc565b614af7565b6040518481526001600160a01b038216906000907fddf252ad1be2c89b69c2b068fc378daa952ba7f163c4a11628f55a4df523b3ef9060200160405180910390a360408051858152602081018490526001600160a01b038316917f095a1e7fd552d6bba4d4bcc1c4127215dafdd5a52103be432762e64f2e13250a91016118cf565b6000838015614ab157600184168015614a2c57859250614a30565b8392505b50600283046002850494505b8415614aab578586028687820414614a5357600080fd5b81810181811015614a6357600080fd5b8590049650506001851615614aa0578583028387820414158715151615614a8957600080fd5b81810181811015614a9957600080fd5b8590049350505b600285049450614a3c565b50614ac7565b838015614ac15760009250614ac5565b8392505b505b509392505050565b600061160c8383676765c793fa10079d601b1b6001614f72565b600061160c8383602d614fc3565b6001600160a01b038216614b2157604051639cfea58360e01b81526000600482015260240161122f565b600080516020615dd08339815191528054600080516020615db0833981519152918391600090614b52908490615924565b90915550506001600160a01b038316600090815260068201602052604081208054849290614b81908490615924565b9091555050505050565b6040516001600160a01b0384811660248301528381166044830152606482018390526114189186918216906323b872dd906084015b604051602081830303815290604052915060e01b6020820180516001600160e01b03838183161783525050505061500e565b6000818152600183016020526040812054614c3957508154600181810184556000848152602080822090930184905584548482528286019093526040902091909155610f19565b506000610f19565b7ff0c57e16840df040f15088dc2f81fe391c3923bec73e23a9662efc9c229c6a0054600160401b900460ff1661327257604051631afcd79f60e31b815260040160405180910390fd5b614c92614c41565b600080516020615e108339815191526001600160a01b038216614ccb57604051636116401160e11b81526000600482015260240161122f565b80546001600160d01b0316600160d01b65ffffffffffff85160217815561141860008361425d565b6000600080516020615e50833981519152614d0e848461215a565b614d8e576000848152602082815260408083206001600160a01b03871684529091529020805460ff19166001179055614d443390565b6001600160a01b0316836001600160a01b0316857f2f8788117e7eff1d82e926ec794901d17c78024a50270940304540a733656f0d60405160405180910390a46001915050610f19565b6000915050610f19565b5092915050565b6040516001600160a01b0383811660248301526044820183905261125591859182169063a9059cbb90606401614bc0565b6000826000018281548110614de757614de76158be565b9060005260206000200154905092915050565b600061160c83676765c793fa10079d601b1b846001614f72565b600080516020615db08339815191526001600160a01b038316614e4d576040516313053d9360e21b81526000600482015260240161122f565b6001600160a01b038316600090815260068201602052604090205482811015614ea25760405163db42144d60e01b81526001600160a01b0385166004820152602481018290526044810184905260640161122f565b6001600160a01b038416600090815260068301602052604081208483039055600483018054859290614ed5908490615937565b909155505050505050565b6000600080516020615e50833981519152614efb848461215a565b15614d8e576000848152602082815260408083206001600160a01b0387168085529252808320805460ff1916905551339287917ff6391f5c32d9c69d2a47ea670b442974b53935d1edc7fd64eb21e047a839171b9190a46001915050610f19565b6000818310614f6b578161160c565b5090919050565b600080614f808686866146d0565b9050614f8b83615071565b8015614fa7575060008480614fa257614fa2615c14565b868809115b15614fba57614fb7600182615924565b90505b95945050505050565b6000818310614fef57604051631a065cf160e01b8152600481018490526024810183905260440161122f565b614ff98383615937565b61500490600a615d4f565b6110f89085615963565b60006150236001600160a01b0384168361509e565b905080516000141580156150485750808060200190518101906150469190615a21565b155b1561125557604051635274afe760e01b81526001600160a01b038416600482015260240161122f565b6000600282600381111561508757615087615d5b565b6150919190615d71565b60ff166001149050919050565b606061160c8383600084600080856001600160a01b031684866040516150c49190615d93565b60006040518083038185875af1925050503d8060008114615101576040519150601f19603f3d011682016040523d82523d6000602084013e615106565b606091505b5091509150615116868383615120565b9695505050505050565b6060826151305761490b82615177565b815115801561514757506001600160a01b0384163b155b1561517057604051639996b31560e01b81526001600160a01b038516600482015260240161122f565b508061160c565b8051156151875780518082602001fd5b604051630a12f52160e11b815260040160405180910390fd5b803560ff811681146151b157600080fd5b919050565b6000602082840312156151c857600080fd5b61160c826151a0565b6000602082840312156151e357600080fd5b81356001600160e01b03198116811461160c57600080fd5b6001600160a01b038116811461102c57600080fd5b60006020828403121561522257600080fd5b813561160c816151fb565b60005b83811015615248578181015183820152602001615230565b50506000910152565b602081526000825180602084015261527081604085016020870161522d565b601f01601f19169190910160400192915050565b60006020828403121561529657600080fd5b5035919050565b600080604083850312156152b057600080fd5b8235915060208301356152c2816151fb565b809150509250929050565b600080604083850312156152e057600080fd5b6152e9836151a0565b915060208301356152c2816151fb565b60006020828403121561530b57600080fd5b813565ffffffffffff8116811461160c57600080fd5b6000806000806080858703121561533757600080fd5b615340856151a0565b93506020850135615350816151fb565b92506040850135615360816151fb565b9396929550929360600135925050565b600060a082018783526020878185015260a0604085015281875180845260c086019150828901935060005b818110156153c05784516001600160681b03168352938301939183019160010161539b565b5050606085018790528481036080860152855180825290820192508186019060005b8181101561540657825165ffffffffffff16855293830193918301916001016153e2565b50929a9950505050505050505050565b60008083601f84011261542857600080fd5b50813567ffffffffffffffff81111561544057600080fd5b6020830191508360208260051b850101111561268057600080fd5b6000806000806060858703121561547157600080fd5b843561547c816151fb565b935060208501359250604085013567ffffffffffffffff81111561549f57600080fd5b6154ab87828801615416565b95989497509550505050565b60008060008060008060a087890312156154d057600080fd5b6154d9876151a0565b955060208701356154e9816151fb565b945060408701356154f9816151fb565b935060608701359250608087013567ffffffffffffffff81111561551c57600080fd5b61552889828a01615416565b979a9699509497509295939492505050565b634e487b7160e01b600052604160045260246000fd5b604051601f8201601f1916810167ffffffffffffffff811182821017156155795761557961553a565b604052919050565b600080600080600060a0868803121561559957600080fd5b6155a2866151a0565b94506020808701356155b3816151fb565b945060408701356155c3816151fb565b935060608701359250608087013567ffffffffffffffff808211156155e757600080fd5b818901915089601f8301126155fb57600080fd5b81358181111561560d5761560d61553a565b8060051b915061561e848301615550565b818152918301840191848101908c84111561563857600080fd5b938501935b838510156156565784358252938501939085019061563d565b8096505050505050509295509295909350565b60008060008060008060c0878903121561568257600080fd5b61568b876151a0565b9550602087013561569b816151fb565b945060408701356156ab816151fb565b935060608701356156bb816151fb565b9598949750929560808101359460a0909101359350915050565b600080604083850312156156e857600080fd5b82356152e9816151fb565b6000806040838503121561570657600080fd5b61570f836151a0565b946020939093013593505050565b60008060006060848603121561573257600080fd5b61573b846151a0565b9250602084013561574b816151fb565b929592945050506040919091013590565b600082601f83011261576d57600080fd5b813567ffffffffffffffff8111156157875761578761553a565b61579a601f8201601f1916602001615550565b8181528460208386010111156157af57600080fd5b816020850160208301376000918101602001919091529392505050565b600080600080600080600080610100898b0312156157e957600080fd5b88356157f4816151fb565b97506020890135615804816151fb565b965061581260408a016151a0565b9550606089013567ffffffffffffffff8082111561582f57600080fd5b61583b8c838d0161575c565b965060808b013591508082111561585157600080fd5b5061585e8b828c0161575c565b94505060a089013561586f816151fb565b925060c089013561587f816151fb565b915060e089013561588f816151fb565b809150509295985092959890939650565b600080604083850312156158b357600080fd5b823561570f816151fb565b634e487b7160e01b600052603260045260246000fd5b600181811c908216806158e857607f821691505b60208210810361590857634e487b7160e01b600052602260045260246000fd5b50919050565b634e487b7160e01b600052601160045260246000fd5b80820180821115610f1957610f1961590e565b81810381811115610f1957610f1961590e565b60006020828403121561595c57600080fd5b5051919050565b8082028115828204841417610f1957610f1961590e565b6000806040838503121561598d57600080fd5b505080516020909101519092909150565b6000600160ff1b82016159b3576159b361590e565b5060000390565b600081518084526020808501945080840160005b838110156159ea578151875295820195908201906001016159ce565b509495945050505050565b60006001600160a01b03808616835280851660208401525060606040830152614fba60608301846159ba565b600060208284031215615a3357600080fd5b8151801515811461160c57600080fd5b60ff8516815260006001600160a01b0380861660208401528085166040840152506080606083015261511660808301846159ba565b80820260008212600160ff1b84141615615a9457615a9461590e565b8181058314821517610f1957610f1961590e565b65ffffffffffff818116838216019080821115614d9857614d9861590e565b6001600160681b03818116838216019080821115614d9857614d9861590e565b65ffffffffffff828116828216039080821115614d9857614d9861590e565b601f82111561125557600081815260208120601f850160051c81016020861015615b2d5750805b601f850160051c820191505b81811015615b4c57828155600101615b39565b505050505050565b815167ffffffffffffffff811115615b6e57615b6e61553a565b615b8281615b7c84546158d4565b84615b06565b602080601f831160018114615bb75760008415615b9f5750858301515b600019600386901b1c1916600185901b178555615b4c565b600085815260208120601f198616915b82811015615be657888601518255948401946001909101908401615bc7565b5085821015615c045787850151600019600388901b60f8161c191681555b5050505050600190811b01905550565b634e487b7160e01b600052601260045260246000fd5b600082615c3957615c39615c14565b500490565b600082615c4d57615c4d615c14565b500690565b600060018201615c6457615c6461590e565b5060010190565b600181815b80851115615ca6578160001904821115615c8c57615c8c61590e565b80851615615c9957918102915b93841c9390800290615c70565b509250929050565b600082615cbd57506001610f19565b81615cca57506000610f19565b8160018114615ce05760028114615cea57615d06565b6001915050610f19565b60ff841115615cfb57615cfb61590e565b50506001821b610f19565b5060208310610133831016604e8410600b8410161715615d29575081810a610f19565b615d338383615c6b565b8060001904821115615d4757615d4761590e565b029392505050565b600061160c8383615cae565b634e487b7160e01b600052602160045260246000fd5b600060ff831680615d8457615d84615c14565b8060ff84160691505092915050565b60008251615da581846020870161522d565b919091019291505056fedb3a0d63a7808d7d0422c40bb62354f42bff7602a547c329c1453dbcbeef4900db3a0d63a7808d7d0422c40bb62354f42bff7602a547c329c1453dbcbeef49045ab1a5ffb29c47d95dec8c5f9ad49a551754822b51a3359ed1c21e2be24beefaeef3dac4538c82c8ace4063ab0acd2d15cdb5883aa1dff7c2673abb3d8698400db3a0d63a7808d7d0422c40bb62354f42bff7602a547c329c1453dbcbeef490502dd7bc7dec4dceedda775e58dd541e08a116c6c53815c0bd028192f7b626800cd5ed15c6e187e77e9aee88184c21f4f2182ab5827cb3b7e07fbedcd63f03300ceba3d526b4d5afd91d1b752bf1fd37917c20a6daf576bcb41dd1c57c1f67e00a264697066735822122008fecc22c7e5ecd2907d3bb1b786a3356497964913c8a7ae404f14974be1d9ab64736f6c63430008150033",
    "linkReferences": {}
  },
  "methodIdentifiers": {
    "DEFAULT_ADMIN_ROLE()": "a217fddf",
    "GEM_JOIN_ROLE()": "3ea7ddda",
    "ION()": "dcec05bf",
    "LIQUIDATOR_ROLE()": "16d8887a",
    "acceptDefaultAdminTransfer()": "cefc1429",
    "accrueInterest()": "a6afed95",
    "addOperator(address)": "9870d7fe",
    "addressContains(address)": "68eae77f",
    "balanceOf(address)": "70a08231",
    "beginDefaultAdminTransfer(address)": "634e93da",
    "borrow(uint8,address,address,uint256,bytes32[])": "9306f2f8",
    "calculateRewardAndDebtDistribution()": "7886fe2f",
    "calculateRewardAndDebtDistributionForIlk(uint8)": "a778d7b3",
    "cancelDefaultAdminTransfer()": "d602b9fd",
    "changeDefaultAdminDelay(uint48)": "649a5ec7",
    "collateral(uint8,address)": "6f424d76",
    "confiscateVault(uint8,address,address,address,int256,int256)": "97939743",
    "debt()": "0dca59c1",
    "debtCeiling(uint8)": "93663c96",
    "debtUnaccrued()": "bb84f701",
    "decimals()": "313ce567",
    "defaultAdmin()": "84ef8ffc",
    "defaultAdminDelay()": "cc8463c8",
    "defaultAdminDelayIncreaseWait()": "022d63fb",
    "depositCollateral(uint8,address,address,uint256,bytes32[])": "918a2f42",
    "dust(uint8)": "8ba76507",
    "gem(uint8,address)": "68d8680d",
    "getCurrentBorrowRate(uint8)": "6908d3df",
    "getIlkAddress(uint256)": "efff005f",
    "getIlkIndex(address)": "13a141c2",
    "getRoleAdmin(bytes32)": "248a9ca3",
    "grantRole(bytes32,address)": "2f2ff15d",
    "hasRole(bytes32,address)": "91d14854",
    "ilkCount()": "b64e0001",
    "implementation()": "5c60da1b",
    "initialize(address,address,uint8,string,string,address,address,address)": "b827735f",
    "initializeIlk(address)": "8fb5400e",
    "interestRateModule()": "bfb23b12",
    "isAllowed(address,address)": "a1654379",
    "isOperator(address,address)": "b6363cf2",
    "lastRateUpdate(uint8)": "ed0cb183",
    "mintAndBurnGem(uint8,address,int256)": "a7162728",
    "name()": "06fdde03",
    "normalizedBalanceOf(address)": "023da9f9",
    "normalizedDebt(uint8,address)": "57fc90b2",
    "normalizedTotalSupply()": "b85e868e",
    "normalizedTotalSupplyUnaccrued()": "f09b808d",
    "owner()": "8da5cb5b",
    "pause()": "8456cb59",
    "paused()": "5c975abb",
    "pendingDefaultAdmin()": "cf6eefb7",
    "pendingDefaultAdminDelay()": "a1eda53c",
    "rate(uint8)": "3c04b547",
    "rateUnaccrued(uint8)": "ac715549",
    "removeOperator(address)": "ac8a584a",
    "renounceRole(bytes32,address)": "36568abe",
    "repay(uint8,address,address,uint256)": "8459b437",
    "repayBadDebt(address,uint256)": "d831efd8",
    "revokeRole(bytes32,address)": "d547741f",
    "rollbackDefaultAdminDelay()": "0aa6220b",
    "spot(uint8)": "4c202531",
    "supply(address,uint256,bytes32[])": "7ca5643d",
    "supplyFactor()": "070a9645",
    "supplyFactorUnaccrued()": "c358b49a",
    "supportsInterface(bytes4)": "01ffc9a7",
    "symbol()": "95d89b41",
    "totalNormalizedDebt(uint8)": "01290445",
    "totalSupply()": "18160ddd",
    "totalSupplyUnaccrued()": "1059c533",
    "totalUnbackedDebt()": "b443f409",
    "transferGem(uint8,address,address,uint256)": "c0cc5edf",
    "treasury()": "61d027b3",
    "unbackedDebt(address)": "1ffeaa22",
    "underlying()": "6f307dc3",
    "unpause()": "3f4ba83a",
    "updateIlkDebtCeiling(uint8,uint256)": "a36f653d",
    "updateIlkDust(uint8,uint256)": "e862114a",
    "updateIlkSpot(uint8,address)": "7638eb42",
    "updateInterestRateModule(address)": "4f1a43e3",
    "updateSupplyCap(uint256)": "e5a97f07",
    "updateTreasury(address)": "7f51bb1f",
    "updateWhitelist(address)": "3d0f963e",
    "vault(uint8,address)": "9a3db79b",
    "weth()": "3fc8cef3",
    "wethSupplyCap()": "99d49721",
    "whitelist()": "93e59dc1",
    "withdraw(address,uint256)": "f3fef3a3",
    "withdrawCollateral(uint8,address,address,uint256)": "743f9c0c"
  },
  "id": 131
}