{
  "abi": [
    {
      "type": "constructor",
      "inputs": [
        {
          "name": "_ionPool",
          "type": "address",
          "internalType": "address"
        },
        {
          "name": "_protocol",
          "type": "address",
          "internalType": "address"
        },
        {
          "name": "_reserveOracles",
          "type": "address[]",
          "internalType": "address[]"
        },
        {
          "name": "_liquidationThresholds",
          "type": "uint256[]",
          "internalType": "uint256[]"
        },
        {
          "name": "_targetHealth",
          "type": "uint256",
          "internalType": "uint256"
        },
        {
          "name": "_reserveFactor",
          "type": "uint256",
          "internalType": "uint256"
        },
        {
          "name": "_maxDiscounts",
          "type": "uint256[]",
          "internalType": "uint256[]"
        }
      ],
      "stateMutability": "nonpayable"
    },
    {
      "type": "function",
      "name": "BASE_DISCOUNT",
      "inputs": [],
      "outputs": [
        {
          "name": "",
          "type": "uint256",
          "internalType": "uint256"
        }
      ],
      "stateMutability": "view"
    },
    {
      "type": "function",
      "name": "LIQUIDATION_THRESHOLD",
      "inputs": [],
      "outputs": [
        {
          "name": "",
          "type": "uint256",
          "internalType": "uint256"
        }
      ],
      "stateMutability": "view"
    },
    {
      "type": "function",
      "name": "MAX_DISCOUNT",
      "inputs": [],
      "outputs": [
        {
          "name": "",
          "type": "uint256",
          "internalType": "uint256"
        }
      ],
      "stateMutability": "view"
    },
    {
      "type": "function",
      "name": "POOL",
      "inputs": [],
      "outputs": [
        {
          "name": "",
          "type": "address",
          "internalType": "contract IonPool"
        }
      ],
      "stateMutability": "view"
    },
    {
      "type": "function",
      "name": "PROTOCOL",
      "inputs": [],
      "outputs": [
        {
          "name": "",
          "type": "address",
          "internalType": "address"
        }
      ],
      "stateMutability": "view"
    },
    {
      "type": "function",
      "name": "RESERVE_ORACLE",
      "inputs": [],
      "outputs": [
        {
          "name": "",
          "type": "address",
          "internalType": "address"
        }
      ],
      "stateMutability": "view"
    },
    {
      "type": "function",
      "name": "TARGET_HEALTH",
      "inputs": [],
      "outputs": [
        {
          "name": "",
          "type": "uint256",
          "internalType": "uint256"
        }
      ],
      "stateMutability": "view"
    },
    {
      "type": "function",
      "name": "UNDERLYING",
      "inputs": [],
      "outputs": [
        {
          "name": "",
          "type": "address",
          "internalType": "contract IERC20"
        }
      ],
      "stateMutability": "view"
    },
    {
      "type": "function",
      "name": "getRepayAmt",
      "inputs": [
        {
          "name": "ilkIndex",
          "type": "uint8",
          "internalType": "uint8"
        },
        {
          "name": "vault",
          "type": "address",
          "internalType": "address"
        }
      ],
      "outputs": [
        {
          "name": "repay",
          "type": "uint256",
          "internalType": "uint256"
        }
      ],
      "stateMutability": "view"
    },
    {
      "type": "function",
      "name": "liquidate",
      "inputs": [
        {
          "name": "ilkIndex",
          "type": "uint8",
          "internalType": "uint8"
        },
        {
          "name": "vault",
          "type": "address",
          "internalType": "address"
        },
        {
          "name": "kpr",
          "type": "address",
          "internalType": "address"
        }
      ],
      "outputs": [
        {
          "name": "repayAmount",
          "type": "uint256",
          "internalType": "uint256"
        },
        {
          "name": "gemOut",
          "type": "uint256",
          "internalType": "uint256"
        }
      ],
      "stateMutability": "nonpayable"
    },
    {
      "type": "event",
      "name": "Liquidate",
      "inputs": [
        {
          "name": "initiator",
          "type": "address",
          "indexed": true,
          "internalType": "address"
        },
        {
          "name": "kpr",
          "type": "address",
          "indexed": true,
          "internalType": "address"
        },
        {
          "name": "ilkIndex",
          "type": "uint8",
          "indexed": true,
          "internalType": "uint8"
        },
        {
          "name": "repay",
          "type": "uint256",
          "indexed": false,
          "internalType": "uint256"
        },
        {
          "name": "gemOut",
          "type": "uint256",
          "indexed": false,
          "internalType": "uint256"
        }
      ],
      "anonymous": false
    },
    {
      "type": "error",
      "name": "AddressEmptyCode",
      "inputs": [
        {
          "name": "target",
          "type": "address",
          "internalType": "address"
        }
      ]
    },
    {
      "type": "error",
      "name": "AddressInsufficientBalance",
      "inputs": [
        {
          "name": "account",
          "type": "address",
          "internalType": "address"
        }
      ]
    },
    {
      "type": "error",
      "name": "ExchangeRateCannotBeZero",
      "inputs": []
    },
    {
      "type": "error",
      "name": "FailedInnerCall",
      "inputs": []
    },
    {
      "type": "error",
      "name": "InvalidLiquidationThreshold",
      "inputs": [
        {
          "name": "liquidationThreshold",
          "type": "uint256",
          "internalType": "uint256"
        }
      ]
    },
    {
      "type": "error",
      "name": "InvalidLiquidationThresholdsLength",
      "inputs": [
        {
          "name": "length",
          "type": "uint256",
          "internalType": "uint256"
        }
      ]
    },
    {
      "type": "error",
      "name": "InvalidMaxDiscount",
      "inputs": [
        {
          "name": "maxDiscount",
          "type": "uint256",
          "internalType": "uint256"
        }
      ]
    },
    {
      "type": "error",
      "name": "InvalidMaxDiscountsLength",
      "inputs": [
        {
          "name": "length",
          "type": "uint256",
          "internalType": "uint256"
        }
      ]
    },
    {
      "type": "error",
      "name": "InvalidReserveOraclesLength",
      "inputs": [
        {
          "name": "length",
          "type": "uint256",
          "internalType": "uint256"
        }
      ]
    },
    {
      "type": "error",
      "name": "InvalidTargetHealth",
      "inputs": [
        {
          "name": "targetHealth",
          "type": "uint256",
          "internalType": "uint256"
        }
      ]
    },
    {
      "type": "error",
      "name": "MathOverflowedMulDiv",
      "inputs": []
    },
    {
      "type": "error",
      "name": "NotScalingUp",
      "inputs": [
        {
          "name": "from",
          "type": "uint256",
          "internalType": "uint256"
        },
        {
          "name": "to",
          "type": "uint256",
          "internalType": "uint256"
        }
      ]
    },
    {
      "type": "error",
      "name": "SafeCastOverflowedUintToInt",
      "inputs": [
        {
          "name": "value",
          "type": "uint256",
          "internalType": "uint256"
        }
      ]
    },
    {
      "type": "error",
      "name": "SafeERC20FailedOperation",
      "inputs": [
        {
          "name": "token",
          "type": "address",
          "internalType": "address"
        }
      ]
    },
    {
      "type": "error",
      "name": "VaultIsNotUnsafe",
      "inputs": [
        {
          "name": "healthRatio",
          "type": "uint256",
          "internalType": "uint256"
        }
      ]
    }
  ],
  "bytecode": {
    "object": "0x6101806040523480156200001257600080fd5b50604051620020d5380380620020d583398101604081905262000035916200075b565b6001600160a01b03808816610140819052908716610120526040805163b64e000160e01b815290518992600092909163b64e0001916004808201926020929091908290030181865afa15801562000090573d6000803e3d6000fd5b505050506040513d601f19601f82011682018060405250810190620000b691906200082b565b8351909150808214620000eb578351604051636bac4d7b60e11b8152600401620000e291815260200190565b60405180910390fd5b8188511462000113578751604051632234626160e11b8152600401620000e291815260200190565b86518281146200013c57875160405163036eb1e960e41b8152600401620000e291815260200190565b60005b82811015620001bb576b033b2e3c9fd0803ce80000008682815181106200016a576200016a62000845565b602002602001015110620001b2578581815181106200018d576200018d62000845565b60200260200101516040516370d4111760e11b8152600401620000e291815260200190565b6001016200013f565b5060005b81811015620002bb57888181518110620001dd57620001dd62000845565b6020026020010151600003620002275788818151811062000202576200020262000845565b6020026020010151604051636546229560e11b8152600401620000e291815260200190565b6200028d86828151811062000240576200024062000845565b60200260200101516b033b2e3c9fd0803ce800000062000261919062000871565b8a838151811062000276576200027662000845565b60200260200101516200047460201b90919060201c565b881015620002b257604051630a10a28960e11b815260048101899052602401620000e2565b600101620001bf565b506b033b2e3c9fd0803ce8000000871015620002ee57604051630a10a28960e11b815260048101889052602401620000e2565b608087905260a0869052845185906000906200030e576200030e62000845565b602002602001015160c081815250506000846001600160a01b0316636f307dc36040518163ffffffff1660e01b8152600401602060405180830381865afa1580156200035e573d6000803e3d6000fd5b505050506040513d601f19601f8201168201806040525081019062000384919062000887565b60405163095ea7b360e01b81526001600160a01b03878116600483015260001960248301529192509082169063095ea7b3906044016020604051808303816000875af1158015620003d9573d6000803e3d6000fd5b505050506040513d601f19601f82011682018060405250810190620003ff9190620008a7565b506001600160a01b038116610160528851899060009062000424576200042462000845565b602002602001015160e081815250508960008151811062000449576200044962000845565b60209081029190910101516001600160a01b031661010052506200093e9a5050505050505050505050565b600062000491836b033b2e3c9fd0803ce80000008460016200049a565b90505b92915050565b600080620004aa868686620004f6565b9050620004b783620005c1565b8015620004d7575060008480620004d257620004d2620008cb565b868809115b15620004ed57620004ea600182620008e1565b90505b95945050505050565b60008383028160001985870982811083820303915050806000036200053257838281620005275762000527620008cb565b0492505050620005ba565b808411620005535760405163227bc15360e01b815260040160405180910390fd5b6000848688096000868103871696879004966002600389028118808a02820302808a02820302808a02820302808a02820302808a02820302808a02909103029181900381900460010186841190950394909402919094039290920491909117919091029150505b9392505050565b60006002826003811115620005da57620005da620008f7565b620005e691906200090d565b60ff166001149050919050565b6001600160a01b03811681146200060957600080fd5b50565b634e487b7160e01b600052604160045260246000fd5b604051601f8201601f191681016001600160401b03811182821017156200064d576200064d6200060c565b604052919050565b60006001600160401b038211156200067157620006716200060c565b5060051b60200190565b600082601f8301126200068d57600080fd5b81516020620006a6620006a08362000655565b62000622565b82815260059290921b84018101918181019086841115620006c657600080fd5b8286015b84811015620006ee578051620006e081620005f3565b8352918301918301620006ca565b509695505050505050565b600082601f8301126200070b57600080fd5b815160206200071e620006a08362000655565b82815260059290921b840181019181810190868411156200073e57600080fd5b8286015b84811015620006ee578051835291830191830162000742565b600080600080600080600060e0888a0312156200077757600080fd5b87516200078481620005f3565b60208901519097506200079781620005f3565b60408901519096506001600160401b0380821115620007b557600080fd5b620007c38b838c016200067b565b965060608a0151915080821115620007da57600080fd5b620007e88b838c01620006f9565b955060808a0151945060a08a0151935060c08a01519150808211156200080d57600080fd5b506200081c8a828b01620006f9565b91505092959891949750929550565b6000602082840312156200083e57600080fd5b5051919050565b634e487b7160e01b600052603260045260246000fd5b634e487b7160e01b600052601160045260246000fd5b818103818111156200049457620004946200085b565b6000602082840312156200089a57600080fd5b8151620005ba81620005f3565b600060208284031215620008ba57600080fd5b81518015158114620005ba57600080fd5b634e487b7160e01b600052601260045260246000fd5b808201808211156200049457620004946200085b565b634e487b7160e01b600052602160045260246000fd5b600060ff8316806200092f57634e487b7160e01b600052601260045260246000fd5b8060ff84160691505092915050565b60805160a05160c05160e051610100516101205161014051610160516116b462000a21600039600081816101f8015261085101526000818161014901528181610325015281816103b901528181610574015281816106d00152818161087b0152818161097401528181610ae101528181610b750152610d0a015260008181610197015261059d01526000818160a80152610e440152600081816101700152610e6b01526000818161021f0152610e8e015260008181610114015281816104ca0152610c740152600081816101d101528181610f1e0152610f7501526116b46000f3fe608060405234801561001057600080fd5b506004361061009e5760003560e01c806391b9b8271161006657806391b9b82714610192578063a0d5f599146101b9578063ae539533146101cc578063c5d664c6146101f3578063e34955691461021a57600080fd5b80631f5155c4146100a357806325840eda146100e757806349ed64341461010f5780637535d2461461014457806390a8ae9b1461016b575b600080fd5b6100ca7f000000000000000000000000000000000000000000000000000000000000000081565b6040516001600160a01b0390911681526020015b60405180910390f35b6100fa6100f536600461138c565b610241565b604080519283526020830191909152016100de565b6101367f000000000000000000000000000000000000000000000000000000000000000081565b6040519081526020016100de565b6100ca7f000000000000000000000000000000000000000000000000000000000000000081565b6101367f000000000000000000000000000000000000000000000000000000000000000081565b6100ca7f000000000000000000000000000000000000000000000000000000000000000081565b6101366101c73660046113cf565b610a5b565b6101367f000000000000000000000000000000000000000000000000000000000000000081565b6100ca7f000000000000000000000000000000000000000000000000000000000000000081565b6101367f000000000000000000000000000000000000000000000000000000000000000081565b6000806102766040518060a0016040528060008152602001600081526020016000815260200160008152602001600081525090565b6000610280610e0d565b905060006102f5601283604001516001600160a01b031663a36849776040518163ffffffff1660e01b8152600401602060405180830381865afa1580156102cb573d6000803e3d6000fd5b505050506040513d601f19601f820116820180604052508101906102ef9190611402565b90610eb5565b604051639a3db79b60e01b815260ff8a1660048201526001600160a01b03898116602483015291925060009182917f000000000000000000000000000000000000000000000000000000000000000090911690639a3db79b906044016040805180830381865afa15801561036d573d6000803e3d6000fd5b505050506040513d601f19601f82011682018060405250810190610391919061141b565b604051633c04b54760e01b815260ff8d16600482015291935091506000906001600160a01b037f00000000000000000000000000000000000000000000000000000000000000001690633c04b54790602401602060405180830381865afa158015610400573d6000803e3d6000fd5b505050506040513d601f19601f820116820180604052508101906104249190611402565b9050836000036104475760405163150c57e560e01b815260040160405180910390fd5b84516000906104609061045a8787611455565b90610eca565b905060006104786104718486611455565b8390610ee2565b9050676765c793fa10079d601b1b81106104ad57604051630df91f7b60e11b8152600481018290526024015b60405180910390fd5b60006104c482676765c793fa10079d601b1b61146c565b6104ee907f000000000000000000000000000000000000000000000000000000000000000061147f565b90508760200151811115610506578760200151610508565b805b905061052961052282676765c793fa10079d601b1b61146c565b8890610efa565b60808a015261054561053b8587611455565b8951859084610f14565b89525061055490508284611455565b875111156106b85760408701839052602087018490526001600160a01b037f00000000000000000000000000000000000000000000000000000000000000001663979397438d8d7f0000000000000000000000000000000000000000000000000000000000000000806105c68a611492565b8d604001516105d490611492565b6040516001600160e01b031960e089901b16815260ff90961660048701526001600160a01b039485166024870152928416604486015292166064840152608483019190915260a482015260c401600060405180830381600087803b15801561063b57600080fd5b505af115801561064f573d6000803e3d6000fd5b5050506040808901516020808b015183519283529082015260ff8f1692506001600160a01b038d169133917f54f9b006b19a44694e56b0d6a57f34c420bf88da7373f9d0f3380e5f4b70951e910160405180910390a46000809850985050505050505050610a53565b604051638ba7650760e01b815260ff8d1660048201527f00000000000000000000000000000000000000000000000000000000000000006001600160a01b031690638ba7650790602401602060405180830381865afa15801561071f573d6000803e3d6000fd5b505050506040513d601f19601f820116820180604052508101906107439190611402565b875161074f8486611455565b610759919061146c565b1015610795576107698284611455565b87526040870183905260808701516107818385611455565b61078b91906114c4565b60208801526107f8565b86516107a29083906114c4565b604088015286516000906107b79084906114d8565b11156107cf578660400180516107cc906114ec565b90525b608087015187516107e091906114c4565b602088015260408701516107f5908390611455565b87525b865160009061081390676765c793fa10079d601b1b906114c4565b90506000676765c793fa10079d601b1b896000015161083291906114d8565b111561084457610841816114ec565b90505b6108796001600160a01b037f000000000000000000000000000000000000000000000000000000000000000016333084610fb0565b7f00000000000000000000000000000000000000000000000000000000000000006001600160a01b031663979397438e8e8e306108b98e60200151611010565b6108c290611492565b6108cf8f60400151611010565b6108d890611492565b6040516001600160e01b031960e089901b16815260ff90961660048701526001600160a01b039485166024870152928416604486015292166064840152608483019190915260a482015260c401600060405180830381600087803b15801561093f57600080fd5b505af1158015610953573d6000803e3d6000fd5b50508951604051631b063dfb60e31b815230600482015260248101919091527f00000000000000000000000000000000000000000000000000000000000000006001600160a01b0316925063d831efd89150604401600060405180830381600087803b1580156109c257600080fd5b505af11580156109d6573d6000803e3d6000fd5b505050508c60ff168b6001600160a01b0316336001600160a01b03167f54f9b006b19a44694e56b0d6a57f34c420bf88da7373f9d0f3380e5f4b70951e8b604001518c60200151604051610a34929190918252602082015260400190565b60405180910390a4876000015188602001519950995050505050505050505b935093915050565b600080610a66610e0d565b90506000610ab1601283604001516001600160a01b031663a36849776040518163ffffffff1660e01b8152600401602060405180830381865afa1580156102cb573d6000803e3d6000fd5b604051639a3db79b60e01b815260ff871660048201526001600160a01b03868116602483015291925060009182917f000000000000000000000000000000000000000000000000000000000000000090911690639a3db79b906044016040805180830381865afa158015610b29573d6000803e3d6000fd5b505050506040513d601f19601f82011682018060405250810190610b4d919061141b565b604051633c04b54760e01b815260ff8a16600482015291935091506000906001600160a01b037f00000000000000000000000000000000000000000000000000000000000000001690633c04b54790602401602060405180830381865afa158015610bbc573d6000803e3d6000fd5b505050506040513d601f19601f82011682018060405250810190610be09190611402565b905083600003610c035760405163150c57e560e01b815260040160405180910390fd5b8451600090610c169061045a8787611455565b90506000610c276104718486611455565b9050676765c793fa10079d601b1b8110610c5757604051630df91f7b60e11b8152600481018290526024016104a4565b6000610c6e82676765c793fa10079d601b1b61146c565b610c98907f000000000000000000000000000000000000000000000000000000000000000061147f565b90508760200151811115610cb0578760200151610cb2565b805b90506000610ccd610cc38688611455565b8a51869085610f14565b9050610cd98587611455565b811115610cf25760009950505050505050505050610e07565b604051638ba7650760e01b815260ff8d1660048201527f00000000000000000000000000000000000000000000000000000000000000006001600160a01b031690638ba7650790602401602060405180830381865afa158015610d59573d6000803e3d6000fd5b505050506040513d601f19601f82011682018060405250810190610d7d9190611402565b81610d888789611455565b610d92919061146c565b1015610da557610da28587611455565b90505b6000610dbc676765c793fa10079d601b1b836114d8565b11610ddb57610dd6676765c793fa10079d601b1b826114c4565b610dfb565b610df0676765c793fa10079d601b1b826114c4565b610dfb90600161147f565b99505050505050505050505b92915050565b610e3a6040518060600160405280600081526020016000815260200160006001600160a01b031681525090565b6001600160a01b037f00000000000000000000000000000000000000000000000000000000000000001660408201527f000000000000000000000000000000000000000000000000000000000000000081527f0000000000000000000000000000000000000000000000000000000000000000602082015290565b6000610ec38383601b611041565b9392505050565b6000610ec38383676765c793fa10079d601b1b611094565b6000610ec383676765c793fa10079d601b1b84611094565b6000610ec38383676765c793fa10079d601b1b6001611158565b60008084610f42877f0000000000000000000000000000000000000000000000000000000000000000610efa565b610f4c919061146c565b90506000610f6f610f6885676765c793fa10079d601b1b61146c565b86906111a9565b610f99907f000000000000000000000000000000000000000000000000000000000000000061146c565b9050610fa582826111a9565b979650505050505050565b604080516001600160a01b0385811660248301528416604482015260648082018490528251808303909101815260849091019091526020810180516001600160e01b03166323b872dd60e01b17905261100a9085906111c3565b50505050565b60006001600160ff1b0382111561103d5760405163123baf0360e11b8152600481018390526024016104a4565b5090565b600081831061106d57604051631a065cf160e01b815260048101849052602481018390526044016104a4565b611077838361146c565b61108290600a6115e9565b61108c9085611455565b949350505050565b60008383028160001985870982811083820303915050806000036110cb578382816110c1576110c16114ae565b0492505050610ec3565b8084116110eb5760405163227bc15360e01b815260040160405180910390fd5b6000848688096000868103871696879004966002600389028118808a02820302808a02820302808a02820302808a02820302808a02820302808a02909103029181900381900460010186841190950394909402919094039290920491909117919091029150509392505050565b600080611166868686611094565b90506111718361122b565b801561118d575060008480611188576111886114ae565b868809115b156111a05761119d60018261147f565b90505b95945050505050565b6000610ec383676765c793fa10079d601b1b846001611158565b60006111d86001600160a01b03841683611258565b905080516000141580156111fd5750808060200190518101906111fb91906115f5565b155b1561122657604051635274afe760e01b81526001600160a01b03841660048201526024016104a4565b505050565b6000600282600381111561124157611241611617565b61124b919061162d565b60ff166001149050919050565b6060610ec38383600084600080856001600160a01b0316848660405161127e919061164f565b60006040518083038185875af1925050503d80600081146112bb576040519150601f19603f3d011682016040523d82523d6000602084013e6112c0565b606091505b50915091506112d08683836112da565b9695505050505050565b6060826112ef576112ea82611336565b610ec3565b815115801561130657506001600160a01b0384163b155b1561132f57604051639996b31560e01b81526001600160a01b03851660048201526024016104a4565b5080610ec3565b8051156113465780518082602001fd5b604051630a12f52160e11b815260040160405180910390fd5b803560ff8116811461137057600080fd5b919050565b80356001600160a01b038116811461137057600080fd5b6000806000606084860312156113a157600080fd5b6113aa8461135f565b92506113b860208501611375565b91506113c660408501611375565b90509250925092565b600080604083850312156113e257600080fd5b6113eb8361135f565b91506113f960208401611375565b90509250929050565b60006020828403121561141457600080fd5b5051919050565b6000806040838503121561142e57600080fd5b505080516020909101519092909150565b634e487b7160e01b600052601160045260246000fd5b8082028115828204841417610e0757610e0761143f565b81810381811115610e0757610e0761143f565b80820180821115610e0757610e0761143f565b6000600160ff1b82016114a7576114a761143f565b5060000390565b634e487b7160e01b600052601260045260246000fd5b6000826114d3576114d36114ae565b500490565b6000826114e7576114e76114ae565b500690565b6000600182016114fe576114fe61143f565b5060010190565b600181815b808511156115405781600019048211156115265761152661143f565b8085161561153357918102915b93841c939080029061150a565b509250929050565b60008261155757506001610e07565b8161156457506000610e07565b816001811461157a5760028114611584576115a0565b6001915050610e07565b60ff8411156115955761159561143f565b50506001821b610e07565b5060208310610133831016604e8410600b84101617156115c3575081810a610e07565b6115cd8383611505565b80600019048211156115e1576115e161143f565b029392505050565b6000610ec38383611548565b60006020828403121561160757600080fd5b81518015158114610ec357600080fd5b634e487b7160e01b600052602160045260246000fd5b600060ff831680611640576116406114ae565b8060ff84160691505092915050565b6000825160005b818110156116705760208186018101518583015201611656565b50600092019182525091905056fea264697066735822122090e79433e45732d9e1281851ecb21ae689dcf1125082157e44a2409a2b6120d264736f6c63430008150033",
    "linkReferences": {}
  },
  "methodIdentifiers": {
    "BASE_DISCOUNT()": "49ed6434",
    "LIQUIDATION_THRESHOLD()": "90a8ae9b",
    "MAX_DISCOUNT()": "e3495569",
    "POOL()": "7535d246",
    "PROTOCOL()": "91b9b827",
    "RESERVE_ORACLE()": "1f5155c4",
    "TARGET_HEALTH()": "ae539533",
    "UNDERLYING()": "c5d664c6",
    "getRepayAmt(uint8,address)": "a0d5f599",
    "liquidate(uint8,address,address)": "25840eda"
  },
  "id": 99
}