{
  "abi": [
    {
      "inputs": [
        {
          "internalType": "address",
          "name": "_protocolFeed",
          "type": "address"
        },
        {
          "internalType": "uint8",
          "name": "_ilkIndex",
          "type": "uint8"
        },
        {
          "internalType": "address[]",
          "name": "_feeds",
          "type": "address[]"
        },
        {
          "internalType": "uint8",
          "name": "_quorum",
          "type": "uint8"
        },
        {
          "internalType": "uint256",
          "name": "_maxChange",
          "type": "uint256"
        }
      ],
      "stateMutability": "nonpayable",
      "type": "constructor"
    },
    {
      "inputs": [
        {
          "internalType": "uint256",
          "name": "length",
          "type": "uint256"
        }
      ],
      "name": "InvalidFeedLength",
      "type": "error"
    },
    {
      "inputs": [
        {
          "internalType": "uint256",
          "name": "exchangeRate",
          "type": "uint256"
        }
      ],
      "name": "InvalidInitialization",
      "type": "error"
    },
    {
      "inputs": [
        {
          "internalType": "uint8",
          "name": "quorum",
          "type": "uint8"
        }
      ],
      "name": "InvalidQuorum",
      "type": "error"
    },
    {
      "inputs": [],
      "name": "MathOverflowedMulDiv",
      "type": "error"
    },
    {
      "anonymous": false,
      "inputs": [
        {
          "indexed": false,
          "internalType": "uint256",
          "name": "exchangeRate",
          "type": "uint256"
        }
      ],
      "name": "UpdateExchangeRate",
      "type": "event"
    },
    {
      "inputs": [],
      "name": "FEED0",
      "outputs": [
        {
          "internalType": "contract IReserveFeed",
          "name": "",
          "type": "address"
        }
      ],
      "stateMutability": "view",
      "type": "function"
    },
    {
      "inputs": [],
      "name": "FEED1",
      "outputs": [
        {
          "internalType": "contract IReserveFeed",
          "name": "",
          "type": "address"
        }
      ],
      "stateMutability": "view",
      "type": "function"
    },
    {
      "inputs": [],
      "name": "FEED2",
      "outputs": [
        {
          "internalType": "contract IReserveFeed",
          "name": "",
          "type": "address"
        }
      ],
      "stateMutability": "view",
      "type": "function"
    },
    {
      "inputs": [],
      "name": "ILK_INDEX",
      "outputs": [
        {
          "internalType": "uint8",
          "name": "",
          "type": "uint8"
        }
      ],
      "stateMutability": "view",
      "type": "function"
    },
    {
      "inputs": [],
      "name": "MAX_CHANGE",
      "outputs": [
        {
          "internalType": "uint256",
          "name": "",
          "type": "uint256"
        }
      ],
      "stateMutability": "view",
      "type": "function"
    },
    {
      "inputs": [],
      "name": "QUORUM",
      "outputs": [
        {
          "internalType": "uint8",
          "name": "",
          "type": "uint8"
        }
      ],
      "stateMutability": "view",
      "type": "function"
    },
    {
      "inputs": [],
      "name": "currentExchangeRate",
      "outputs": [
        {
          "internalType": "uint256",
          "name": "",
          "type": "uint256"
        }
      ],
      "stateMutability": "view",
      "type": "function"
    },
    {
      "inputs": [],
      "name": "getProtocolExchangeRate",
      "outputs": [
        {
          "internalType": "uint256",
          "name": "",
          "type": "uint256"
        }
      ],
      "stateMutability": "view",
      "type": "function"
    },
    {
      "inputs": [],
      "name": "protocolFeed",
      "outputs": [
        {
          "internalType": "address",
          "name": "",
          "type": "address"
        }
      ],
      "stateMutability": "view",
      "type": "function"
    },
    {
      "inputs": [],
      "name": "updateExchangeRate",
      "outputs": [],
      "stateMutability": "nonpayable",
      "type": "function"
    }
  ],
  "bytecode": {
    "object": "0x6101406040523480156200001257600080fd5b50604051620012103803806200121083398101604081905262000035916200060b565b83838383600360ff16835111156200006f578251604051635a92b8ed60e11b81526004016200006691815260200190565b60405180910390fd5b600360ff831611156200009b57604051634c7795ff60e01b815260ff8316600482015260240162000066565b60ff808516608052821660a05260c081905282518390600090620000c357620000c362000722565b60200260200101516001600160a01b031660e0816001600160a01b03168152505082600181518110620000fa57620000fa62000722565b60200260200101516001600160a01b0316610100816001600160a01b0316815250508260028151811062000132576200013262000722565b60209081029190910101516001600160a01b0390811661012052600180546001600160a01b031916918b16919091179055506200017392506200017e915050565b505050505062000797565b620001a06200018c620001cd565b6080516200019a9062000243565b620005b1565b600081815503620001cb576000546040516302f35f8360e01b81526004016200006691815260200190565b565b600154604080516333cd77e760e11b815290516000926001600160a01b03169163679aefce9160048083019260209291908290030181865afa15801562000218573d6000803e3d6000fd5b505050506040513d601f19601f820116820180604052508101906200023e919062000738565b905090565b600060a05160ff166000036200025c5750600019919050565b60a05160ff16600103620002e25760e051604051634d02a3f760e01b815260ff841660048201526001600160a01b0390911690634d02a3f790602401602060405180830381865afa158015620002b6573d6000803e3d6000fd5b505050506040513d601f19601f82011682018060405250810190620002dc919062000738565b92915050565b60a05160ff16600203620004055760e051604051634d02a3f760e01b815260ff841660048201526000916001600160a01b031690634d02a3f790602401602060405180830381865afa1580156200033d573d6000803e3d6000fd5b505050506040513d601f19601f8201168201806040525081019062000363919062000738565b61010051604051634d02a3f760e01b815260ff861660048201529192506000916001600160a01b0390911690634d02a3f790602401602060405180830381865afa158015620003b6573d6000803e3d6000fd5b505050506040513d601f19601f82011682018060405250810190620003dc919062000738565b60a05190915060ff16620003f1828462000752565b620003fd919062000774565b949350505050565b60a05160ff16600303620005ac5760e051604051634d02a3f760e01b815260ff841660048201526000916001600160a01b031690634d02a3f790602401602060405180830381865afa15801562000460573d6000803e3d6000fd5b505050506040513d601f19601f8201168201806040525081019062000486919062000738565b61010051604051634d02a3f760e01b815260ff861660048201529192506000916001600160a01b0390911690634d02a3f790602401602060405180830381865afa158015620004d9573d6000803e3d6000fd5b505050506040513d601f19601f82011682018060405250810190620004ff919062000738565b61012051604051634d02a3f760e01b815260ff871660048201529192506000916001600160a01b0390911690634d02a3f790602401602060405180830381865afa15801562000552573d6000803e3d6000fd5b505050506040513d601f19601f8201168201806040525081019062000578919062000738565b60a05190915060ff16816200058e848662000752565b6200059a919062000752565b620005a6919062000774565b93505050505b919050565b6000818310620005c25781620005c4565b825b9392505050565b80516001600160a01b0381168114620005ac57600080fd5b805160ff81168114620005ac57600080fd5b634e487b7160e01b600052604160045260246000fd5b600080600080600060a086880312156200062457600080fd5b6200062f86620005cb565b9450602062000640818801620005e3565b60408801519095506001600160401b03808211156200065e57600080fd5b818901915089601f8301126200067357600080fd5b815181811115620006885762000688620005f5565b8060051b604051601f19603f83011681018181108582111715620006b057620006b0620005f5565b60405291825284820192508381018501918c831115620006cf57600080fd5b938501935b82851015620006f857620006e885620005cb565b84529385019392850192620006d4565b8098505050505050506200070f60608701620005e3565b9150608086015190509295509295909350565b634e487b7160e01b600052603260045260246000fd5b6000602082840312156200074b57600080fd5b5051919050565b80820180821115620002dc57634e487b7160e01b600052601160045260246000fd5b6000826200079257634e487b7160e01b600052601260045260246000fd5b500490565b60805160a05160c05160e05161010051610120516109c8620008486000396000818161014201526107310152600081816101a70152818161051401526106a001526000818161011b015281816103bc0152818161047b0152610607015260008181610169015261024001526000818160e2015281816103470152818161037b0152818161043701528181610585015281816105c301526107a20152600081816101ce015261020d01526109c86000f3fe608060405234801561001057600080fd5b506004361061009e5760003560e01c8063954a53f911610066578063954a53f914610164578063a368497714610199578063bc04cb0f146101a2578063ed0cee97146101c9578063f13597a6146101f057600080fd5b806302ce728f146100a357806324493565146100ad5780632e80d9b6146100dd57806336c03936146101165780634be39f2f1461013d575b600080fd5b6100ab6101f8565b005b6001546100c0906001600160a01b031681565b6040516001600160a01b0390911681526020015b60405180910390f35b6101047f000000000000000000000000000000000000000000000000000000000000000081565b60405160ff90911681526020016100d4565b6100c07f000000000000000000000000000000000000000000000000000000000000000081565b6100c07f000000000000000000000000000000000000000000000000000000000000000081565b61018b7f000000000000000000000000000000000000000000000000000000000000000081565b6040519081526020016100d4565b61018b60005481565b6100c07f000000000000000000000000000000000000000000000000000000000000000081565b6101047f000000000000000000000000000000000000000000000000000000000000000081565b61018b6102c6565b60008054906102366102086102d5565b6102317f0000000000000000000000000000000000000000000000000000000000000000610343565b6107ec565b90506000610264837f0000000000000000000000000000000000000000000000000000000000000000610804565b9050600061028583610276848761091b565b610280858861092e565b61081d565b60008190556040518181529091507f4fc1b45960547ee95894b08a284c3c066cf5aca706a7420639c42c3ec2e118a49060200160405180910390a150505050565b60006102d06102d5565b905090565b600154604080516333cd77e760e11b815290516000926001600160a01b03169163679aefce9160048083019260209291908290030181865afa15801561031f573d6000803e3d6000fd5b505050506040513d601f19601f820116820180604052508101906102d09190610941565b60007f000000000000000000000000000000000000000000000000000000000000000060ff166000036103795750600019919050565b7f000000000000000000000000000000000000000000000000000000000000000060ff1660010361043557604051634d02a3f760e01b815260ff831660048201527f00000000000000000000000000000000000000000000000000000000000000006001600160a01b031690634d02a3f790602401602060405180830381865afa15801561040b573d6000803e3d6000fd5b505050506040513d601f19601f8201168201806040525081019061042f9190610941565b92915050565b7f000000000000000000000000000000000000000000000000000000000000000060ff166002036105c157604051634d02a3f760e01b815260ff831660048201526000907f00000000000000000000000000000000000000000000000000000000000000006001600160a01b031690634d02a3f790602401602060405180830381865afa1580156104ca573d6000803e3d6000fd5b505050506040513d601f19601f820116820180604052508101906104ee9190610941565b604051634d02a3f760e01b815260ff851660048201529091506000906001600160a01b037f00000000000000000000000000000000000000000000000000000000000000001690634d02a3f790602401602060405180830381865afa15801561055b573d6000803e3d6000fd5b505050506040513d601f19601f8201168201806040525081019061057f9190610941565b905060ff7f0000000000000000000000000000000000000000000000000000000000000000166105af828461092e565b6105b99190610970565b949350505050565b7f000000000000000000000000000000000000000000000000000000000000000060ff166003036107e757604051634d02a3f760e01b815260ff831660048201526000907f00000000000000000000000000000000000000000000000000000000000000006001600160a01b031690634d02a3f790602401602060405180830381865afa158015610656573d6000803e3d6000fd5b505050506040513d601f19601f8201168201806040525081019061067a9190610941565b604051634d02a3f760e01b815260ff851660048201529091506000906001600160a01b037f00000000000000000000000000000000000000000000000000000000000000001690634d02a3f790602401602060405180830381865afa1580156106e7573d6000803e3d6000fd5b505050506040513d601f19601f8201168201806040525081019061070b9190610941565b604051634d02a3f760e01b815260ff861660048201529091506000906001600160a01b037f00000000000000000000000000000000000000000000000000000000000000001690634d02a3f790602401602060405180830381865afa158015610778573d6000803e3d6000fd5b505050506040513d601f19601f8201168201806040525081019061079c9190610941565b905060ff7f000000000000000000000000000000000000000000000000000000000000000016816107cd848661092e565b6107d7919061092e565b6107e19190610970565b93505050505b919050565b60008183106107fb57816107fd565b825b9392505050565b60006107fd83836b033b2e3c9fd0803ce8000000610832565b60006105b98361082d84876107ec565b6108f6565b60008383028160001985870982811083820303915050806000036108695783828161085f5761085f61095a565b04925050506107fd565b8084116108895760405163227bc15360e01b815260040160405180910390fd5b6000848688096000868103871696879004966002600389028118808a02820302808a02820302808a02820302808a02820302808a02820302808a02909103029181900381900460010186841190950394909402919094039290920491909117919091029150509392505050565b60008183116107fb57816107fd565b634e487b7160e01b600052601160045260246000fd5b8181038181111561042f5761042f610905565b8082018082111561042f5761042f610905565b60006020828403121561095357600080fd5b5051919050565b634e487b7160e01b600052601260045260246000fd5b60008261098d57634e487b7160e01b600052601260045260246000fd5b50049056fea26469706673582212204ce84dcf4ef388ac553d9710eb2117c9c9605f3e0b356a54dada700e85c42a1464736f6c63430008150033",
    "linkReferences": {}
  },
  "methodIdentifiers": {
    "FEED0()": "36c03936",
    "FEED1()": "bc04cb0f",
    "FEED2()": "4be39f2f",
    "ILK_INDEX()": "ed0cee97",
    "MAX_CHANGE()": "954a53f9",
    "QUORUM()": "2e80d9b6",
    "currentExchangeRate()": "a3684977",
    "getProtocolExchangeRate()": "f13597a6",
    "protocolFeed()": "24493565",
    "updateExchangeRate()": "02ce728f"
  },
  "id": 130
}