{
  "abi": [
    {
      "inputs": [],
      "stateMutability": "nonpayable",
      "type": "constructor"
    },
    {
      "inputs": [],
      "name": "Line",
      "outputs": [
        {
          "internalType": "uint256",
          "name": "",
          "type": "uint256"
        }
      ],
      "stateMutability": "view",
      "type": "function"
    },
    {
      "inputs": [
        {
          "internalType": "address",
          "name": "",
          "type": "address"
        }
      ],
      "name": "alleth",
      "outputs": [
        {
          "internalType": "uint256",
          "name": "",
          "type": "uint256"
        }
      ],
      "stateMutability": "view",
      "type": "function"
    },
    {
      "inputs": [],
      "name": "cage",
      "outputs": [],
      "stateMutability": "nonpayable",
      "type": "function"
    },
    {
      "inputs": [
        {
          "internalType": "address",
          "name": "",
          "type": "address"
        },
        {
          "internalType": "address",
          "name": "",
          "type": "address"
        }
      ],
      "name": "can",
      "outputs": [
        {
          "internalType": "uint256",
          "name": "",
          "type": "uint256"
        }
      ],
      "stateMutability": "view",
      "type": "function"
    },
    {
      "inputs": [],
      "name": "debt",
      "outputs": [
        {
          "internalType": "uint256",
          "name": "",
          "type": "uint256"
        }
      ],
      "stateMutability": "view",
      "type": "function"
    },
    {
      "inputs": [
        {
          "internalType": "address",
          "name": "usr",
          "type": "address"
        }
      ],
      "name": "deny",
      "outputs": [],
      "stateMutability": "nonpayable",
      "type": "function"
    },
    {
      "inputs": [
        {
          "internalType": "bytes32",
          "name": "ilk",
          "type": "bytes32"
        },
        {
          "internalType": "bytes32",
          "name": "what",
          "type": "bytes32"
        },
        {
          "internalType": "uint256",
          "name": "data",
          "type": "uint256"
        }
      ],
      "name": "file",
      "outputs": [],
      "stateMutability": "nonpayable",
      "type": "function"
    },
    {
      "inputs": [
        {
          "internalType": "bytes32",
          "name": "what",
          "type": "bytes32"
        },
        {
          "internalType": "uint256",
          "name": "data",
          "type": "uint256"
        }
      ],
      "name": "file",
      "outputs": [],
      "stateMutability": "nonpayable",
      "type": "function"
    },
    {
      "inputs": [
        {
          "internalType": "bytes32",
          "name": "ilk",
          "type": "bytes32"
        },
        {
          "internalType": "address",
          "name": "src",
          "type": "address"
        },
        {
          "internalType": "address",
          "name": "dst",
          "type": "address"
        },
        {
          "internalType": "uint256",
          "name": "wad",
          "type": "uint256"
        }
      ],
      "name": "flux",
      "outputs": [],
      "stateMutability": "nonpayable",
      "type": "function"
    },
    {
      "inputs": [
        {
          "internalType": "bytes32",
          "name": "i",
          "type": "bytes32"
        },
        {
          "internalType": "address",
          "name": "u",
          "type": "address"
        },
        {
          "internalType": "int256",
          "name": "rate",
          "type": "int256"
        }
      ],
      "name": "fold",
      "outputs": [],
      "stateMutability": "nonpayable",
      "type": "function"
    },
    {
      "inputs": [
        {
          "internalType": "bytes32",
          "name": "ilk",
          "type": "bytes32"
        },
        {
          "internalType": "address",
          "name": "src",
          "type": "address"
        },
        {
          "internalType": "address",
          "name": "dst",
          "type": "address"
        },
        {
          "internalType": "int256",
          "name": "dink",
          "type": "int256"
        },
        {
          "internalType": "int256",
          "name": "dart",
          "type": "int256"
        }
      ],
      "name": "fork",
      "outputs": [],
      "stateMutability": "nonpayable",
      "type": "function"
    },
    {
      "inputs": [
        {
          "internalType": "bytes32",
          "name": "i",
          "type": "bytes32"
        },
        {
          "internalType": "address",
          "name": "u",
          "type": "address"
        },
        {
          "internalType": "address",
          "name": "v",
          "type": "address"
        },
        {
          "internalType": "address",
          "name": "w",
          "type": "address"
        },
        {
          "internalType": "int256",
          "name": "dink",
          "type": "int256"
        },
        {
          "internalType": "int256",
          "name": "dart",
          "type": "int256"
        }
      ],
      "name": "frob",
      "outputs": [],
      "stateMutability": "nonpayable",
      "type": "function"
    },
    {
      "inputs": [
        {
          "internalType": "bytes32",
          "name": "i",
          "type": "bytes32"
        },
        {
          "internalType": "address",
          "name": "u",
          "type": "address"
        },
        {
          "internalType": "int256",
          "name": "wad",
          "type": "int256"
        }
      ],
      "name": "frobShares",
      "outputs": [],
      "stateMutability": "nonpayable",
      "type": "function"
    },
    {
      "inputs": [
        {
          "internalType": "bytes32",
          "name": "",
          "type": "bytes32"
        },
        {
          "internalType": "address",
          "name": "",
          "type": "address"
        }
      ],
      "name": "gem",
      "outputs": [
        {
          "internalType": "uint256",
          "name": "",
          "type": "uint256"
        }
      ],
      "stateMutability": "view",
      "type": "function"
    },
    {
      "inputs": [
        {
          "internalType": "bytes32",
          "name": "i",
          "type": "bytes32"
        },
        {
          "internalType": "address",
          "name": "u",
          "type": "address"
        },
        {
          "internalType": "address",
          "name": "v",
          "type": "address"
        },
        {
          "internalType": "address",
          "name": "w",
          "type": "address"
        },
        {
          "internalType": "int256",
          "name": "dink",
          "type": "int256"
        },
        {
          "internalType": "int256",
          "name": "dart",
          "type": "int256"
        }
      ],
      "name": "grab",
      "outputs": [],
      "stateMutability": "nonpayable",
      "type": "function"
    },
    {
      "inputs": [
        {
          "internalType": "uint256",
          "name": "rad",
          "type": "uint256"
        }
      ],
      "name": "heal",
      "outputs": [],
      "stateMutability": "nonpayable",
      "type": "function"
    },
    {
      "inputs": [
        {
          "internalType": "address",
          "name": "usr",
          "type": "address"
        }
      ],
      "name": "hope",
      "outputs": [],
      "stateMutability": "nonpayable",
      "type": "function"
    },
    {
      "inputs": [
        {
          "internalType": "bytes32",
          "name": "",
          "type": "bytes32"
        }
      ],
      "name": "ilks",
      "outputs": [
        {
          "internalType": "uint256",
          "name": "Art",
          "type": "uint256"
        },
        {
          "internalType": "uint256",
          "name": "Ink",
          "type": "uint256"
        },
        {
          "internalType": "uint256",
          "name": "Shares",
          "type": "uint256"
        },
        {
          "internalType": "uint256",
          "name": "rate",
          "type": "uint256"
        },
        {
          "internalType": "uint256",
          "name": "spot",
          "type": "uint256"
        },
        {
          "internalType": "uint256",
          "name": "line",
          "type": "uint256"
        },
        {
          "internalType": "uint256",
          "name": "dust",
          "type": "uint256"
        }
      ],
      "stateMutability": "view",
      "type": "function"
    },
    {
      "inputs": [
        {
          "internalType": "bytes32",
          "name": "ilk",
          "type": "bytes32"
        }
      ],
      "name": "init",
      "outputs": [],
      "stateMutability": "nonpayable",
      "type": "function"
    },
    {
      "inputs": [],
      "name": "live",
      "outputs": [
        {
          "internalType": "uint256",
          "name": "",
          "type": "uint256"
        }
      ],
      "stateMutability": "view",
      "type": "function"
    },
    {
      "inputs": [
        {
          "internalType": "address",
          "name": "src",
          "type": "address"
        },
        {
          "internalType": "address",
          "name": "dst",
          "type": "address"
        },
        {
          "internalType": "uint256",
          "name": "rad",
          "type": "uint256"
        }
      ],
      "name": "move",
      "outputs": [],
      "stateMutability": "nonpayable",
      "type": "function"
    },
    {
      "inputs": [
        {
          "internalType": "address",
          "name": "usr",
          "type": "address"
        }
      ],
      "name": "nope",
      "outputs": [],
      "stateMutability": "nonpayable",
      "type": "function"
    },
    {
      "inputs": [
        {
          "internalType": "address",
          "name": "usr",
          "type": "address"
        }
      ],
      "name": "rely",
      "outputs": [],
      "stateMutability": "nonpayable",
      "type": "function"
    },
    {
      "inputs": [
        {
          "internalType": "address",
          "name": "",
          "type": "address"
        }
      ],
      "name": "sin",
      "outputs": [
        {
          "internalType": "uint256",
          "name": "",
          "type": "uint256"
        }
      ],
      "stateMutability": "view",
      "type": "function"
    },
    {
      "inputs": [
        {
          "internalType": "bytes32",
          "name": "ilk",
          "type": "bytes32"
        },
        {
          "internalType": "address",
          "name": "usr",
          "type": "address"
        },
        {
          "internalType": "int256",
          "name": "wad",
          "type": "int256"
        }
      ],
      "name": "slip",
      "outputs": [],
      "stateMutability": "nonpayable",
      "type": "function"
    },
    {
      "inputs": [
        {
          "internalType": "address",
          "name": "u",
          "type": "address"
        },
        {
          "internalType": "address",
          "name": "v",
          "type": "address"
        },
        {
          "internalType": "uint256",
          "name": "rad",
          "type": "uint256"
        }
      ],
      "name": "suck",
      "outputs": [],
      "stateMutability": "nonpayable",
      "type": "function"
    },
    {
      "inputs": [
        {
          "internalType": "bytes32",
          "name": "",
          "type": "bytes32"
        },
        {
          "internalType": "address",
          "name": "",
          "type": "address"
        }
      ],
      "name": "urns",
      "outputs": [
        {
          "internalType": "uint256",
          "name": "ink",
          "type": "uint256"
        },
        {
          "internalType": "uint256",
          "name": "art",
          "type": "uint256"
        },
        {
          "internalType": "uint256",
          "name": "shares",
          "type": "uint256"
        }
      ],
      "stateMutability": "view",
      "type": "function"
    },
    {
      "inputs": [],
      "name": "vice",
      "outputs": [
        {
          "internalType": "uint256",
          "name": "",
          "type": "uint256"
        }
      ],
      "stateMutability": "view",
      "type": "function"
    },
    {
      "inputs": [
        {
          "internalType": "address",
          "name": "",
          "type": "address"
        }
      ],
      "name": "wards",
      "outputs": [
        {
          "internalType": "uint256",
          "name": "",
          "type": "uint256"
        }
      ],
      "stateMutability": "view",
      "type": "function"
    },
    {
      "inputs": [
        {
          "internalType": "address",
          "name": "bit",
          "type": "address"
        },
        {
          "internalType": "address",
          "name": "usr",
          "type": "address"
        }
      ],
      "name": "wish",
      "outputs": [
        {
          "internalType": "bool",
          "name": "",
          "type": "bool"
        }
      ],
      "stateMutability": "view",
      "type": "function"
    }
  ],
  "bytecode": {
    "object": "0x608060405234801561001057600080fd5b50336000908152602081905260409020600190819055600a55612372806100386000396000f3fe608060405234801561001057600080fd5b50600436106101da5760003560e01c8063870c616d11610104578063babe8a3f116100a2578063dc4d20fa11610071578063dc4d20fa14610657578063f059212a1461067d578063f24e23eb146106a3578063f37ac61c146106d9576101da565b8063babe8a3f1461059e578063bb35783b146105a6578063bf353dbb146105dc578063d9638d3614610602576101da565b806395d89e94116100de57806395d89e94146104ee5780639c52a7f114610520578063a3b22fc414610546578063b65337df1461056c576101da565b8063870c616d1461046257806391bc49f1146104a4578063957aa58c146104e6576101da565b80634538c4eb1161017c57806374223e221161014b57806374223e221461037a57806376088703146103a05780637bab3f40146103e85780637cdd3fde14610430576101da565b80634538c4eb146102e25780636111be2e1461031057806365fae35e1461034c5780636924500914610372576101da565b80632424be5c116101b85780632424be5c1461025057806329ae81141461029a5780632d61a355146102bd5780633b663195146102c5576101da565b80630dca59c1146101df5780631a0b287e146101f9578063214414d514610224575b600080fd5b6101e76106f6565b60408051918252519081900360200190f35b6102226004803603606081101561020f57600080fd5b50803590602081013590604001356106fc565b005b6101e76004803603604081101561023a57600080fd5b50803590602001356001600160a01b031661085e565b61027c6004803603604081101561026657600080fd5b50803590602001356001600160a01b031661087b565b60408051938452602084019290925282820152519081900360600190f35b610222600480360360408110156102b057600080fd5b50803590602001356108a7565b6101e7610958565b610222600480360360208110156102db57600080fd5b503561095e565b6101e7600480360360408110156102f857600080fd5b506001600160a01b0381358116916020013516610a2e565b6102226004803603608081101561032657600080fd5b508035906001600160a01b03602082013581169160408101359091169060600135610a4b565b6102226004803603602081101561036257600080fd5b50356001600160a01b0316610b26565b610222610bdb565b6101e76004803603602081101561039057600080fd5b50356001600160a01b0316610c34565b610222600480360360c08110156103b657600080fd5b508035906001600160a01b03602082013581169160408101358216916060820135169060808101359060a00135610c46565b610222600480360360c08110156103fe57600080fd5b508035906001600160a01b03602082013581169160408101358216916060820135169060808101359060a001356113bd565b6102226004803603606081101561044657600080fd5b508035906001600160a01b036020820135169060400135611533565b610222600480360360a081101561047857600080fd5b508035906001600160a01b0360208201358116916040810135909116906060810135906080013561162f565b6104d2600480360360408110156104ba57600080fd5b506001600160a01b0381358116916020013516611899565b604080519115158252519081900360200190f35b6101e76118d9565b6102226004803603606081101561050457600080fd5b508035906001600160a01b0360208201351690604001356118df565b6102226004803603602081101561053657600080fd5b50356001600160a01b0316611a9c565b6102226004803603602081101561055c57600080fd5b50356001600160a01b0316611b4e565b6102226004803603606081101561058257600080fd5b508035906001600160a01b036020820135169060400135611b77565b6101e7611c96565b610222600480360360608110156105bc57600080fd5b506001600160a01b03813581169160208101359091169060400135611c9c565b6101e7600480360360208110156105f257600080fd5b50356001600160a01b0316611ddc565b61061f6004803603602081101561061857600080fd5b5035611dee565b604080519788526020880196909652868601949094526060860192909252608085015260a084015260c0830152519081900360e00190f35b6102226004803603602081101561066d57600080fd5b50356001600160a01b0316611e2b565b6101e76004803603602081101561069357600080fd5b50356001600160a01b0316611e54565b610222600480360360608110156106b957600080fd5b506001600160a01b03813581169160208101359091169060400135611e66565b610222600480360360208110156106ef57600080fd5b5035611f4f565b60075481565b3360009081526020819052604090205460011461074e576040805162461bcd60e51b8152602060048201526012602482015260008051602061231d833981519152604482015290519081900360640190fd5b600a54600114610794576040805162461bcd60e51b815260206004820152600c60248201526b5661742f6e6f742d6c69766560a01b604482015290519081900360640190fd5b81631cdc1bdd60e21b14156107bc576000838152600260205260409020600401819055610859565b81636c696e6560e01b14156107e4576000838152600260205260409020600501819055610859565b8163191d5cdd60e21b141561080c576000838152600260205260409020600601819055610859565b6040805162461bcd60e51b815260206004820152601b60248201527f5661742f66696c652d756e7265636f676e697a65642d706172616d0000000000604482015290519081900360640190fd5b505050565b600460209081526000928352604080842090915290825290205481565b600360209081526000928352604080842090915290825290208054600182015460029092015490919083565b336000908152602081905260409020546001146108f9576040805162461bcd60e51b8152602060048201526012602482015260008051602061231d833981519152604482015290519081900360640190fd5b600a5460011461093f576040805162461bcd60e51b815260206004820152600c60248201526b5661742f6e6f742d6c69766560a01b604482015290519081900360640190fd5b81634c696e6560e01b141561080c5760098190555b5050565b60085481565b336000908152602081905260409020546001146109b0576040805162461bcd60e51b8152602060048201526012602482015260008051602061231d833981519152604482015290519081900360640190fd5b60008181526002602052604090206003015415610a0b576040805162461bcd60e51b815260206004820152601460248201527315985d0bda5b1acb585b1c9958591e4b5a5b9a5d60621b604482015290519081900360640190fd5b60009081526002602052604090206b033b2e3c9fd0803ce8000000600390910155565b600160209081526000928352604080842090915290825290205481565b610a558333611899565b610a98576040805162461bcd60e51b815260206004820152600f60248201526e15985d0bdb9bdd0b585b1b1bddd959608a1b604482015290519081900360640190fd5b60008481526004602090815260408083206001600160a01b0387168452909152902054610ac59082611fd5565b60008581526004602090815260408083206001600160a01b038881168552925280832093909355841681522054610afc9082611fe5565b60009485526004602090815260408087206001600160a01b03909516875293905291909320555050565b33600090815260208190526040902054600114610b78576040805162461bcd60e51b8152602060048201526012602482015260008051602061231d833981519152604482015290519081900360640190fd5b600a54600114610bbe576040805162461bcd60e51b815260206004820152600c60248201526b5661742f6e6f742d6c69766560a01b604482015290519081900360640190fd5b6001600160a01b0316600090815260208190526040902060019055565b33600090815260208190526040902054600114610c2d576040805162461bcd60e51b8152602060048201526012602482015260008051602061231d833981519152604482015290519081900360640190fd5b6000600a55565b60056020526000908152604090205481565b600a54600114610c8c576040805162461bcd60e51b815260206004820152600c60248201526b5661742f6e6f742d6c69766560a01b604482015290519081900360640190fd5b610cca6040518060400160405280602081526020017f7661742066726f62206265666f72652075726e7320696c6b7320757064617465815250611ff5565b610cd26122be565b5060008681526003602090815260408083206001600160a01b03891684528252918290208251606081018452815481526001820154928101929092526002015491810191909152610d216122df565b50600087815260026020818152604092839020835160e08101855281548152600182015492810192909252918201549281019290925260038101546060830181905260048201546080840152600582015460a084015260069091015460c0830152610dc6576040805162461bcd60e51b815260206004820152601060248201526f15985d0bda5b1acb5b9bdd0b5a5b9a5d60821b604482015290519081900360640190fd5b610e046040518060400160405280601a81526020017f7661742066726f62206265666f72652061726974686d65746963000000000000815250611ff5565b8151610e10908561209e565b82526020820151610e21908461209e565b60208301528051610e32908461209e565b81526020810151610e43908561209e565b60208201526060810151600090610e5a90856120d3565b90506000610e7083606001518560200151612101565b9050610e7e6007548361209e565b60075560408051808201909152601881527f7661742066726f62206265666f726520726571756972657300000000000000006020820152610ebe90611ff5565b610ef46000861315610eef8560a00151610ee087600001518860600151612101565b11156009546007541115612124565b612128565b610f3c576040805162461bcd60e51b815260206004820152601460248201527315985d0bd8d95a5b1a5b99cb595e18d95959195960621b604482015290519081900360640190fd5b610f6b610f5160008713156000891215612124565b610f6386600001518660800151612101565b831115612128565b610fab576040805162461bcd60e51b815260206004820152600c60248201526b5661742f6e6f742d7361666560a01b604482015290519081900360640190fd5b610fd06040518060400160405280600381526020016203a9d160ed1b8152508a61212c565b610ffe6040518060400160405280600c81526020016b036b9b39739b2b73232b91d160a51b8152503361212c565b61101061100b8a33611899565b6121e3565b61102f61102560008713156000891215612124565b610eef8b33611899565b611074576040805162461bcd60e51b81526020600482015260116024820152705661742f6e6f742d616c6c6f7765642d7560781b604482015290519081900360640190fd5b6110866000871315610eef8a33611899565b6110cb576040805162461bcd60e51b81526020600482015260116024820152702b30ba17b737ba16b0b63637bbb2b216bb60791b604482015290519081900360640190fd5b6110dd6000861215610eef8933611899565b611122576040805162461bcd60e51b81526020600482015260116024820152705661742f6e6f742d616c6c6f7765642d7760781b604482015290519081900360640190fd5b61113a84602001516000148460c00151831015612128565b611176576040805162461bcd60e51b815260206004820152600860248201526715985d0bd91d5cdd60c21b604482015290519081900360640190fd5b6111b46040518060400160405280601f81526020017f7661742066726f62206265666f7265206d617070696e67207570646174657300815250611ff5565b60008a81526004602090815260408083206001600160a01b038c1684529091529020546111e090612228565b60008a81526004602090815260408083206001600160a01b038c16845290915290205461120d9087612269565b60008b81526004602090815260408083206001600160a01b038d168452825291829020929092558051808201909152600a81526930b33a32b9102fb9bab160b11b9181019190915261125e90611ff5565b6001600160a01b038716600090815260056020526040902054611281908361209e565b60056000896001600160a01b03166001600160a01b03168152602001908152602001600020819055506112d46040518060400160405280600981526020016818599d195c8818591960ba1b815250611ff5565b60008a81526003602090815260408083206001600160a01b038d16845282529182902086518155818701516001820155828701516002909101558151808301909252600982526830b33a32b9103ab93760b91b9082015261133490611ff5565b60008a815260026020818152604092839020865181558187015160018201558387015192810192909255606086015160038301556080860151600483015560a0860151600583015560c08601516006909201919091558151808301909252600a825269616674657220696c6b7360b01b908201526113b190611ff5565b50505050505050505050565b3360009081526020819052604090205460011461140f576040805162461bcd60e51b8152602060048201526012602482015260008051602061231d833981519152604482015290519081900360640190fd5b60008681526003602090815260408083206001600160a01b0389168452825280832089845260029092529091208154611448908561209e565b82556001820154611459908461209e565b6001830155805461146a908461209e565b8155600181015461147b908561209e565b6001820155600381015460009061149290856120d3565b60008a81526004602090815260408083206001600160a01b038c1684529091529020549091506114c29086612269565b60008a81526004602090815260408083206001600160a01b03808d1685529083528184209490945592891682526006905220546114ff9082612269565b6001600160a01b0387166000908152600660205260409020556008546115259082612269565b600855505050505050505050565b33600090815260208190526040902054600114611585576040805162461bcd60e51b8152602060048201526012602482015260008051602061231d833981519152604482015290519081900360640190fd5b6115ad604051806040016040528060078152602001660696e20736c69760cc1b815250611ff5565b60008381526004602090815260408083206001600160a01b03861684529091529020546115d990612228565b60008381526004602090815260408083206001600160a01b0386168452909152902054611606908261209e565b60009384526004602090815260408086206001600160a01b039095168652939052919092205550565b60008581526003602090815260408083206001600160a01b03888116855290835281842090871684528184208985526002909352922082546116719086612269565b835560018301546116829085612269565b60018401558154611693908661209e565b825560018201546116a4908561209e565b826001018190555060006116c084600101548360030154612101565b905060006116d684600101548460030154612101565b90506116f46116e58a33611899565b6116ef8a33611899565b612124565b611737576040805162461bcd60e51b815260206004820152600f60248201526e15985d0bdb9bdd0b585b1b1bddd959608a1b604482015290519081900360640190fd5b61174985600001548460040154612101565b821115611790576040805162461bcd60e51b815260206004820152601060248201526f5661742f6e6f742d736166652d73726360801b604482015290519081900360640190fd5b6117a284600001548460040154612101565b8111156117e9576040805162461bcd60e51b815260206004820152601060248201526f15985d0bdb9bdd0b5cd859994b591cdd60821b604482015290519081900360640190fd5b61180183600601548310158660010154600014612128565b611841576040805162461bcd60e51b815260206004820152600c60248201526b5661742f647573742d73726360a01b604482015290519081900360640190fd5b61185983600601548210158560010154600014612128565b6113b1576040805162461bcd60e51b815260206004820152600c60248201526b15985d0bd91d5cdd0b591cdd60a21b604482015290519081900360640190fd5b6001600160a01b0382811660008181526001602081815260408084209587168085529590915282205491936118d093149114612128565b90505b92915050565b600a5481565b61190a6040518060400160405280600a81526020016966726f6253686172657360b01b815250611ff5565b6119126122be565b5060008381526003602090815260408083206001600160a01b03861684528252918290208251606081018452815481526001820154928101929092526002015491810182905290611963908361209e565b60408083019182526000868152600360209081528282206001600160a01b03881683528152908290208451815581850151600182015592516002909301929092558051808201909152600981526830b33a32b9103ab93760b91b918101919091526119cd90611ff5565b6119d56122df565b50600084815260026020818152604092839020835160e08101855281548152600182015492810192909252918201549281018390526003820154606082015260048201546080820152600582015460a082015260069091015460c082015290611a3e908461209e565b60408083019182526000968752600260208181529190972083518155908301516001820155905195810195909555606081015160038601556080810151600486015560a0810151600586015560c00151600690940193909355505050565b33600090815260208190526040902054600114611aee576040805162461bcd60e51b8152602060048201526012602482015260008051602061231d833981519152604482015290519081900360640190fd5b600a54600114611b34576040805162461bcd60e51b815260206004820152600c60248201526b5661742f6e6f742d6c69766560a01b604482015290519081900360640190fd5b6001600160a01b0316600090815260208190526040812055565b3360009081526001602081815260408084206001600160a01b0395909516845293905291902055565b33600090815260208190526040902054600114611bc9576040805162461bcd60e51b8152602060048201526012602482015260008051602061231d833981519152604482015290519081900360640190fd5b600a54600114611c0f576040805162461bcd60e51b815260206004820152600c60248201526b5661742f6e6f742d6c69766560a01b604482015290519081900360640190fd5b60008381526002602052604090206003810154611c2c908361209e565b60038201558054600090611c4090846120d3565b6001600160a01b038516600090815260056020526040902054909150611c66908261209e565b6001600160a01b038516600090815260056020526040902055600754611c8c908261209e565b6007555050505050565b60095481565b611cc260405180604001604052806004815260200163039b931960e51b8152508461212c565b611cef6040518060400160405280600b81526020016a036b9b39739b2b73232b9160ad1b8152503361212c565b611cf98333611899565b611d3c576040805162461bcd60e51b815260206004820152600f60248201526e15985d0bdb9bdd0b585b1b1bddd959608a1b604482015290519081900360640190fd5b611d696040518060400160405280600c81526020016b70617374207265717569726560a01b815250611ff5565b6001600160a01b038316600090815260056020526040902054611d8c9082611fd5565b6001600160a01b038085166000908152600560205260408082209390935590841681522054611dbb9082611fe5565b6001600160a01b039092166000908152600560205260409020919091555050565b60006020819052908152604090205481565b6002602081905260009182526040909120805460018201549282015460038301546004840154600585015460069095015493959492939192909187565b3360009081526001602090815260408083206001600160a01b0394909416835292905290812055565b60066020526000908152604090205481565b33600090815260208190526040902054600114611eb8576040805162461bcd60e51b8152602060048201526012602482015260008051602061231d833981519152604482015290519081900360640190fd5b6001600160a01b038316600090815260066020526040902054611edb9082611fe5565b6001600160a01b03808516600090815260066020908152604080832094909455918516815260059091522054611f119082611fe5565b6001600160a01b038316600090815260056020526040902055600854611f379082611fe5565b600855600754611f479082611fe5565b600755505050565b33600081815260066020526040902054611f699083611fd5565b6001600160a01b038216600090815260066020908152604080832093909355600590522054611f989083611fd5565b6001600160a01b038216600090815260056020526040902055600854611fbe9083611fd5565b600855600754611fce9083611fd5565b6007555050565b808203828111156118d357600080fd5b808201828110156118d357600080fd5b61209b816040516024018080602001828103825283818151815260200191508051906020019080838360005b83811015612039578181015183820152602001612021565b50505050905090810190601f1680156120665780820380516001836020036101000a031916815260200191505b5060408051601f198184030181529190526020810180516001600160e01b031663104c13eb60e21b179052925061229d915050565b50565b8181016000821215806120b15750828111155b6120ba57600080fd5b6000821315806120ca5750828110155b6118d357600080fd5b81810260008312156120e457600080fd5b8115806120ca5750828282816120f657fe5b05146118d357600080fd5b60008115806120ca5750508082028282828161211957fe5b04146118d357600080fd5b1690565b1790565b61095482826040516024018080602001836001600160a01b03168152602001828103825284818151815260200191508051906020019080838360005b83811015612180578181015183820152602001612168565b50505050905090810190601f1680156121ad5780820380516001836020036101000a031916815260200191505b5060408051601f198184030181529190526020810180516001600160e01b031663319af33360e01b179052935061229d92505050565b604080518215156024808301919091528251808303909101815260449091019091526020810180516001600160e01b03166332458eed60e01b17905261209b9061229d565b6040805160248082018490528251808303909101815260449091019091526020810180516001600160e01b031663f5b1bba960e01b17905261209b9061229d565b80820360008213158061227c5750828111155b61228557600080fd5b6000821215806120ca5750828110156118d357600080fd5b80516a636f6e736f6c652e6c6f67602083016000808483855afa5050505050565b60405180606001604052806000815260200160008152602001600081525090565b6040518060e0016040528060008152602001600081526020016000815260200160008152602001600081526020016000815260200160008152509056fe5661742f6e6f742d617574686f72697a65640000000000000000000000000000a2646970667358221220a5c0898c5d6f8e66854ab594177fbcb7428dea81df7df6ba053114aba7a649b864736f6c634300060c0033",
    "linkReferences": {}
  },
  "methodIdentifiers": {
    "Line()": "babe8a3f",
    "alleth(address)": "74223e22",
    "cage()": "69245009",
    "can(address,address)": "4538c4eb",
    "debt()": "0dca59c1",
    "deny(address)": "9c52a7f1",
    "file(bytes32,bytes32,uint256)": "1a0b287e",
    "file(bytes32,uint256)": "29ae8114",
    "flux(bytes32,address,address,uint256)": "6111be2e",
    "fold(bytes32,address,int256)": "b65337df",
    "fork(bytes32,address,address,int256,int256)": "870c616d",
    "frob(bytes32,address,address,address,int256,int256)": "76088703",
    "frobShares(bytes32,address,int256)": "95d89e94",
    "gem(bytes32,address)": "214414d5",
    "grab(bytes32,address,address,address,int256,int256)": "7bab3f40",
    "heal(uint256)": "f37ac61c",
    "hope(address)": "a3b22fc4",
    "ilks(bytes32)": "d9638d36",
    "init(bytes32)": "3b663195",
    "live()": "957aa58c",
    "move(address,address,uint256)": "bb35783b",
    "nope(address)": "dc4d20fa",
    "rely(address)": "65fae35e",
    "sin(address)": "f059212a",
    "slip(bytes32,address,int256)": "7cdd3fde",
    "suck(address,address,uint256)": "f24e23eb",
    "urns(bytes32,address)": "2424be5c",
    "vice()": "2d61a355",
    "wards(address)": "bf353dbb",
    "wish(address,address)": "91bc49f1"
  },
  "id": 55
}