{
    "abi": [
        {
            "type": "constructor",
            "inputs": [
                {
                    "name": "_borrowersRoots",
                    "type": "bytes32[]",
                    "internalType": "bytes32[]"
                },
                {
                    "name": "_lendersRoot",
                    "type": "bytes32",
                    "internalType": "bytes32"
                }
            ],
            "stateMutability": "nonpayable"
        },
        {
            "type": "function",
            "name": "acceptOwnership",
            "inputs": [],
            "outputs": [],
            "stateMutability": "nonpayable"
        },
        {
            "type": "function",
            "name": "approveProtocolWhitelist",
            "inputs": [
                {
                    "name": "addr",
                    "type": "address",
                    "internalType": "address"
                }
            ],
            "outputs": [],
            "stateMutability": "nonpayable"
        },
        {
            "type": "function",
            "name": "borrowersRoot",
            "inputs": [
                {
                    "name": "ilkIndex",
                    "type": "uint8",
                    "internalType": "uint8"
                }
            ],
            "outputs": [
                {
                    "name": "",
                    "type": "bytes32",
                    "internalType": "bytes32"
                }
            ],
            "stateMutability": "view"
        },
        {
            "type": "function",
            "name": "isWhitelistedBorrower",
            "inputs": [
                {
                    "name": "ilkIndex",
                    "type": "uint8",
                    "internalType": "uint8"
                },
                {
                    "name": "poolCaller",
                    "type": "address",
                    "internalType": "address"
                },
                {
                    "name": "addr",
                    "type": "address",
                    "internalType": "address"
                },
                {
                    "name": "proof",
                    "type": "bytes32[]",
                    "internalType": "bytes32[]"
                }
            ],
            "outputs": [
                {
                    "name": "",
                    "type": "bool",
                    "internalType": "bool"
                }
            ],
            "stateMutability": "view"
        },
        {
            "type": "function",
            "name": "isWhitelistedLender",
            "inputs": [
                {
                    "name": "poolCaller",
                    "type": "address",
                    "internalType": "address"
                },
                {
                    "name": "addr",
                    "type": "address",
                    "internalType": "address"
                },
                {
                    "name": "proof",
                    "type": "bytes32[]",
                    "internalType": "bytes32[]"
                }
            ],
            "outputs": [
                {
                    "name": "",
                    "type": "bool",
                    "internalType": "bool"
                }
            ],
            "stateMutability": "view"
        },
        {
            "type": "function",
            "name": "lendersRoot",
            "inputs": [],
            "outputs": [
                {
                    "name": "",
                    "type": "bytes32",
                    "internalType": "bytes32"
                }
            ],
            "stateMutability": "view"
        },
        {
            "type": "function",
            "name": "owner",
            "inputs": [],
            "outputs": [
                {
                    "name": "",
                    "type": "address",
                    "internalType": "address"
                }
            ],
            "stateMutability": "view"
        },
        {
            "type": "function",
            "name": "pendingOwner",
            "inputs": [],
            "outputs": [
                {
                    "name": "",
                    "type": "address",
                    "internalType": "address"
                }
            ],
            "stateMutability": "view"
        },
        {
            "type": "function",
            "name": "protocolWhitelist",
            "inputs": [
                {
                    "name": "protocolControlledAddress",
                    "type": "address",
                    "internalType": "address"
                }
            ],
            "outputs": [
                {
                    "name": "",
                    "type": "bool",
                    "internalType": "bool"
                }
            ],
            "stateMutability": "view"
        },
        {
            "type": "function",
            "name": "renounceOwnership",
            "inputs": [],
            "outputs": [],
            "stateMutability": "nonpayable"
        },
        {
            "type": "function",
            "name": "revokeProtocolWhitelist",
            "inputs": [
                {
                    "name": "addr",
                    "type": "address",
                    "internalType": "address"
                }
            ],
            "outputs": [],
            "stateMutability": "nonpayable"
        },
        {
            "type": "function",
            "name": "transferOwnership",
            "inputs": [
                {
                    "name": "newOwner",
                    "type": "address",
                    "internalType": "address"
                }
            ],
            "outputs": [],
            "stateMutability": "nonpayable"
        },
        {
            "type": "function",
            "name": "updateBorrowersRoot",
            "inputs": [
                {
                    "name": "ilkIndex",
                    "type": "uint8",
                    "internalType": "uint8"
                },
                {
                    "name": "_borrowersRoot",
                    "type": "bytes32",
                    "internalType": "bytes32"
                }
            ],
            "outputs": [],
            "stateMutability": "nonpayable"
        },
        {
            "type": "function",
            "name": "updateLendersRoot",
            "inputs": [
                {
                    "name": "_lendersRoot",
                    "type": "bytes32",
                    "internalType": "bytes32"
                }
            ],
            "outputs": [],
            "stateMutability": "nonpayable"
        },
        {
            "type": "event",
            "name": "OwnershipTransferStarted",
            "inputs": [
                {
                    "name": "previousOwner",
                    "type": "address",
                    "indexed": true,
                    "internalType": "address"
                },
                {
                    "name": "newOwner",
                    "type": "address",
                    "indexed": true,
                    "internalType": "address"
                }
            ],
            "anonymous": false
        },
        {
            "type": "event",
            "name": "OwnershipTransferred",
            "inputs": [
                {
                    "name": "previousOwner",
                    "type": "address",
                    "indexed": true,
                    "internalType": "address"
                },
                {
                    "name": "newOwner",
                    "type": "address",
                    "indexed": true,
                    "internalType": "address"
                }
            ],
            "anonymous": false
        },
        {
            "type": "error",
            "name": "NotWhitelistedBorrower",
            "inputs": [
                {
                    "name": "ilkIndex",
                    "type": "uint8",
                    "internalType": "uint8"
                },
                {
                    "name": "addr",
                    "type": "address",
                    "internalType": "address"
                }
            ]
        },
        {
            "type": "error",
            "name": "NotWhitelistedLender",
            "inputs": [
                {
                    "name": "addr",
                    "type": "address",
                    "internalType": "address"
                }
            ]
        },
        {
            "type": "error",
            "name": "OwnableInvalidOwner",
            "inputs": [
                {
                    "name": "owner",
                    "type": "address",
                    "internalType": "address"
                }
            ]
        },
        {
            "type": "error",
            "name": "OwnableUnauthorizedAccount",
            "inputs": [
                {
                    "name": "account",
                    "type": "address",
                    "internalType": "address"
                }
            ]
        }
    ],
    "bytecode": {
        "object": "0x60806040523480156200001157600080fd5b5060405162000b7b38038062000b7b833981016040819052620000349162000153565b33806200005b57604051631e4fbdf760e01b81526000600482015260240160405180910390fd5b6200006681620000cf565b5060005b82518160ff161015620000c457828160ff16815181106200008f576200008f62000224565b60209081029190910181015160ff83166000908152600390925260409091205580620000bb816200023a565b9150506200006a565b506004555062000268565b600180546001600160a01b0319169055620000ea81620000ed565b50565b600080546001600160a01b038381166001600160a01b0319831681178455604051919092169283917f8be0079c531659141344cd1fd0a4f28419497f9722a3daafe3b4186f6b6457e09190a35050565b634e487b7160e01b600052604160045260246000fd5b600080604083850312156200016757600080fd5b82516001600160401b03808211156200017f57600080fd5b818501915085601f8301126200019457600080fd5b8151602082821115620001ab57620001ab6200013d565b8160051b604051601f19603f83011681018181108682111715620001d357620001d36200013d565b604052928352818301935084810182019289841115620001f257600080fd5b948201945b838610156200021257855185529482019493820193620001f7565b97909101519698969750505050505050565b634e487b7160e01b600052603260045260246000fd5b600060ff821660ff81036200025f57634e487b7160e01b600052601160045260246000fd5b60010192915050565b61090380620002786000396000f3fe608060405234801561001057600080fd5b50600436106100ea5760003560e01c80638c7a0cbd1161008c578063b5406b3d11610066578063b5406b3d146101d4578063bd818a59146101e7578063e30c397814610207578063f2fde38b1461021857600080fd5b80638c7a0cbd146101895780638da5cb5b1461019c57806396ffa8d5146101c157600080fd5b80636067268c116100c85780636067268c1461013f578063612cb2b514610156578063715018a61461017957806379ba50971461018157600080fd5b80631db48665146100ef5780633dfd140b1461011757806358278ab61461012c575b600080fd5b6101026100fd36600461072f565b61022b565b60405190151581526020015b60405180910390f35b61012a610125366004610790565b610333565b005b61012a61013a3660046107a9565b610340565b61014860045481565b60405190815260200161010e565b6101026101643660046107a9565b60026020526000908152604090205460ff1681565b61012a61036c565b61012a610380565b61012a6101973660046107d5565b6103c4565b6000546001600160a01b03165b6040516001600160a01b03909116815260200161010e565b61012a6101cf3660046107a9565b6103e2565b6101026101e23660046107ff565b61040b565b6101486101f5366004610875565b60036020526000908152604090205481565b6001546001600160a01b03166101a9565b61012a6102263660046107a9565b61052b565b6001600160a01b03841660009081526002602052604081205460ff16156102545750600161032b565b6004548061026657600191505061032b565b604080516001600160a01b03871660208201526000910160408051601f19818403018152828252805160209182012090830152016040516020818303038152906040528051906020012090506102f285858080602002602001604051908101604052809392919081815260200183836020028082843760009201919091525086925085915061059c9050565b156103025760019250505061032b565b60405163a2a93fd360e01b81526001600160a01b03871660048201526024015b60405180910390fd5b949350505050565b61033b6105b2565b600455565b6103486105b2565b6001600160a01b03166000908152600260205260409020805460ff19166001179055565b6103746105b2565b61037e60006105df565b565b60015433906001600160a01b031681146103b85760405163118cdaa760e01b81526001600160a01b0382166004820152602401610322565b6103c1816105df565b50565b6103cc6105b2565b60ff909116600090815260036020526040902055565b6103ea6105b2565b6001600160a01b03166000908152600260205260409020805460ff19169055565b6001600160a01b03841660009081526002602052604081205460ff161561043457506001610522565b60ff861660009081526003602052604081205490819003610459576001915050610522565b604080516001600160a01b03871660208201526000910160408051601f19818403018152828252805160209182012090830152016040516020818303038152906040528051906020012090506104e585858080602002602001604051908101604052809392919081815260200183836020028082843760009201919091525086925085915061059c9050565b156104f557600192505050610522565b604051631fef5d1160e21b815260ff891660048201526001600160a01b0387166024820152604401610322565b95945050505050565b6105336105b2565b600180546001600160a01b0383166001600160a01b031990911681179091556105646000546001600160a01b031690565b6001600160a01b03167f38d16b8cac22d99fc7c124b9cd0de2d3fa1faef420bfe791d8c362d765e2270060405160405180910390a350565b6000826105a985846105f8565b14949350505050565b6000546001600160a01b0316331461037e5760405163118cdaa760e01b8152336004820152602401610322565b600180546001600160a01b03191690556103c181610645565b600081815b845181101561063d576106298286838151811061061c5761061c610890565b6020026020010151610695565b915080610635816108a6565b9150506105fd565b509392505050565b600080546001600160a01b038381166001600160a01b0319831681178455604051919092169283917f8be0079c531659141344cd1fd0a4f28419497f9722a3daafe3b4186f6b6457e09190a35050565b60008183106106b15760008281526020849052604090206106c0565b60008381526020839052604090205b9392505050565b80356001600160a01b03811681146106de57600080fd5b919050565b60008083601f8401126106f557600080fd5b50813567ffffffffffffffff81111561070d57600080fd5b6020830191508360208260051b850101111561072857600080fd5b9250929050565b6000806000806060858703121561074557600080fd5b61074e856106c7565b935061075c602086016106c7565b9250604085013567ffffffffffffffff81111561077857600080fd5b610784878288016106e3565b95989497509550505050565b6000602082840312156107a257600080fd5b5035919050565b6000602082840312156107bb57600080fd5b6106c0826106c7565b803560ff811681146106de57600080fd5b600080604083850312156107e857600080fd5b6107f1836107c4565b946020939093013593505050565b60008060008060006080868803121561081757600080fd5b610820866107c4565b945061082e602087016106c7565b935061083c604087016106c7565b9250606086013567ffffffffffffffff81111561085857600080fd5b610864888289016106e3565b969995985093965092949392505050565b60006020828403121561088757600080fd5b6106c0826107c4565b634e487b7160e01b600052603260045260246000fd5b6000600182016108c657634e487b7160e01b600052601160045260246000fd5b506001019056fea26469706673582212203978c8983beafd96539969c50dc0f3216bb3090ded0b16485c698fc1510af1c764736f6c63430008150033",
        "linkReferences": {}
    },
    "methodIdentifiers": {
        "acceptOwnership()": "79ba5097",
        "approveProtocolWhitelist(address)": "58278ab6",
        "borrowersRoot(uint8)": "bd818a59",
        "isWhitelistedBorrower(uint8,address,address,bytes32[])": "b5406b3d",
        "isWhitelistedLender(address,address,bytes32[])": "1db48665",
        "lendersRoot()": "6067268c",
        "owner()": "8da5cb5b",
        "pendingOwner()": "e30c3978",
        "protocolWhitelist(address)": "612cb2b5",
        "renounceOwnership()": "715018a6",
        "revokeProtocolWhitelist(address)": "96ffa8d5",
        "transferOwnership(address)": "f2fde38b",
        "updateBorrowersRoot(uint8,bytes32)": "8c7a0cbd",
        "updateLendersRoot(bytes32)": "3dfd140b"
    },
    "id": 136
}