{
    "abi": [
        {
            "inputs": [
                {
                    "internalType": "address",
                    "name": "_wstEth",
                    "type": "address"
                },
                {
                    "internalType": "uint8",
                    "name": "_ilkIndex",
                    "type": "uint8"
                },
                {
                    "internalType": "address[]",
                    "name": "_feeds",
                    "type": "address[]"
                },
                {
                    "internalType": "uint8",
                    "name": "_quorum",
                    "type": "uint8"
                },
                {
                    "internalType": "uint256",
                    "name": "_maxChange",
                    "type": "uint256"
                }
            ],
            "stateMutability": "nonpayable",
            "type": "constructor"
        },
        {
            "inputs": [
                {
                    "internalType": "uint256",
                    "name": "length",
                    "type": "uint256"
                }
            ],
            "name": "InvalidFeedLength",
            "type": "error"
        },
        {
            "inputs": [
                {
                    "internalType": "uint256",
                    "name": "exchangeRate",
                    "type": "uint256"
                }
            ],
            "name": "InvalidInitialization",
            "type": "error"
        },
        {
            "inputs": [
                {
                    "internalType": "uint8",
                    "name": "quorum",
                    "type": "uint8"
                }
            ],
            "name": "InvalidQuorum",
            "type": "error"
        },
        {
            "inputs": [],
            "name": "MathOverflowedMulDiv",
            "type": "error"
        },
        {
            "anonymous": false,
            "inputs": [
                {
                    "indexed": false,
                    "internalType": "uint256",
                    "name": "exchangeRate",
                    "type": "uint256"
                }
            ],
            "name": "UpdateExchangeRate",
            "type": "event"
        },
        {
            "inputs": [],
            "name": "FEED0",
            "outputs": [
                {
                    "internalType": "contract IReserveFeed",
                    "name": "",
                    "type": "address"
                }
            ],
            "stateMutability": "view",
            "type": "function"
        },
        {
            "inputs": [],
            "name": "FEED1",
            "outputs": [
                {
                    "internalType": "contract IReserveFeed",
                    "name": "",
                    "type": "address"
                }
            ],
            "stateMutability": "view",
            "type": "function"
        },
        {
            "inputs": [],
            "name": "FEED2",
            "outputs": [
                {
                    "internalType": "contract IReserveFeed",
                    "name": "",
                    "type": "address"
                }
            ],
            "stateMutability": "view",
            "type": "function"
        },
        {
            "inputs": [],
            "name": "ILK_INDEX",
            "outputs": [
                {
                    "internalType": "uint8",
                    "name": "",
                    "type": "uint8"
                }
            ],
            "stateMutability": "view",
            "type": "function"
        },
        {
            "inputs": [],
            "name": "MAX_CHANGE",
            "outputs": [
                {
                    "internalType": "uint256",
                    "name": "",
                    "type": "uint256"
                }
            ],
            "stateMutability": "view",
            "type": "function"
        },
        {
            "inputs": [],
            "name": "QUORUM",
            "outputs": [
                {
                    "internalType": "uint8",
                    "name": "",
                    "type": "uint8"
                }
            ],
            "stateMutability": "view",
            "type": "function"
        },
        {
            "inputs": [],
            "name": "WST_ETH",
            "outputs": [
                {
                    "internalType": "address",
                    "name": "",
                    "type": "address"
                }
            ],
            "stateMutability": "view",
            "type": "function"
        },
        {
            "inputs": [],
            "name": "currentExchangeRate",
            "outputs": [
                {
                    "internalType": "uint256",
                    "name": "",
                    "type": "uint256"
                }
            ],
            "stateMutability": "view",
            "type": "function"
        },
        {
            "inputs": [],
            "name": "getProtocolExchangeRate",
            "outputs": [
                {
                    "internalType": "uint256",
                    "name": "",
                    "type": "uint256"
                }
            ],
            "stateMutability": "view",
            "type": "function"
        },
        {
            "inputs": [],
            "name": "updateExchangeRate",
            "outputs": [],
            "stateMutability": "nonpayable",
            "type": "function"
        }
    ],
    "bytecode": {
        "object": "0x6101606040523480156200001257600080fd5b5060405162001233380380620012338339810160408190526200003591620005f3565b83838383600360ff16835111156200006f578251604051635a92b8ed60e11b81526004016200006691815260200190565b60405180910390fd5b600360ff831611156200009b57604051634c7795ff60e01b815260ff8316600482015260240162000066565b60ff808516608052821660a05260c081905282518390600090620000c357620000c36200070a565b60200260200101516001600160a01b031660e0816001600160a01b03168152505082600181518110620000fa57620000fa6200070a565b60200260200101516001600160a01b0316610100816001600160a01b031681525050826002815181106200013257620001326200070a565b60209081029190910101516001600160a01b039081166101205289166101405250620001629250506200016d9050565b50505050506200077f565b6200018f6200017b620001bc565b60805162000189906200022b565b62000599565b600081815503620001ba576000546040516302f35f8360e01b81526004016200006691815260200190565b565b6000610140516001600160a01b031663035faf826040518163ffffffff1660e01b8152600401602060405180830381865afa15801562000200573d6000803e3d6000fd5b505050506040513d601f19601f8201168201806040525081019062000226919062000720565b905090565b600060a05160ff16600003620002445750600019919050565b60a05160ff16600103620002ca5760e051604051634d02a3f760e01b815260ff841660048201526001600160a01b0390911690634d02a3f790602401602060405180830381865afa1580156200029e573d6000803e3d6000fd5b505050506040513d601f19601f82011682018060405250810190620002c4919062000720565b92915050565b60a05160ff16600203620003ed5760e051604051634d02a3f760e01b815260ff841660048201526000916001600160a01b031690634d02a3f790602401602060405180830381865afa15801562000325573d6000803e3d6000fd5b505050506040513d601f19601f820116820180604052508101906200034b919062000720565b61010051604051634d02a3f760e01b815260ff861660048201529192506000916001600160a01b0390911690634d02a3f790602401602060405180830381865afa1580156200039e573d6000803e3d6000fd5b505050506040513d601f19601f82011682018060405250810190620003c4919062000720565b60a05190915060ff16620003d982846200073a565b620003e591906200075c565b949350505050565b60a05160ff16600303620005945760e051604051634d02a3f760e01b815260ff841660048201526000916001600160a01b031690634d02a3f790602401602060405180830381865afa15801562000448573d6000803e3d6000fd5b505050506040513d601f19601f820116820180604052508101906200046e919062000720565b61010051604051634d02a3f760e01b815260ff861660048201529192506000916001600160a01b0390911690634d02a3f790602401602060405180830381865afa158015620004c1573d6000803e3d6000fd5b505050506040513d601f19601f82011682018060405250810190620004e7919062000720565b61012051604051634d02a3f760e01b815260ff871660048201529192506000916001600160a01b0390911690634d02a3f790602401602060405180830381865afa1580156200053a573d6000803e3d6000fd5b505050506040513d601f19601f8201168201806040525081019062000560919062000720565b60a05190915060ff16816200057684866200073a565b6200058291906200073a565b6200058e91906200075c565b93505050505b919050565b6000818310620005aa5781620005ac565b825b9392505050565b80516001600160a01b03811681146200059457600080fd5b805160ff811681146200059457600080fd5b634e487b7160e01b600052604160045260246000fd5b600080600080600060a086880312156200060c57600080fd5b6200061786620005b3565b9450602062000628818801620005cb565b60408801519095506001600160401b03808211156200064657600080fd5b818901915089601f8301126200065b57600080fd5b815181811115620006705762000670620005dd565b8060051b604051601f19603f83011681018181108582111715620006985762000698620005dd565b60405291825284820192508381018501918c831115620006b757600080fd5b938501935b82851015620006e057620006d085620005b3565b84529385019392850192620006bc565b809850505050505050620006f760608701620005cb565b9150608086015190509295509295909350565b634e487b7160e01b600052603260045260246000fd5b6000602082840312156200073357600080fd5b5051919050565b80820180821115620002c457634e487b7160e01b600052601160045260246000fd5b6000826200077a57634e487b7160e01b600052601260045260246000fd5b500490565b60805160a05160c05160e0516101005161012051610140516109f2620008416000396000818161015601526102ed01526000818161012f015261075b0152600081816101bb0152818161053e01526106ca01526000818160f0015281816103e6015281816104a5015261063101526000818161017d015261025401526000818160b201528181610371015281816103a501528181610461015281816105af015281816105ed01526107cc0152600081816101e2015261022101526109f26000f3fe608060405234801561001057600080fd5b506004361061009e5760003560e01c8063954a53f911610066578063954a53f914610178578063a3684977146101ad578063bc04cb0f146101b6578063ed0cee97146101dd578063f13597a61461020457600080fd5b806302ce728f146100a35780632e80d9b6146100ad57806336c03936146100eb5780634be39f2f1461012a5780635664cb4814610151575b600080fd5b6100ab61020c565b005b6100d47f000000000000000000000000000000000000000000000000000000000000000081565b60405160ff90911681526020015b60405180910390f35b6101127f000000000000000000000000000000000000000000000000000000000000000081565b6040516001600160a01b0390911681526020016100e2565b6101127f000000000000000000000000000000000000000000000000000000000000000081565b6101127f000000000000000000000000000000000000000000000000000000000000000081565b61019f7f000000000000000000000000000000000000000000000000000000000000000081565b6040519081526020016100e2565b61019f60005481565b6101127f000000000000000000000000000000000000000000000000000000000000000081565b6100d47f000000000000000000000000000000000000000000000000000000000000000081565b61019f6102da565b600080549061024a61021c6102e9565b6102457f000000000000000000000000000000000000000000000000000000000000000061036d565b610816565b90506000610278837f000000000000000000000000000000000000000000000000000000000000000061082e565b905060006102998361028a8487610945565b6102948588610958565b610847565b60008190556040518181529091507f4fc1b45960547ee95894b08a284c3c066cf5aca706a7420639c42c3ec2e118a49060200160405180910390a150505050565b60006102e46102e9565b905090565b60007f00000000000000000000000000000000000000000000000000000000000000006001600160a01b031663035faf826040518163ffffffff1660e01b8152600401602060405180830381865afa158015610349573d6000803e3d6000fd5b505050506040513d601f19601f820116820180604052508101906102e4919061096b565b60007f000000000000000000000000000000000000000000000000000000000000000060ff166000036103a35750600019919050565b7f000000000000000000000000000000000000000000000000000000000000000060ff1660010361045f57604051634d02a3f760e01b815260ff831660048201527f00000000000000000000000000000000000000000000000000000000000000006001600160a01b031690634d02a3f790602401602060405180830381865afa158015610435573d6000803e3d6000fd5b505050506040513d601f19601f82011682018060405250810190610459919061096b565b92915050565b7f000000000000000000000000000000000000000000000000000000000000000060ff166002036105eb57604051634d02a3f760e01b815260ff831660048201526000907f00000000000000000000000000000000000000000000000000000000000000006001600160a01b031690634d02a3f790602401602060405180830381865afa1580156104f4573d6000803e3d6000fd5b505050506040513d601f19601f82011682018060405250810190610518919061096b565b604051634d02a3f760e01b815260ff851660048201529091506000906001600160a01b037f00000000000000000000000000000000000000000000000000000000000000001690634d02a3f790602401602060405180830381865afa158015610585573d6000803e3d6000fd5b505050506040513d601f19601f820116820180604052508101906105a9919061096b565b905060ff7f0000000000000000000000000000000000000000000000000000000000000000166105d98284610958565b6105e3919061099a565b949350505050565b7f000000000000000000000000000000000000000000000000000000000000000060ff1660030361081157604051634d02a3f760e01b815260ff831660048201526000907f00000000000000000000000000000000000000000000000000000000000000006001600160a01b031690634d02a3f790602401602060405180830381865afa158015610680573d6000803e3d6000fd5b505050506040513d601f19601f820116820180604052508101906106a4919061096b565b604051634d02a3f760e01b815260ff851660048201529091506000906001600160a01b037f00000000000000000000000000000000000000000000000000000000000000001690634d02a3f790602401602060405180830381865afa158015610711573d6000803e3d6000fd5b505050506040513d601f19601f82011682018060405250810190610735919061096b565b604051634d02a3f760e01b815260ff861660048201529091506000906001600160a01b037f00000000000000000000000000000000000000000000000000000000000000001690634d02a3f790602401602060405180830381865afa1580156107a2573d6000803e3d6000fd5b505050506040513d601f19601f820116820180604052508101906107c6919061096b565b905060ff7f000000000000000000000000000000000000000000000000000000000000000016816107f78486610958565b6108019190610958565b61080b919061099a565b93505050505b919050565b60008183106108255781610827565b825b9392505050565b600061082783836b033b2e3c9fd0803ce800000061085c565b60006105e3836108578487610816565b610920565b60008383028160001985870982811083820303915050806000036108935783828161088957610889610984565b0492505050610827565b8084116108b35760405163227bc15360e01b815260040160405180910390fd5b6000848688096000868103871696879004966002600389028118808a02820302808a02820302808a02820302808a02820302808a02820302808a02909103029181900381900460010186841190950394909402919094039290920491909117919091029150509392505050565b60008183116108255781610827565b634e487b7160e01b600052601160045260246000fd5b818103818111156104595761045961092f565b808201808211156104595761045961092f565b60006020828403121561097d57600080fd5b5051919050565b634e487b7160e01b600052601260045260246000fd5b6000826109b757634e487b7160e01b600052601260045260246000fd5b50049056fea264697066735822122081307fdd0bc344ef5559339c54aeca0a57adeb500e6d974f0501316fa7cad24864736f6c63430008150033",
        "linkReferences": {}
    },
    "methodIdentifiers": {
        "FEED0()": "36c03936",
        "FEED1()": "bc04cb0f",
        "FEED2()": "4be39f2f",
        "ILK_INDEX()": "ed0cee97",
        "MAX_CHANGE()": "954a53f9",
        "QUORUM()": "2e80d9b6",
        "WST_ETH()": "5664cb48",
        "currentExchangeRate()": "a3684977",
        "getProtocolExchangeRate()": "f13597a6",
        "updateExchangeRate()": "02ce728f"
    },
    "id": 130
}