{
    "abi": [
        {
            "inputs": [
                {
                    "internalType": "uint8",
                    "name": "_ilkIndex",
                    "type": "uint8"
                },
                {
                    "internalType": "contract IonPool",
                    "name": "_ionPool",
                    "type": "address"
                },
                {
                    "internalType": "contract GemJoin",
                    "name": "_gemJoin",
                    "type": "address"
                },
                {
                    "internalType": "contract Whitelist",
                    "name": "_whitelist",
                    "type": "address"
                },
                {
                    "internalType": "contract IUniswapV3Factory",
                    "name": "_factory",
                    "type": "address"
                },
                {
                    "internalType": "contract IUniswapV3Pool",
                    "name": "_wstEthUniswapPool",
                    "type": "address"
                },
                {
                    "internalType": "uint24",
                    "name": "_poolFee",
                    "type": "uint24"
                }
            ],
            "stateMutability": "nonpayable",
            "type": "constructor"
        },
        {
            "inputs": [
                {
                    "internalType": "address",
                    "name": "target",
                    "type": "address"
                }
            ],
            "name": "AddressEmptyCode",
            "type": "error"
        },
        {
            "inputs": [
                {
                    "internalType": "address",
                    "name": "account",
                    "type": "address"
                }
            ],
            "name": "AddressInsufficientBalance",
            "type": "error"
        },
        {
            "inputs": [
                {
                    "internalType": "address",
                    "name": "unauthorizedCaller",
                    "type": "address"
                }
            ],
            "name": "CallbackOnlyCallableByPool",
            "type": "error"
        },
        {
            "inputs": [],
            "name": "CannotSendEthToContract",
            "type": "error"
        },
        {
            "inputs": [],
            "name": "ExternalBalancerFlashloanNotAllowed",
            "type": "error"
        },
        {
            "inputs": [],
            "name": "ExternalFlashswapNotAllowed",
            "type": "error"
        },
        {
            "inputs": [],
            "name": "FailedInnerCall",
            "type": "error"
        },
        {
            "inputs": [
                {
                    "internalType": "uint256",
                    "name": "amountTokens",
                    "type": "uint256"
                }
            ],
            "name": "FlashLoanedTooManyTokens",
            "type": "error"
        },
        {
            "inputs": [
                {
                    "internalType": "uint256",
                    "name": "repaymentAmount",
                    "type": "uint256"
                },
                {
                    "internalType": "uint256",
                    "name": "maxRepaymentAmount",
                    "type": "uint256"
                }
            ],
            "name": "FlashloanRepaymentTooExpensive",
            "type": "error"
        },
        {
            "inputs": [
                {
                    "internalType": "address",
                    "name": "tokenAddress",
                    "type": "address"
                }
            ],
            "name": "FlashloanedInvalidToken",
            "type": "error"
        },
        {
            "inputs": [
                {
                    "internalType": "uint256",
                    "name": "amountIn",
                    "type": "uint256"
                },
                {
                    "internalType": "uint256",
                    "name": "maxAmountIn",
                    "type": "uint256"
                }
            ],
            "name": "FlashswapRepaymentTooExpensive",
            "type": "error"
        },
        {
            "inputs": [
                {
                    "internalType": "uint256",
                    "name": "necessaryBalance",
                    "type": "uint256"
                },
                {
                    "internalType": "uint256",
                    "name": "currentBalance",
                    "type": "uint256"
                }
            ],
            "name": "InsufficientBalance",
            "type": "error"
        },
        {
            "inputs": [],
            "name": "InvalidFactoryAddress",
            "type": "error"
        },
        {
            "inputs": [],
            "name": "InvalidUniswapPool",
            "type": "error"
        },
        {
            "inputs": [],
            "name": "InvalidZeroLiquidityRegionSwap",
            "type": "error"
        },
        {
            "inputs": [],
            "name": "MathOverflowedMulDiv",
            "type": "error"
        },
        {
            "inputs": [
                {
                    "internalType": "uint256",
                    "name": "amountReceived",
                    "type": "uint256"
                },
                {
                    "internalType": "uint256",
                    "name": "amountRequired",
                    "type": "uint256"
                }
            ],
            "name": "OutputAmountNotReceived",
            "type": "error"
        },
        {
            "inputs": [
                {
                    "internalType": "address",
                    "name": "unauthorizedCaller",
                    "type": "address"
                }
            ],
            "name": "ReceiveCallerNotVault",
            "type": "error"
        },
        {
            "inputs": [
                {
                    "internalType": "uint256",
                    "name": "value",
                    "type": "uint256"
                }
            ],
            "name": "SafeCastOverflowedUintToInt",
            "type": "error"
        },
        {
            "inputs": [
                {
                    "internalType": "address",
                    "name": "token",
                    "type": "address"
                }
            ],
            "name": "SafeERC20FailedOperation",
            "type": "error"
        },
        {
            "inputs": [],
            "name": "WstEthDepositFailed",
            "type": "error"
        },
        {
            "inputs": [
                {
                    "internalType": "uint256",
                    "name": "amountCollateral",
                    "type": "uint256"
                },
                {
                    "internalType": "uint256",
                    "name": "amountToBorrow",
                    "type": "uint256"
                },
                {
                    "internalType": "bytes32[]",
                    "name": "proof",
                    "type": "bytes32[]"
                }
            ],
            "name": "depositAndBorrow",
            "outputs": [],
            "stateMutability": "nonpayable",
            "type": "function"
        },
        {
            "inputs": [
                {
                    "internalType": "uint256",
                    "name": "initialDeposit",
                    "type": "uint256"
                },
                {
                    "internalType": "uint256",
                    "name": "resultingAdditionalCollateral",
                    "type": "uint256"
                },
                {
                    "internalType": "uint256",
                    "name": "maxResultingDebt",
                    "type": "uint256"
                }
            ],
            "name": "flashLeverageCollateral",
            "outputs": [],
            "stateMutability": "nonpayable",
            "type": "function"
        },
        {
            "inputs": [
                {
                    "internalType": "uint256",
                    "name": "initialDeposit",
                    "type": "uint256"
                },
                {
                    "internalType": "uint256",
                    "name": "resultingAdditionalCollateral",
                    "type": "uint256"
                },
                {
                    "internalType": "uint256",
                    "name": "maxResultingDebt",
                    "type": "uint256"
                }
            ],
            "name": "flashLeverageWeth",
            "outputs": [],
            "stateMutability": "payable",
            "type": "function"
        },
        {
            "inputs": [
                {
                    "internalType": "uint256",
                    "name": "maxCollateralToRemove",
                    "type": "uint256"
                },
                {
                    "internalType": "uint256",
                    "name": "debtToRemove",
                    "type": "uint256"
                },
                {
                    "internalType": "uint160",
                    "name": "sqrtPriceLimitX96",
                    "type": "uint160"
                }
            ],
            "name": "flashswapDeleverage",
            "outputs": [],
            "stateMutability": "nonpayable",
            "type": "function"
        },
        {
            "inputs": [
                {
                    "internalType": "uint256",
                    "name": "initialDeposit",
                    "type": "uint256"
                },
                {
                    "internalType": "uint256",
                    "name": "resultingAdditionalCollateral",
                    "type": "uint256"
                },
                {
                    "internalType": "uint256",
                    "name": "maxResultingAdditionalDebt",
                    "type": "uint256"
                },
                {
                    "internalType": "uint160",
                    "name": "sqrtPriceLimitX96",
                    "type": "uint160"
                }
            ],
            "name": "flashswapLeverage",
            "outputs": [],
            "stateMutability": "nonpayable",
            "type": "function"
        },
        {
            "inputs": [
                {
                    "internalType": "contract IERC20[]",
                    "name": "tokens",
                    "type": "address[]"
                },
                {
                    "internalType": "uint256[]",
                    "name": "amounts",
                    "type": "uint256[]"
                },
                {
                    "internalType": "uint256[]",
                    "name": "",
                    "type": "uint256[]"
                },
                {
                    "internalType": "bytes",
                    "name": "userData",
                    "type": "bytes"
                }
            ],
            "name": "receiveFlashLoan",
            "outputs": [],
            "stateMutability": "nonpayable",
            "type": "function"
        },
        {
            "inputs": [
                {
                    "internalType": "uint256",
                    "name": "debtToRepay",
                    "type": "uint256"
                },
                {
                    "internalType": "uint256",
                    "name": "collateralToWithdraw",
                    "type": "uint256"
                }
            ],
            "name": "repayAndWithdraw",
            "outputs": [],
            "stateMutability": "nonpayable",
            "type": "function"
        },
        {
            "inputs": [
                {
                    "internalType": "int256",
                    "name": "amount0Delta",
                    "type": "int256"
                },
                {
                    "internalType": "int256",
                    "name": "amount1Delta",
                    "type": "int256"
                },
                {
                    "internalType": "bytes",
                    "name": "_data",
                    "type": "bytes"
                }
            ],
            "name": "uniswapV3SwapCallback",
            "outputs": [],
            "stateMutability": "nonpayable",
            "type": "function"
        },
        {
            "stateMutability": "payable",
            "type": "receive"
        }
    ],
    "bytecode": {
        "object": "0x6101c060405260016000553480156200001757600080fd5b5060405162002dfb38038062002dfb8339810160408190526200003a916200042c565b82828260008a8a8a8a826001600160a01b031660c0816001600160a01b0316815250508360ff1660a08160ff1681525050600060c0516001600160a01b0316636f307dc36040518163ffffffff1660e01b8152600401602060405180830381865afa158015620000ae573d6000803e3d6000fd5b505050506040513d601f19601f82011682018060405250810190620000d49190620004e3565b6001600160a01b0381811660805260c05160405163efff005f60e01b815260ff8916600482015292935060009291169063efff005f90602401602060405180830381865afa1580156200012b573d6000803e3d6000fd5b505050506040513d601f19601f82011682018060405250810190620001519190620004e3565b6001600160a01b038181166101005285811660e0528481166101205260c05160405163095ea7b360e01b81529082166004820152600019602482015291925083169063095ea7b3906044016020604051808303816000875af1158015620001bc573d6000803e3d6000fd5b505050506040513d601f19601f82011682018060405250810190620001e291906200050a565b5060405163095ea7b360e01b81526001600160a01b038581166004830152600019602483015282169063095ea7b3906044016020604051808303816000875af115801562000234573d6000803e3d6000fd5b505050506040513d601f19601f820116820180604052508101906200025a91906200050a565b5050506001600160a01b03881693506200028b9250505057604051635c7bfbe960e01b815260040160405180910390fd5b6001600160a01b038316620002b3576040516312a5c13d60e31b815260040160405180910390fd5b6000836001600160a01b0316630dfe16816040518163ffffffff1660e01b8152600401602060405180830381865afa158015620002f4573d6000803e3d6000fd5b505050506040513d601f19601f820116820180604052508101906200031a9190620004e3565b90506000846001600160a01b031663d21220a76040518163ffffffff1660e01b8152600401602060405180830381865afa1580156200035d573d6000803e3d6000fd5b505050506040513d601f19601f82011682018060405250810190620003839190620004e3565b90506080516001600160a01b0316826001600160a01b031614158015620003be57506080516001600160a01b0316816001600160a01b031614155b15620003dd576040516312a5c13d60e31b815260040160405180910390fd5b50506001600160a01b0393841661014052919092166101605215156101a05262ffffff1661018052506200052e95505050505050565b6001600160a01b03811681146200042957600080fd5b50565b600080600080600080600060e0888a0312156200044857600080fd5b875160ff811681146200045a57600080fd5b60208901519097506200046d8162000413565b6040890151909650620004808162000413565b6060890151909550620004938162000413565b6080890151909450620004a68162000413565b60a0890151909350620004b98162000413565b60c089015190925062ffffff81168114620004d357600080fd5b8091505092959891949750929550565b600060208284031215620004f657600080fd5b8151620005038162000413565b9392505050565b6000602082840312156200051d57600080fd5b815180151581146200050357600080fd5b60805160a05160c05160e05161010051610120516101405161016051610180516101a051612755620006a6600039600081816103f4015281816106150152610d8001526000505060008181610c6a01526112aa01526000505060006104bf0152600081816101d401528181610569015281816105ac0152818161098401528181610a6801528181610abe01528181610b1a01528181610cf201528181610d5a01528181610e860152611858015260008181610ece0152611766015260008181610f3a0152818161103f015281816110f9015281816111d1015281816114860152818161153f0152818161163301526116e4015260008181610458015281816104ee01528181610f6501528181611014015281816110c4015281816111f80152818161145c0152818161150a015281816115ec01526116a0015260008181608f01528181610220015281816106a7015281816107f0015281816108a001528181610d1301528181610d3901526117e701526127556000f3fe60806040526004361061007f5760003560e01c8063ebc9b94d1161004e578063ebc9b94d14610147578063f04f270714610167578063f978b2a514610187578063fa461e33146101a757600080fd5b80631c8f6623146100d457806389ee90f5146100e757806396c7525914610107578063d151581f1461012757600080fd5b366100cf57336001600160a01b037f000000000000000000000000000000000000000000000000000000000000000016146100cd57604051637c56635360e01b815260040160405180910390fd5b005b600080fd5b6100cd6100e2366004611e6b565b6101c7565b3480156100f357600080fd5b506100cd610102366004611eac565b6103d1565b34801561011357600080fd5b506100cd610122366004611ee5565b610456565b34801561013357600080fd5b506100cd610142366004611f68565b61059f565b34801561015357600080fd5b506100cd610162366004611fa9565b610685565b34801561017357600080fd5b506100cd610182366004612111565b61072d565b34801561019357600080fd5b506100cd6101a2366004611e6b565b610ab1565b3480156101b357600080fd5b506100cd6101c236600461221c565b610c5f565b6101fc6001600160a01b037f000000000000000000000000000000000000000000000000000000000000000016333086610dfb565b604080516001808252818301909252600091602080830190803683370190505090507f0000000000000000000000000000000000000000000000000000000000000000816000815181106102525761025261228d565b6001600160a01b0390921660209283029190910190910152600061027685856122b9565b9050600061028382610e77565b9050806000036102a45761029c33308760006001610eb2565b505050505050565b838111156102d457604051634245776b60e11b815260048101829052602481018590526044015b60405180910390fd5b60408051600180825281830190925260009160208083019080368337019050509050818160008151811061030a5761030a61228d565b60209081029190910181019190915260026000556040805133928101929092528101889052606081018790526080810186905273ba12222222228d8ba445958a75a0704d566bf2c890635c38449e9030908790859060a0015b6040516020818303038152906040526040518563ffffffff1660e01b81526004016103919493929190612357565b600060405180830381600087803b1580156103ab57600080fd5b505af11580156103bf573d6000803e3d6000fd5b50506001600055505050505050505050565b816000036103de57505050565b60408051606081018252338152602081018490527f000000000000000000000000000000000000000000000000000000000000000015918101829052600061042983863087866112a3565b90508581111561029c576040516375b96ebf60e01b815260048101829052602481018790526044016102cb565b7f00000000000000000000000000000000000000000000000000000000000000008282808060200260200160405190810160405280939291908181526020018383602002808284376000920191909152505060405163125ddf4d60e01b81526001600160a01b037f000000000000000000000000000000000000000000000000000000000000000016925063125ddf4d915061051a907f000000000000000000000000000000000000000000000000000000000000000090339086906004016123da565b602060405180830381865afa158015610537573d6000803e3d6000fd5b505050506040513d601f19601f8201168201806040525081019061055b9190612413565b506105916001600160a01b037f000000000000000000000000000000000000000000000000000000000000000016333089610dfb565b61029c333388886001610eb2565b6105d46001600160a01b037f000000000000000000000000000000000000000000000000000000000000000016333087610dfb565b60006105e085856122b9565b9050806000036105ff576105f933308660006001610eb2565b5061067f565b60408051606081018252338152602081018690527f000000000000000000000000000000000000000000000000000000000000000080151592820192909252600061064d83853088866112a3565b90508581111561067a576040516375b96ebf60e01b815260048101829052602481018790526044016102cb565b505050505b50505050565b6040516323b872dd60e01b8152336004820152306024820152604481018390527f00000000000000000000000000000000000000000000000000000000000000006001600160a01b0316906323b872dd906064016020604051808303816000875af11580156106f8573d6000803e3d6000fd5b505050506040513d601f19601f8201168201806040525081019061071c9190612413565b506107293333838561144b565b5050565b6001845111156107545783516040516243e53360e71b81526004016102cb91815260200190565b3373ba12222222228d8ba445958a75a0704d566bf2c81461078a576040516337e52a2b60e11b81523360048201526024016102cb565b6000546002146107ad57604051633e0560f760e11b815260040160405180910390fd5b6000846000815181106107c2576107c261228d565b60200260200101519050600080600080858060200190518101906107e69190612430565b93509350935093507f00000000000000000000000000000000000000000000000000000000000000006001600160a01b0316856001600160a01b03160361097857600061084c8960008151811061083f5761083f61228d565b60200260200101516117ce565b905082610859858361246f565b1461086657610866612482565b8181111561087657610876612482565b61089e8530858c60008151811061088f5761088f61228d565b60200260200101516000610eb2565b7f00000000000000000000000000000000000000000000000000000000000000006001600160a01b031663a9059cbb73ba12222222228d8ba445958a75a0704d566bf2c88b6000815181106108f5576108f561228d565b60200260200101516040518363ffffffff1660e01b815260040161092e9291906001600160a01b03929092168252602082015260400190565b6020604051808303816000875af115801561094d573d6000803e3d6000fd5b505050506040513d601f19601f820116820180604052508101906109719190612413565b5050610aa6565b846001600160a01b03167f00000000000000000000000000000000000000000000000000000000000000006001600160a01b0316146109d557604051632742f9c360e21b81526001600160a01b03861660048201526024016102cb565b60006109fa896000815181106109ed576109ed61228d565b6020026020010151610e77565b905082848a600081518110610a1157610a1161228d565b6020026020010151610a23919061246f565b14610a3057610a30612482565b81811115610a4057610a40612482565b610a4e853085846000610eb2565b6000610a59826117ce565b9050610aa36001600160a01b037f00000000000000000000000000000000000000000000000000000000000000001673ba12222222228d8ba445958a75a0704d566bf2c883611880565b50505b505050505050505050565b610ae66001600160a01b037f000000000000000000000000000000000000000000000000000000000000000016333086610dfb565b6000610af284846122b9565b60408051600180825281830190925291925060009190602080830190803683370190505090507f000000000000000000000000000000000000000000000000000000000000000081600081518110610b4c57610b4c61228d565b6001600160a01b0392909216602092830291909101909101526040805160018082528183019092526000918160200160208202803683370190505090508281600081518110610b9d57610b9d61228d565b60200260200101818152505080600081518110610bbc57610bbc61228d565b6020026020010151600003610bda5761029c33308760006001610eb2565b6000610be584610e77565b905084811115610c1257604051634245776b60e11b815260048101829052602481018690526044016102cb565b600260005560408051336020820152908101889052606081018790526080810186905273ba12222222228d8ba445958a75a0704d566bf2c890635c38449e9030908690869060a001610363565b336001600160a01b037f00000000000000000000000000000000000000000000000000000000000000001614610caa576040516390d9465960e01b81523360048201526024016102cb565b83158015610cb6575082155b15610cd457604051631306fb0560e21b815260040160405180910390fd5b6000610ce282840184612498565b90506000808260400151610d37577f00000000000000000000000000000000000000000000000000000000000000007f0000000000000000000000000000000000000000000000000000000000000000610d7a565b7f00000000000000000000000000000000000000000000000000000000000000007f00000000000000000000000000000000000000000000000000000000000000005b915091507f0000000000000000000000000000000000000000000000000000000000000000610da857949594905b600080881315610dd057879050610dcb8460000151308660200151846000610eb2565b610de7565b869050610de784600001513083876020015161144b565b61067a6001600160a01b0384163383611880565b6040516001600160a01b03848116602483015283811660448301526064820183905261067f9186918216906323b872dd906084015b604051602081830303815290604052915060e01b6020820180517bffffffffffffffffffffffffffffffffffffffffffffffffffffffff83818316178352505050506118b6565b6000610eac6001600160a01b037f00000000000000000000000000000000000000000000000000000000000000001683611919565b92915050565b604051633b4da69f60e01b8152306004820152602481018490527f00000000000000000000000000000000000000000000000000000000000000006001600160a01b031690633b4da69f90604401600060405180830381600087803b158015610f1a57600080fd5b505af1158015610f2e573d6000803e3d6000fd5b50506001600160a01b037f000000000000000000000000000000000000000000000000000000000000000016915063918a2f4290507f00000000000000000000000000000000000000000000000000000000000000008730876000604051908082528060200260200182016040528015610fb2578160200160208202803683370190505b506040518663ffffffff1660e01b8152600401610fd3959493929190612501565b600060405180830381600087803b158015610fed57600080fd5b505af1158015611001573d6000803e3d6000fd5b5050604051633c04b54760e01b815260ff7f0000000000000000000000000000000000000000000000000000000000000000166004820152600092507f00000000000000000000000000000000000000000000000000000000000000006001600160a01b03169150633c04b54790602401602060405180830381865afa15801561108f573d6000803e3d6000fd5b505050506040513d601f19601f820116820180604052508101906110b3919061253c565b604051639b7fd77760e01b815260ff7f00000000000000000000000000000000000000000000000000000000000000001660048201529091506000906001600160a01b037f00000000000000000000000000000000000000000000000000000000000000001690639b7fd7779060240160a060405180830381865afa158015611140573d6000803e3d6000fd5b505050506040513d601f19601f820116820180604052508101906111649190612555565b50506cffffffffffffffffffffffffff169250505060008183611187919061246f565b905060008085600181111561119e5761119e6125c9565b036111b4576111ad8683611a5f565b90506111c1565b6111be8683611a81565b90505b8515610aa6576001600160a01b037f000000000000000000000000000000000000000000000000000000000000000016639306f2f87f00000000000000000000000000000000000000000000000000000000000000008b8b856000604051908082528060200260200182016040528015611245578160200160208202803683370190505b506040518663ffffffff1660e01b8152600401611266959493929190612501565b600060405180830381600087803b15801561128057600080fd5b505af1158015611294573d6000803e3d6000fd5b50505050505050505050505050565b60008060007f00000000000000000000000000000000000000000000000000000000000000006001600160a01b031663128acb08878a6112e28b611a9a565b6112eb906125df565b6001600160a01b038a16156113005789611339565b8c61132957611324600173fffd8963efd1fc6a506488495d951d5263988d266125fb565b611339565b6113396401000276a36001612622565b604080518b516001600160a01b03166020808301919091528c015181830152908b0151151560608201526080016040516020818303038152906040526040518663ffffffff1660e01b8152600401611395959493929190612642565b60408051808303816000875af11580156113b3573d6000803e3d6000fd5b505050506040513d601f19601f820116820180604052508101906113d7919061267c565b915091506000886113f157816113ec846125df565b6113fb565b826113fb836125df565b90945090506001600160a01b0386161580156114175750878114155b1561143f5760405163c6b1474760e01b815260048101829052602481018990526044016102cb565b50505095945050505050565b604051633c04b54760e01b815260ff7f00000000000000000000000000000000000000000000000000000000000000001660048201526000907f00000000000000000000000000000000000000000000000000000000000000006001600160a01b031690633c04b54790602401602060405180830381865afa1580156114d5573d6000803e3d6000fd5b505050506040513d601f19601f820116820180604052508101906114f9919061253c565b604051639b7fd77760e01b815260ff7f00000000000000000000000000000000000000000000000000000000000000001660048201529091506000906001600160a01b037f00000000000000000000000000000000000000000000000000000000000000001690639b7fd7779060240160a060405180830381865afa158015611586573d6000803e3d6000fd5b505050506040513d601f19601f820116820180604052508101906115aa9190612555565b50506cffffffffffffffffffffffffff1692505050600081836115cd919061246f565b905060006115db8583611a81565b604051638459b43760e01b815260ff7f00000000000000000000000000000000000000000000000000000000000000001660048201526001600160a01b038a81166024830152306044830152606482018390529192507f000000000000000000000000000000000000000000000000000000000000000090911690638459b43790608401600060405180830381600087803b15801561167957600080fd5b505af115801561168d573d6000803e3d6000fd5b5050604051631d0fe70360e21b815260ff7f00000000000000000000000000000000000000000000000000000000000000001660048201526001600160a01b038b81166024830152306044830152606482018a90527f000000000000000000000000000000000000000000000000000000000000000016925063743f9c0c9150608401600060405180830381600087803b15801561172a57600080fd5b505af115801561173e573d6000803e3d6000fd5b505060405163ef693bed60e01b81526001600160a01b038a81166004830152602482018a90527f000000000000000000000000000000000000000000000000000000000000000016925063ef693bed9150604401600060405180830381600087803b1580156117ac57600080fd5b505af11580156117c0573d6000803e3d6000fd5b505050505050505050505050565b604051632e1a7d4d60e01b8152600481018290526000907f00000000000000000000000000000000000000000000000000000000000000006001600160a01b031690632e1a7d4d90602401600060405180830381600087803b15801561183357600080fd5b505af1158015611847573d6000803e3d6000fd5b50610eac9250506001600160a01b037f000000000000000000000000000000000000000000000000000000000000000016905083611ae4565b6040516001600160a01b038381166024830152604482018390526118b191859182169063a9059cbb90606401610e30565b505050565b60006118cb6001600160a01b03841683611b63565b905080516000141580156118f05750808060200190518101906118ee9190612413565b155b156118b157604051635274afe760e01b81526001600160a01b03841660048201526024016102cb565b600080836001600160a01b031663c1fe3e486040518163ffffffff1660e01b8152600401602060405180830381865afa15801561195a573d6000803e3d6000fd5b505050506040513d601f19601f8201168201806040525081019061197e91906126a0565b9050611a57816001600160a01b031663d5002f2e6040518163ffffffff1660e01b8152600401602060405180830381865afa1580156119c1573d6000803e3d6000fd5b505050506040513d601f19601f820116820180604052508101906119e5919061253c565b611a51836001600160a01b03166337cfdaca6040518163ffffffff1660e01b8152600401602060405180830381865afa158015611a26573d6000803e3d6000fd5b505050506040513d601f19601f82011682018060405250810190611a4a919061253c565b8690611b71565b90611b86565b949350505050565b6000611a7a836b033b2e3c9fd0803ce8000000846001611b99565b9392505050565b6000611a7a836b033b2e3c9fd0803ce800000084611bea565b60007f7fffffffffffffffffffffffffffffffffffffffffffffffffffffffffffffff821115611ae05760405163123baf0360e11b8152600481018390526024016102cb565b5090565b600080836001600160a01b03168360405160006040518083038185875af1925050503d8060008114611b32576040519150601f19603f3d011682016040523d82523d6000602084013e611b37565b606091505b5050905080611b5957604051633688909960e21b815260040160405180910390fd5b611a578484611cae565b6060611a7a83836000611d19565b6000611a7a8383670de0b6b3a7640000611bea565b6000611a7a83670de0b6b3a76400008460015b600080611ba7868686611bea565b9050611bb283611db6565b8015611bce575060008480611bc957611bc96126bd565b868809115b15611be157611bde60018261246f565b90505b95945050505050565b6000838302816000198587098281108382030391505080600003611c2157838281611c1757611c176126bd565b0492505050611a7a565b808411611c415760405163227bc15360e01b815260040160405180910390fd5b6000848688096000868103871696879004966002600389028118808a02820302808a02820302808a02820302808a02820302808a02820302808a02909103029181900381900460010186841190950394909402919094039290920491909117919091029150509392505050565b60405162b0e38960e81b8152600481018290526000906001600160a01b0384169063b0e3890090602401602060405180830381865afa158015611cf5573d6000803e3d6000fd5b505050506040513d601f19601f82011682018060405250810190611a7a919061253c565b606081471015611d3e5760405163cd78605960e01b81523060048201526024016102cb565b600080856001600160a01b03168486604051611d5a91906126d3565b60006040518083038185875af1925050503d8060008114611d97576040519150601f19603f3d011682016040523d82523d6000602084013e611d9c565b606091505b5091509150611dac868383611de3565b9695505050505050565b60006002826003811115611dcc57611dcc6125c9565b611dd691906126ef565b60ff166001149050919050565b606082611df857611df382611e3f565b611a7a565b8151158015611e0f57506001600160a01b0384163b155b15611e3857604051639996b31560e01b81526001600160a01b03851660048201526024016102cb565b5080611a7a565b805115611e4f5780518082602001fd5b604051630a12f52160e11b815260040160405180910390fd5b50565b600080600060608486031215611e8057600080fd5b505081359360208301359350604090920135919050565b6001600160a01b0381168114611e6857600080fd5b600080600060608486031215611ec157600080fd5b83359250602084013591506040840135611eda81611e97565b809150509250925092565b60008060008060608587031215611efb57600080fd5b8435935060208501359250604085013567ffffffffffffffff80821115611f2157600080fd5b818701915087601f830112611f3557600080fd5b813581811115611f4457600080fd5b8860208260051b8501011115611f5957600080fd5b95989497505060200194505050565b60008060008060808587031215611f7e57600080fd5b8435935060208501359250604085013591506060850135611f9e81611e97565b939692955090935050565b60008060408385031215611fbc57600080fd5b50508035926020909101359150565b634e487b7160e01b600052604160045260246000fd5b604051601f8201601f1916810167ffffffffffffffff8111828210171561200a5761200a611fcb565b604052919050565b600067ffffffffffffffff82111561202c5761202c611fcb565b5060051b60200190565b600082601f83011261204757600080fd5b8135602061205c61205783612012565b611fe1565b82815260059290921b8401810191818101908684111561207b57600080fd5b8286015b84811015612096578035835291830191830161207f565b509695505050505050565b600082601f8301126120b257600080fd5b813567ffffffffffffffff8111156120cc576120cc611fcb565b6120df601f8201601f1916602001611fe1565b8181528460208386010111156120f457600080fd5b816020850160208301376000918101602001919091529392505050565b6000806000806080858703121561212757600080fd5b843567ffffffffffffffff8082111561213f57600080fd5b818701915087601f83011261215357600080fd5b8135602061216361205783612012565b82815260059290921b8401810191818101908b84111561218257600080fd5b948201945b838610156121a957853561219a81611e97565b82529482019490820190612187565b985050880135925050808211156121bf57600080fd5b6121cb88838901612036565b945060408701359150808211156121e157600080fd5b6121ed88838901612036565b9350606087013591508082111561220357600080fd5b50612210878288016120a1565b91505092959194509250565b6000806000806060858703121561223257600080fd5b8435935060208501359250604085013567ffffffffffffffff8082111561225857600080fd5b818701915087601f83011261226c57600080fd5b81358181111561227b57600080fd5b886020828501011115611f5957600080fd5b634e487b7160e01b600052603260045260246000fd5b634e487b7160e01b600052601160045260246000fd5b81810381811115610eac57610eac6122a3565b600081518084526020808501945080840160005b838110156122fc578151875295820195908201906001016122e0565b509495945050505050565b60005b8381101561232257818101518382015260200161230a565b50506000910152565b60008151808452612343816020860160208601612307565b601f01601f19169290920160200192915050565b6000608082016001600160a01b038088168452602060808186015282885180855260a087019150828a01945060005b818110156123a4578551851683529483019491830191600101612386565b505085810360408701526123b881896122cc565b935050505082810360608401526123cf818561232b565b979650505050505050565b60ff841681526001600160a01b0383166020820152606060408201526000611be160608301846122cc565b8015158114611e6857600080fd5b60006020828403121561242557600080fd5b8151611a7a81612405565b6000806000806080858703121561244657600080fd5b845161245181611e97565b60208601516040870151606090970151919890975090945092505050565b80820180821115610eac57610eac6122a3565b634e487b7160e01b600052600160045260246000fd5b6000606082840312156124aa57600080fd5b6040516060810181811067ffffffffffffffff821117156124cd576124cd611fcb565b60405282356124db81611e97565b81526020838101359082015260408301356124f581612405565b60408201529392505050565b60ff8616815260006001600160a01b03808716602084015280861660408401525083606083015260a060808301526123cf60a08301846122cc565b60006020828403121561254e57600080fd5b5051919050565b600080600080600060a0868803121561256d57600080fd5b855194506020860151935060408601516cffffffffffffffffffffffffff8116811461259857600080fd5b60608701516080880151919450925065ffffffffffff811681146125bb57600080fd5b809150509295509295909350565b634e487b7160e01b600052602160045260246000fd5b6000600160ff1b82016125f4576125f46122a3565b5060000390565b6001600160a01b0382811682821603908082111561261b5761261b6122a3565b5092915050565b6001600160a01b0381811683821601908082111561261b5761261b6122a3565b60006001600160a01b038088168352861515602084015285604084015280851660608401525060a060808301526123cf60a083018461232b565b6000806040838503121561268f57600080fd5b505080516020909101519092909150565b6000602082840312156126b257600080fd5b8151611a7a81611e97565b634e487b7160e01b600052601260045260246000fd5b600082516126e5818460208701612307565b9190910192915050565b600060ff83168061271057634e487b7160e01b600052601260045260246000fd5b8060ff8416069150509291505056fea264697066735822122063ccaebd4db848a570e3bfbf48940eb28c98d5c3f1b7e9bb050a8d23f357497564736f6c63430008150033",
        "linkReferences": {}
    },
    "methodIdentifiers": {
        "depositAndBorrow(uint256,uint256,bytes32[])": "96c75259",
        "flashLeverageCollateral(uint256,uint256,uint256)": "f978b2a5",
        "flashLeverageWeth(uint256,uint256,uint256)": "1c8f6623",
        "flashswapDeleverage(uint256,uint256,uint160)": "89ee90f5",
        "flashswapLeverage(uint256,uint256,uint256,uint160)": "d151581f",
        "receiveFlashLoan(address[],uint256[],uint256[],bytes)": "f04f2707",
        "repayAndWithdraw(uint256,uint256)": "ebc9b94d",
        "uniswapV3SwapCallback(int256,int256,bytes)": "fa461e33"
    },
    "id": 105
}